S00D00005573624875622E7333379E
S31508000000D86F002041C701089DA701089FA70108CE
S31508000010A70B0000000000000000FFFF54000008C6
S31508000020040C0300000000000000000000000000AF
S3150800003000000000000000000000000000000000B2
S315080000400000000000000000000000008101000020
S3150800005000000000D86F002041C701089DA70108CD
S315080000609FA70108A70A080100010008040C03ACB1
S31508000070015381010000000000000000000000009C
S315080000800000000000000000000000000000000062
S31508000090000000000000000000000000FFFFFFFF56
S315080000A0FFFFFFFFFFFFFFFF00E00708000000005B
S315080000B000000000FFFFFFFFFFFFFFFFFFFFFFFF3E
S315080000C0FFFFFFFFFFFFFFFFFFFFFFFFFFFFFFFF32
S315080000D0FFFFFFFFF07F002000000000E97F0020FF
S315080000E0E97F0020D86F0020D822020812CA01082A
S315080000F078660020600D00200000080800800020B7
S31508000100D86F002041C701089DA701089FA70108CD
S31508000110A3A70108A1A70108A5A7010814A9010812
S3150800012014A9010814A9010814A9010814A90108A9
S31508000130A7A7010814A90108B1C9010827C800081A
S31508000140C9A3010814A90108B1CB000814A901081C
S315080001505BBB0008F717000814A9010814A90108D1
S31508000160D56E010841D1000821B8000875C90008F4
S3150800017014A90108BFCA00081DCB0008DF3E000805
S315080001800156010814A9010814A9010815A90108AE
S315080001900FF25801022000F091B810B5002814BFDC
S315080001A004A405A4002000F022FB234602460FF211
S315080001B0600113E06F6E00006F6666000120ECE7D1
S315080001C00020EAE710B5012000F011FB04460020E4
S315080001D000F00DFB234602460FF248010220BDE857
S315080001E0104000F06BB8002070477047656E756D5B
S315080001F02C4C6576656C436F6E74726F6C446576CD
S315080002006963652C302C4C616D7023310000000049
S315080002107570646174652C25752C6F6E2D6F666616
S315080002202C2573007570646174652C25752C6C65B6
S3150800023076656C2C257500004FF6FF71884207D04D
S31508000240010A01D0002070473D490978084000D0CE
S3150800025001207047020A07D1394A1378002914BFCA
S31508000260184323EA000010707047C108012200F005
S31508000270070002FA00F000EB012080B27047F8B5DB
S3150800028004460D4616461F46FFF7D6FF58B13A46AE
S315080002903146012000F0ABFD1DB126A1012000F07A
S315080002A0B8FD28480480F1BD80B5FFF7C5FF20B129
S315080002B00120BDE8024000F00ABE01BD0CB480B5BD
S315080002C002AB0A46012104E00CB480B502AB0A462B
S315080002D00021FFF7D4FF01BC5DF80CFB2DE9F041C6
S315080002E082B000240FF27C05DFF85C8012A713A603
S315080002F0E0B2FFF7BAFFFFF79FFF002814BF3046AA
S315080003003846009058F8243022462946012000F045
S3150800031088FD012000F0DBFD641C032CE8DBBDE84A
S31508000320F3810122FF2101E001220021044800F0A7
S315080003306CBE00000D0A00006E6F000059455300A0
S31508000340B87500200E780020A875002080B5FFF744
S315080003508CFF012103E080B5FFF787FF0021BDE888
S31508000360044077E75B25645D202570203A202570D8
S3150800037000000000DFF8EC060021017080F872101A
S3150800038080F8651080F8711080F87310FF2180F8E6
S315080003907410002180F8751081677047612828BF9E
S315080003A0572107D2412828BF372103D23A2834BF1C
S315080003B030210021401AC0B27047DFF8A81640184D
S315080003C090F8661090F86500D3E1DFF898164018A3
S315080003D090F865004018401C70472DE9F84F804694
S315080003E00F460024DFF88096DFF8786601E089F882
S315080003F00000B8F1000F09D100A9F8B200F0A9FC75
S3150800040070B1262818BF012079D101E0FFB217B9CB
S315080004102046BDE8F28F18F8010B8DF800007F1E04
S3150800042099F800000D2804BF9DF800000A28DED0C0
S315080004309DF8000089F800009DF800000D2805D1F8
S3150800044001240025222807D1012006E00A28F7D032
S3150800045000242028F5D101250020317831B1022960
S3150800046023D019D304294ED023D3C2E714B100F000
S31508000470D1F8BEE7002DBCD138B10220307096F80D
S315080004807250642D57D1062039E09DF800007B286C
S3150800049014BF01200320F1E755EA0400EFD096F8CF
S315080004A071000B2839D1032029E00028F7D12CBB8D
S315080004B0E5E796F874A0BAF1FF0F14BF4FF0010BE9
S315080004C04FF0000B9DF800007D2803D1BBF1000F0B
S315080004D014D1E4E7FFF762FF10280DD2BBF1000F35
S315080004E007D000EB0A108DF80000FF2086F874008C
S315080004F0C5E786F874007CE7002DFCD1052086F850
S31508000500730004203070002C06D096F8730008B1EA
S3150800051000F05DFAFFF72EFF6BE7401C86F87100C6
S31508000520C0B2801996F8721080F8651000203070F5
S31508000530002CF1D09BE73078012805D19DF8000002
S3150800054000F01AF88DF80000A8199DF800104170FF
S3150800055096F87200401C86F872004AE7826840687E
S31508000560030008BF0A6003D012786E2A02D1086019
S315080005700120704700207047A0F14101C9B21A292D
S315080005803CBF2030C0B27047DFF8D81491F8752008
S315080005901018C0B2401890F86500401840787047A7
S315080005A02DE9F84F05460E46002470B2FFF70DFFF9
S315080005B080463046FFF701FF824600260BE019F811
S315080005C0010BFFF7D9FF834617F8010BFFF7D4FF96
S315080005D0834503D014352F68B7B1C146A9EB080087
S315080005E050450CBF012100213878421E924111EA7C
S315080005F0D27F01D028460BE051EAD270DFD0002C1A
S315080006000CBF2C460126E5E7002E14BF0020204625
S31508000610BDE8F28F2DE9F843DFF850040090002476
S31508000620DFF8409499F8710060B3DFF84404007865
S31508000630C0071AD5002682A70FE070B2FFF7C5FEDD
S3150800064005463046FFF7B9FE02462946012000F066
S31508000650F5FB394600F0AAF9761C99F87100F6B24E
S315080006608642EAD3BDA100F0A1F921460098FFF71A
S3150800067097FF009009F2710640B90220B070B07871
S3150800068000F0A5F9FFF776FEBDE8F183C9F8780012
S31508000690641C3079401C307100A90098FFF75EFF92
S315080006A028B199F87100E4B28442DED352E000988A
S315080006B0806800783F284FD00027B8460FE007200B
S315080006C0B07000988068381840782A281CBF7F1CAC
S315080006D0FFB2B07800283FD1641C08F101080098E1
S315080006E080683D5C99F87110E4B28C422CD25FFAAE
S315080006F088F0FFF749FF290024D0B5F162011BD025
S31508000700113902D0891E0229D9D8752D08BFFF25AF
S3150800071009D0762D08BF4FF6FF7504D0732D0CBF90
S315080007207F254FF0FF3501215FFA88F000F024F8A5
S315080007308542C6D20420C3E7222818BF7B28C0D02A
S315080007400520BDE70320BBE7002D1EBF38184078FB
S315080007502A2801D0032091E7B07800288FD1009885
S31508000760406800F079FC8DE7BE4890F8711090F863
S315080007707500081AC0B270472DE9F0478846DFF8B9
S31508000780E49299F875100818C0B200EB090191F8BF
S31508000790651049444E1CFFF710FE82460024B048F7
S315080007A00578002706E09CB9012F18BF022F0FD144
S315080007B010257F1C574517DAB85DB8F1000F03D02E
S315080007C0002F08BF2D28F4D0782818BF5828EAD05B
S315080007D0FFF7E4FDA842B8BF05FB0404E9DB0520E2
S315080007E089F87300002000E02046BDE8F087002164
S315080007F0C2E738B50446FFF7C7FE2D280CBF01250A
S31508000800002529462046FFF7B7FF0DB100B2404242
S3150800081000B232BD70B50C46924991F875100D18A4
S31508000820C6432CB1E8B2FFF7C8FDB0EBD67020700E
S3150800083068B2FFF7CAFD10EBD67070BD0000000065
S3150800084020000000F8B50C4616461F4600A9FFF71B
S31508000850E1FF05469DF80000864298BF30468DF8B0
S315080008600000002F1ABF9DF80000361A0026F6B2BF
S3150800087032460021204600F0C8FB9DF80020294694
S31508000880301900F07FFB9DF80000F2BD2DE9F0411C
S3150800089007460C46A668226869A100F0EDF80FF233
S315080008A0A418606818B968A100F080F843E0002F22
S315080008B041D00027E06888B10FF2C41100F076F83D
S315080008C00CE000F073F8206930B1FFB250F8272029
S315080008D00FF2FC1100F0D0F87F1C761C357835B382
S315080008E0206908B100F061F8752D08BF0FF29C1158
S315080008F0E7D0762D08BF0FF2A011E2D0772D08BFFA
S315080009000FF2A011DDD0732D08BF0FF2A411D8D0B5
S31508000910622D08BF0FF2A411D3D06E2D08BF0FF2B7
S31508000920A811CED02A2D0CBF48A149A1C9E7414636
S31508000930012000F076FA012000F0C9FAE2681AB13F
S315080009400FF2941100F098F84146012000F069FA78
S315080009500120BDE8F04100F0BABA00000D0A000017
S3150800096010B582B0044621460120FFF78FFF00A983
S315080009702046FFF7F3FD48B913BD00F016F80099B5
S315080009800020FFF783FF0098143000900098006855
S315080009900028F2D113BD80B50FF2441100F006F815
S315080009A00120BDE8024000F092BA2AA1012000F019
S315080009B030BA10B52D4CFFF7EEFF04E021460020B3
S315080009C0FFF764FF143420680028F7D110BD2DE91D
S315080009D0F843284951F820200FF2441100F04CF84A
S315080009E0204CA06F002804BFBDE8F143FFF7E1BF24
S315080009F0FFF7D1FF002518A60FF260090FE017F8D8
S31508000A000820494600F038F87F1C2846FFF7D5FC31
S31508000A10FFB28742F3D33146FFF7C8FF6D1CEDB22C
S31508000A2094F87500401E854205DA68B2FFF7CDFCDA
S31508000A3080460027E9E7A06FBDE8F24390E700008B
S31508000A4025700000000000002E2E2E00202A00002F
S31508000A50203F000020200000200000002563000041
S31508000A60B073002020780020B67F00205C0B0208B7
S31508000A70B77F0020B4730020012000F0CAB9000037
S31508000A8020286172677329200A000000203C696EDD
S31508000A907438753E00000000203C696E7431367566
S31508000AA03E000000203C696E743332753E0000003B
S31508000AB0203C696E7438733E00000000203C737455
S31508000AC072696E673E000000202E2E2E0000000080
S31508000AD0202025700A000000202D20257000000027
S31508000AE055736167653A0D0A3C696E743E3A203162
S31508000AF03233206F72203078314142430D0A3C73FD
S31508000B007472696E673E3A2022666F6F22206F7292
S31508000B10207B30412031422032437D0D0A0D0A00E8
S31508000B2025700D0A0000000070B51346101802E083
S31508000B30A4192C705B1EDBB24BB101F00F06090934
S31508000B40451E28460A2E34BF30243724F0E71018ED
S31508000B5070BD2DE9F04F87B08046894614469B46FE
S31508000B6001AD002701A88DF800001BE05BF804AB77
S31508000B7004224FEA1A412846FFF7D6FF04221FFA35
S31508000B808AF1FFF7D1FF054605A8854209D39DF8E6
S31508000B9000002E1A00F096F8002831D1F719FFB296
S31508000BA001AD641C9DF800002E1A2078002807D095
S31508000BB0252802D005F8010BE6E714F8010F0028EE
S31508000BC076D02528F6D0322818BF34285FD0582882
S31508000BD057D063280CD0642818BF6C2825D07028F5
S31508000BE018BF732807D075281FD0782849D0CBE7B7
S31508000BF05BF8040BDEE75BF804AB00F063F800284B
S31508000C005CD1F719FFB201AD002600E0761CF6B2FA
S31508000C1016F80A000028F9D1324651464846C04718
S31508000C2000284BD1F719FFB2AEE75BF8040B002199
S31508000C30002803D52D2129700121404200230022D6
S31508000C404FF0000C02E0801B0CF1010C0FF210367D
S31508000C5056F82260B042F6D243EA0C06F6B2002EE7
S31508000C6005D0C9B20CF130034B55491C0123521C5F
S31508000C70092AE5DBC9B230304855481CC0B24519C7
S31508000C8082E75BF8041B0222C9B2284679E714F802
S31508000C90010F78281CBF5828641EF1D114F8010CDE
S31508000CA032287FF463AF5BF8041B042289B2ECE7B1
S31508000CB000F008F810B9F019C0B200E0002007B03B
S31508000CC0BDE8F08FF2B201A9484640472DE9FC4E2F
S31508000CD00400894692469B4618BF022C2BD0032C4B
S31508000CE018BF042C27D026D20FF25C20205C0128DE
S31508000CF021D1DFF8405205EB8406F76800F05CFC6A
S31508000D000021B9803980798000F05CFCF66900F032
S31508000D1053FC0021B18031807180615500F052FC8E
S31508000D2000F068FD5B4652464946204602B0BDE8DB
S31508000D30F04E00F04BBC2120BDE8F68E10B50446F7
S31508000D4000F03AFDDFF8EC0100EB8400C06980880A
S31508000D5010BD2DE9F04188460446DFF8D85105EB69
S31508000D608401CE690FF2E011615C09B9012035E012
S31508000D7005EB4407615D61B1B9887288914208D173
S31508000D8000F01AFC665D0021615500F01BFC304638
S31508000D9024E000F011FDB088F8B100F00DFC718870
S31508000DA08919897988F800107188491C0FF2A412EC
S31508000DB032F8142000F014F87180B188491EB18009
S31508000DC000F000FC605D30B1B8884FF6FF718842CC
S31508000DD004BF3088B880002000E02620BDE8F081F6
S31508000DE091FBF2F302FB1311704751A111E010B504
S31508000DF000240FF25413C35C012B08D113460A468C
S31508000E0001460FF23900FFF7A4FE00B90124204677
S31508000E1010BD0CB480B502AAFFF7E9FF02BC5DF865
S31508000E200CFB0CB438B5044604AAFFF7E0FF0546E8
S31508000E302046FFF7DAFF284676E000002DE9F84F4E
S31508000E4080468B46164647460FF2FC00385C01285A
S31508000E503AD1384800EB8700C46800250FF2FC0930
S31508000E600FF2DC0A17E000F0A7FBA18801B90125FB
S31508000E70218809191BF8012B8A712188491C0FF250
S31508000E80CC0232F81720FFF7ABFF2180A188491C56
S31508000E90A18000F097FB3046461EC0B278B1A08804
S31508000EA03AF817108842DED31DB1404600F0D6FB4B
S31508000EB0002517F809000028F1D1222005E0404650
S31508000EC000F0CCFB002000E00120BDE8F28F80B5E1
S31508000ED00FF27402825C012A06D1164A02EB8001DF
S31508000EE0C9688A88002AFCD100F0F1FB002002BDFF
S31508000EF000000CB438B504460D4600F0C8FB04AB38
S31508000F002A4621460C48FFF724FE0FF23C01615C95
S31508000F10012908D1074901EB8400C068808810B10F
S31508000F20204600F09BFB002032BC5DF80CFB00005D
S31508000F300D0A0000E07500209F16000870470000A3
S31508000F400000800000000000000100000000800092
S31508000F500000000000008000000000000001000002
S31508000F6000CA9A3B00E1F5058096980040420F00BA
S31508000F70A086010010270000E803000064000000B6
S31508000F800A000000814233D21018401E5118491E2B
S31508000F9010E0121F11F8013900F8013911F801396A
S31508000FA000F8013911F8013900F8013911F8013949
S31508000FB000F8013992B2042AEBD292B2002A1EBF77
S31508000FC011F8013900F80139521EF6D17047121F7F
S31508000FD011F8013B00F8013B11F8013B00F8013B11
S31508000FE011F8013B00F8013B11F8013B00F8013B01
S31508000FF092B2042AEBD292B2002A1EBF11F8013B24
S3150800100000F8013B521EF6D17047130003D00A467A
S31508001010194600F02DBC704710B500E0521E92B27A
S3150800102032B110F8013B11F8014BA342F6D00FE09C
S31508001030002010BD10B500E0521E92B232B110F871
S31508001040013B11F8014BA342F6D001E0002010BD88
S31508001050181B40B210BD704710B50446DFF84003B0
S31508001060007800F03EFCA047BDE8104000F047BC01
S3150800107000B585B000A800F094FF00AA0FF2383139
S315080010800220FFF71BF905B000BD2DE9F04F8BB024
S31508001090FF208DF808000DF109014FF0FF30FFF72A
S315080010A0B9FBFFF7E5FF41F24E020FF22C3100F0D3
S315080010B019F903A801F0A4FA05A902A801F0A4FAEF
S315080010C00FF2303100F0EEF80220FFF7B5F810B154
S315080010D003A801F075FB9DF91E309DF81F200FF23D
S315080010E01C310220FFF7EAF801F027F90346BDF89C
S315080010F01C200FF220310220FFF7E6F80FF23431F8
S3150800110000F0D0F80220FFF797F810B105A801F013
S3150800111057FB0FF2802900F0C1F801F08FFA0FF2A1
S31508001120203100F0BFF89DF80800FF2806D00246D7
S315080011300FF218310220FFF7C7F803E00FF2143157
S3150800114000F0B0F800F0AAF801F06BFA03460FF2C7
S315080011501C320FF208310220FFF7B6F801F0FBFB4C
S3150800116002460FF214310220FFF7AEF801F064FAD6
S31508001170044601F05EFA234602460FF24C2102208D
S31508001180FFF79CF801F0C8FC02460FF2003100F0A8
S31508001190A9F800270FF280390FF224350FF2183A12
S315080011A001E07F1CFFB201F0B7FC87424EDA7D48AA
S315080011B000EB0714D4F80880384601F062FF02F005
S315080011C0E5F8002814BF56462E46384601F0A8FC16
S315080011D0002814BFD346AB46384601F052FF0096A6
S315080011E05B4602460FF2B0210220FFF76DF8A079A0
S315080011F00190A08800906388227B0FF2D0210220FC
S31508001200FFF75CF8002410E033880FF2F42102207F
S31508001210FFF75AF80220FFF70FF810B1308802F0EE
S315080012204BF95DA100F03BF8641C98F80400E4B2A1
S315080012308442B6D21420D8F8001000FB0416307B7E
S3150800124000064CBF4A460FF2DC22DDE700A80FF283
S31508001250E0210A68026001220FF2D82100F042F864
S315080012600FF2E824504D009B00220FF2D4210220F1
S31508001270FFF724F8287810B1012808D00BE06A781F
S31508001280214600F02FF8AA780FF2D42101E06A78F7
S31508001290214600F027F80BB0BDE8F08F494602203A
S315080012A0FFF70CB80220FFF70FB880B500F02DF84D
S315080012B080B2BDE80240FFF749B880B500F025F8CE
S315080012C080B2BDE80240FFF746B838B5374C33A5BB
S315080012D004E054F8142B294600F004F82068002886
S315080012E0F7D131BD0220FEF7E9BF02F004BD80B593
S315080012F000F00BF82E490A78C0B2002814BF42F055
S31508001300010002F0FE00087001BD0020FFF76FBA69
S315080013102DE9F047FFF7F9FF00241FA50FF25C2A15
S31508001320204F0FF26C280FF260290DE02601F25DBE
S3150800133051460120FEF7C8FFF05D01F0CDF92946B8
S315080013400120FEF7BBFF641C01F0E6FBE4B2844211
S3150800135007D2204601F0E4FB002814BF4B4643465B
S31508001360E4E7BDE8F08780B5FFF7CFFF11490968C4
S315080013700968097865290CBF01210021C0B201F06E
S315080013804EFE30B90FF214210120BDE80440FEF7E5
S3150800139095BF01BD5D00000000000000257000003B
S315080013A0C67F0020F8770020FCCA01085C0B0208FB
S315080013B0B77F0020987800204D46472053747269FD
S315080013C06E673A202573000042756666733A2025D3
S315080013D064202F20256400004170704275696C6492
S315080013E06572204D464720436F64653A203078255C
S315080013F0325800006E6F6465205B00005D206368EC
S31508001400616E205B25645D20707772205B25645DC4
S315080014100000000070616E4944205B307825327800
S315080014205D206E6F64654944205B30782532785DAF
S31508001430200000007870616E205B307800000000A4
S315080014406E6F646554797065205B00003078257886
S3150800145000000000756E6B6E6F776E002570206C4D
S315080014606576656C205B25785D00000053656375BD
S3150800147072697479000000006E6574776F726B206C
S315080014807374617465205B25785D20004570206360
S315080014906E743A20256400006570202564205B651B
S315080014A06E64706F696E742025702C206465766989
S315080014B063652025705D2000656E61626C65640059
S315080014C064697361626C6564000000006E776B2066
S315080014D05B25645D2070726F66696C65205B307889
S315080014E02532785D206465764964205B307825323C
S315080014F0785D20766572205B307825785D0000007F
S3150800150020202020257020636C75737465723A203C
S3150800151030782532782000006F757428636C696509
S315080015206E742900696E20287365727665722900C3
S31508001530FC0D02084E776B20636E743A2025640012
S315080015406E776B202564205B25705D0020206E6F0A
S31508001550646554797065205B307825785D000000F5
S315080015602020736563757269747950726F66696C49
S3150800157065205B307825785D000000004550202501
S31508001580643A202570200000456E61626C6564002F
S3150800159044697361626C6564000000004572726F8D
S315080015A0723A2020556E6B6E6F776E20656E64708A
S315080015B06F696E742E000000EFF31180602181F3CD
S315080015C01188704780F311887047000038B51446B3
S315080015D01D46012840D113293CBF0FF28020095C23
S315080015E008096422504301F00F010B2903D28840F1
S315080015F006E00A2250430A46511ED2B20B2AF8D2F6
S315080016000146012002F086FD38BB280907280CBFD1
S3150800161000200220012C08BF40F0180003D0022C3D
S3150800162008BF40F0080005F00F010229A8BF40F0E6
S3150800163004007D498860012008607C48016C41F4FB
S31508001640C04141F0090101644FF6FF710160784815
S3150800165020210160002032BD212032BD012800D0A2
S31508001660704710B57048006801280FD1FFF7A4FF2E
S3150800167004467048016841F006010160012000F047
S315080016809CF82046BDE81040FFF79CBF10BD012816
S3150800169004D16848016821F00601016070470128F5
S315080016A002BF65488369012B07D021207047C368AC
S315080016B05B07FCD511F8013B036013465A1EDBB2E3
S315080016C0002BF4D1C1684906FCD50020704710B537
S315080016D0044602F09DFD012C03D1584800684006D7
S315080016E0FBD510BD70472DE9F043554951F8202028
S315080016F0544B554C554D564EDFF83C8119E0B2F81F
S3150800170004E036F810707F1EBE4526DAB2F800E00F
S3150800171096448EF806C0178807F1010C35F810E0D4
S315080017209CFBFEF70EFB17CCA2F800C097887F1C1F
S315080017309780D8F80C70BF073CD5D8F80C7017F00E
S315080017403807D8F800C0DAD05FEA077C08D45FEA21
S31508001750C76C08D54FF0240E0BE04FF0230E08E0B7
S315080017604FF0270E05E0BF064CBF4FF0250E4FF091
S31508001770010E51F820C0075D37B9BCF8007023F890
S31508001780107000F804E0D4E733F81070ACF8007075
S3150800179000F804E0BCF802E0BCF8007077452FBFFB
S315080017A0A7EB0E0E36F81090A9EB0E0EBE44ACF859
S315080017B004E0BEE7BDE8F083704770B5254951F8E7
S315080017C02010254A1C4B0FE04C886418A4791C602D
S315080017D04C88641C32F8105094FBF5F605FB164449
S315080017E04C808C88641E8C808C8814B1DC686407F5
S315080017F0EAD470BD704738B50C4C0FE0256046F248
S315080018002970054203D0A9B20120FFF76CFF41F603
S31508001810D60005421CBF0120FFF7CFFF2068216CC8
S3150800182011EA0005EAD131BD54C8004008A80040B5
S3150800183000E100E048A800403CC8004048C8004015
S31508001840FC750020E4750020E0750020540F0008A0
S315080018507C170208EC7500204C0F0008306090C019
S31508001860C1C2C394C495C55C96C6AC9798990D0039
S3150800187062F30F2262F31F42401810F0030308D0E8
S31508001880C91A1FD3DB0748BF00F8012D28BF20F867
S31508001890022D130030B414461546103928BF20E926
S315080018A03C00FAD8490728BF20E90C0048BF40F891
S315080018B0042D890028BF20F8022D48BF00F8012D05
S315080018C030BC7047C91818BF00F8012DCB0728BFD0
S315080018D000F8012D704700000C480D4901600020F2
S315080018E0704700B1702070470020704780B500F03F
S315080018F013F8FF2801D1A32002BD002002BD002055
S315080019007047704700BF034800787047087A002080
S31508001910FCCA0108F877002080B501F0B0FBFF2863
S3150800192018BF002002BD00210170704702F0E2BC1A
S315080019300020DFF80017FF2301EBC0021371002215
S3150800194041F83020401C0328F6DB70472DE9FB4E92
S3150800195083B014461D46032D05D30E9F38784007DD
S3150800196006D5052D01D201206EE097F8049001E016
S3150800197097F802900026DFF8BCB60BEBC600007994
S31508001980FF2804D0701CC6B2032EF6D3FF26109883
S31508001990109018B1FF2E08BFB42055D0207901F059
S315080019A06EFB8246BAF1FF0F08BFA3204CD0207900
S315080019B0FFF79CFF002847D1DFF87C0600EB0A10EA
S315080019C043882380608800909DF83C200021484683
S315080019D001F06EFF18B1E08840F02000E08000F0CA
S315080019E036F801F071FFA8421BD3FF208DF80800D6
S315080019F002A801900097EBB200F029F800F0CCFDA0
S31508001A000746109878B177B99DF80800FF2815D0D1
S31508001A100BEBC6009DF80810017110984BF83600BC
S31508001A200CE074270DE0BA2F07D1A079C00608D5B7
S31508001A300027012002F069FD00E017B9112002F025
S31508001A4069FDFFF75CFF384606B0BDE8F08E224612
S31508001A50BDF810109DF80C00704710B584B0069CB0
S31508001A60088100F013F803200CE010B582B00024BA
S31508001A700094FFF7F2FF16BD10B584B0069C00F07F
S31508001A8005F80420FFF762FF04B010BD0294012494
S31508001A900194009313460A460146704710B582B072
S31508001AA000240094FFF7E8FF16BD2DE9F04385B042
S31508001AB004468846164699460C9D0D9F022C0BD166
S31508001AC000A95FFA88F002F035FE78B99DF80100A2
S31508001AD030719DF8040070710297002001900095FE
S31508001AE04B46324641462046FFF730FF05B0BDE873
S31508001AF0F08330B583B0069C002501950094FFF766
S31508001B00D4FF3EBD80B50346DFF83005008839B9F5
S31508001B100FF240520FF23451BDE80050FEF7D4BB25
S31508001B2000910FF248520FF23451FEF7CDFB01BD7A
S31508001B307CB504460D4603F0D2F8064633462246DF
S31508001B400FF230510220FEF7B9FB7EB975B101A834
S31508001B50002101608DF805400320009001AB0022AA
S31508001B6036214FF6FC7004F027FB0646304676BD54
S31508001B7070B504460D461646288808B1002070BD83
S31508001B802046FEF732FB002802BF688848F221018A
S31508001B90884203D17178204602F0E3FC688848F24F
S31508001BA00101884224BF082002F0F7FC012070BD1D
S31508001BB02DE9F04788B081460E469246984604F0CD
S31508001BC090FB05468DF808900396119F0497109C84
S31508001BD0ADF81440ADF816508DF818A08DF8198098
S31508001BE000F0B1FB8DF81A0000F0AFFB8DF81B0072
S31508001BF004F01FFC8DF81C0002A802F0BFFCA8B96F
S31508001C00A3B23A463146284604F0AEFD70B9A3B2EF
S31508001C103A4631462846FFF7ABFF38B9019000959A
S31508001C20A3B23A464946304601F0DDFC08B0BDE8A5
S31508001C30F0872DE9FC478046894617461D000A9C11
S31508001C400B9E32D00FF2A4420FF294410220FEF707
S31508001C503BFB3B880BB9CBA20AE040F20910834252
S31508001C6008BFC9A204D0B3F5827F0CBFC7A2C8A219
S31508001C70A4B20194788800900FF210410220FEF772
S31508001C8023FB388870B1032C0CD33078C0074CBFBF
S31508001C900FF23C420FF24042B3780FF22041022085
S31508001CA0FEF712FBBBA100F057F80022DFF88413F9
S31508001CB00C9801EBC2031B79834202D151F832A07A
S31508001CC005E0521CD2B2032AF3D34FF0000A0022D1
S31508001CD001EBC20393F804C0844505D1FF201871AF
S31508001CE0002041F8320002E0521C032AF0DB2946A4
S31508001CF0404602F01DFC002D04BF3888002806D196
S31508001D007888B0F5004F3CBF082002F003FC01209C
S31508001D1002F043FC36B13078C00703D500F01FF84F
S31508001D2000F038FF5FEA0A0002D000F018F8D04742
S31508001D300196A4B200942B463A464946404604F01A
S31508001D408BFD0195009623463A464946404602F0E1
S31508001D5004FCBDE8F38700000220FEF7AFBA019540
S31508001D600096A3B23A464946404670472DE9FC41DB
S31508001D7006460FF290340FF2943890380CD0401E75
S31508001D8048D0C01E46D0801E44D0801E42D013388C
S31508001D9004283FD911384ED104F0E0FD054600F07D
S31508001DA0CCFA471EBF41FF0F2DB1002F14BFA888DC
S31508001DB02889ADF804000DF1060004F086FEBDF88A
S31508001DC00600800605D5BDF8040040F02000ADF8F1
S31508001DD004003A4601A9002002F0E2FBBDF804001F
S31508001DE004F060FE00F0A9FA0090434622460FF27E
S31508001DF004310220FEF762FABC2E06D10FF2183122
S31508001E00FFF7AAFF02F0C2FB01E005F0B4FC02F0FE
S31508001E10BEFB10E0912E04D1434622460FF218313C
S31508001E2004E00FF22C3322460FF218310220FEF797
S31508001E3045FA01F01FFB304604F03FFD304605F039
S31508001E40B7FD304602F0AEFB18B10FF20C31FFF7C2
S31508001E5083FFBDE8F381F0B583B000240FF228357F
S31508001E60774EE0B2FFF73DFD04EB4400815D89B98A
S31508001E7080194778012F08BF05F068FE00A800F012
S31508001E80CEFB60B99DF80000B84203D0012F08BF09
S31508001E90022804D12868019001A803F010F8FFF77A
S31508001EA02EFD641C012CDCDBF7BD30B583B00C4677
S31508001EB00123082200A9FEF7C5FC0546082200A949
S31508001EC0204600F09CFD28463EBD38B504460D4622
S31508001ED0FFF70AFD2946204605F08AFCBDE8314091
S31508001EE0FFF70DBD70B504460D461646FFF7FCFC18
S31508001EF032462946204605F0A3FCBDE87040FFF7A8
S31508001F00FEBC10B50446FFF7EFFC204605F0EFFCD3
S31508001F10BDE81040FFF7F3BC10B582B00446702048
S31508001F20484909680A78002A04BF497801290DD169
S31508001F3005F021FE20890090E37A0FF26C2200F06A
S31508001F402BF82046BDE8164002F080BE16BD38B50F
S31508001F50044670203B4909680A7892B94D78012DE4
S31508001F6008BF022505F066FE20890090E37A0FF285
S31508001F70402200F011F821462846BDE8344002F018
S31508001F80CBBE32BD5A444F005345000048410000BD
S31508001F903F3F0000000000000FF2F0110120FEF79D
S31508001FA08DB910B5044600F0C2F90020015DFF297D
S31508001FB004BF00210155401C1028F7DB00202074BF
S31508001FC010BD33B581B0002000240FF2142108E0BB
S31508001FD011F830309DF80A50AB4208BF5468401CCF
S31508001FE0C0B201EBC0025368002BF1D19DF808007E
S31508001FF000909DF807309DF806200FF2BC110220CC
S31508002000FEF762F99DF809201AB108A10220FEF729
S315080020105BF904B906A4BDF8043022460FF2B011E4
S31508002020022003B0BDE83040FEF748B92E2564000B
S315080020303F3F3F00E0770020F87700200E78002029
S31508002040FCCA0108087A00207047000025703A206B
S3150800205025700000537563636573730025703A2015
S3150800206025703A2030782578000000004572726F96
S3150800207072000000704A6F696E20666F72202564D0
S31508002080207365633A2030782578000050726F66B1
S31508002090696C653A20257020283078253258292C15
S315080020A020436C75737465723A2030782532582C43
S315080020B02025642062797465732C0000205A434CED
S315080020C020257020436D642049443A202564000089
S315080020D0436C757374657200476C6F62616C0000BF
S315080020E0257074782025782C200000004552524F20
S315080020F0523A2000257025705550203078253258E0
S3150800210000000000454D4245525F00004E455457B9
S315080021104F524B5F0000000054727573742043657C
S315080021206E7465722045554920686173206368613D
S315080021306E6765642E00000025702570444F574E63
S315080021400000000025704A4F494E25700000000027
S315080021505F4641494C4544005468652061707020CB
S315080021606672616D65776F726B2069732068616E40
S31508002170646C696E672074686520737461636B208C
S315080021807374617475732E00000000002570696E03
S3150800219067206F6E2063682025642C2070616E4965
S315080021A06420307825325800466F726D00000000B2
S315080021B04A6F696E00000000737461636B20766570
S315080021C0722E205B25642E25642E256400000000EF
S315080021D0202570206275696C642025645D00000006
S315080021E000000000B4CA010811000000C0CA0108B6
S315080021F012000000C8CA010813000000D0CA01086E
S3150800220021000000D8CA010822000000E0CA01081F
S3150800221023000000E8CA0108AA000000F0CA010865
S31508002220FF0000000000000070B582B005F073FDE5
S31508002230044605F074FD054601F030FD05F080FD05
S315080022400022002100A802F085F900B173BD05F04F
S315080022507BFD0646012300220F210120FEF736FDED
S3150800226001F001FE034622460FF270410120FEF7F7
S3150800227025F801F000FE03462A460FF278410120B0
S31508002280FEF71CF8012405F046FD04FA00F040F2BA
S31508002290A17108420AD0DFF8C043207806F07CF81E
S315080022A0207806F004F9207806F009FA66B1334674
S315080022B00FF274420FF25C410120FDF7FFFFA921DE
S315080022C00FF26C4005F06EFFFFF706FBFFF730FBD9
S315080022D000F0E4FB02F03DF901F093F80221022038
S315080022E006F00AFDFFF7B7FDFEF744F8DFF86C03C2
S315080022F041F24E010180DFF8680352210180DFF8C0
S31508002300640301804FF4004006F094FD01F080FF5D
S3150800231005F09AFD01F09DF8FEF710FE07F033F878
S3150800232001210020FEF759F8FFF7EBFAEEE7102334
S315080023307F22CD49098807F0C1B805F08CBE05F0A3
S3150800234092BE00F008BB07F0B1BC38B503F0C9FF70
S3150800235004460025284607F0F2FDA04201D128468A
S3150800236032BD6D1CEDB2022DF4D3FF2032BD38B557
S315080023700446FFF7BBFA050008D14FF4A0512046E2
S3150800238003F0A6FE0546FFF7BAFA284632BD7FB522
S3150800239000F0A0F805F05FFE38B16088B0F5006F70
S315080023A003D1601D02F0DBF813E0204602F0F3F8D3
S315080023B0050014D1002600A9304602F0BBF9002812
S315080023C004BF9DF80000002805D12146304602F0DA
S315080023D0BCF9054603E0761CF6B2102EEBD3FFF7E0
S315080023E08EFA284604B070BD38B500F073F820465A
S315080023F002F0CFF8050003D1204602F0ECF90546B5
S31508002400FFF77DFA284632BD10B5044604F013F8E6
S31508002410964901EB0411097B814208D1204600F058
S315080024207FFB20B12046BDE8104000F02ABEFF2001
S3150800243010BD70B504460D4600F021FE0646FF2E77
S3150800244007D003F0F8FF894901EB06110A7B82429F
S3150800245001D0002070BD48882880888868808879DF
S3150800246028710121204600F010FE687100212046DF
S3150800247000F00BFEA871012070BD2DE9F04105465C
S315080024800E46904600F0FBFD07464FF6FF74FF2FF9
S3150800249013D003F0D0FF754901EB0711097B814280
S315080024A00BD10EB9012202E0012E06D100224146C7
S315080024B0284600F00EFE00B104882046BDE8F081EB
S315080024C010B500F007F82046FFF750FCBDE81040AD
S315080024D0FFF715BA0446FFF707BA38B50C4664493C
S315080024E00968455CAA420AD200922B460FF23822A6
S315080024F00FF24C210220FDF7E1FE002032BD00213B
S3150800250000912B4600220146204607F0A2FF2846E6
S3150800251032BD70B598B004460D461646FFF7E4F985
S31508002520522203A93046FFF7D8FF060011D00DF155
S31508002530090003F0CFFE02A803F0CEFE03A801901F
S3150800254000969DF908309DF8092029462046FFF790
S315080025502FFBFFF7D4F918B070BD2DE9F04198B0FC
S3150800256005460E4690461F461E9CFFF7BDF95222A9
S3150800257003A93846FFF7B1FF48B1029703A90191AD
S3150800258000902346424631462846FFF752FBFFF79E
S31508002590B6F918B0BDE8F0812DE9F04104460D46BC
S315080025A0904619460698079F07F039FF0646FF2EFC
S315080025B008BF182022D03E702046022804D9C01E23
S315080025C008D0401E0DD014E033464246294607F08F
S315080025D046F90CE033460C220C21404607F091F9E7
S315080025E005E033460C224146284607F081F90446A1
S315080025F000E00224304607F08FFE2046BDE8F08151
S3150800260008221C49FEF7BEBC10B50C4603F013FCA5
S3150800261020B92046BDE8104000F0AEB910BD03F061
S315080026200ABC052070470020704710207047042018
S3150800263070471148007870474B20704700B583B043
S3150800264000A80E49082208F071F9DDE90001FFF734
S31508002650B8FC07BD00000000E96F00208476002062
S31508002660887600208A760020E61A0208F877002085
S3150800267068740020C87C002061740020C81A02080B
S3150800268010B582B0FFF726FF0DF1010003F022FE18
S3150800269000A803F021FE9DF900209DF801102046B0
S315080026A008F077FAFFF72BF913BD38B504460D463F
S315080026B0FFF71AF92946204608F035FA08E038B532
S315080026C004460D46FFF710F92946204608F0B3FAE6
S315080026D0BDE83140FFF713B97047000052657365CE
S315080026E07420696E666F3A20307825782028257020
S315080026F029000000457874656E6465642052657328
S31508002700657420696E666F3A20307825325820281D
S31508002710257029002570656D626572496E69742099
S3150800272030782578000000004552524F523A200072
S3150800273061662D6D61696E2D736F632E63000000EF
S3150800274025706D736720746F6F206269672028256E
S3150800275064203E20256429002DE9F04104460D46F3
S3150800276016469846FDF768FDA0B1002710E07A5D89
S3150800277041462046FDF7A8FDF81007EB107000113A
S31508002780A7EB0010062804BF2046FDF78DFD7F1C29
S31508002790B742ECDBBDE8F081002B14BF3EA33FA394
S315080027A0DAE738B504460D46284608F0DBFA3CA3B6
S315080027B00246691CFFE7204601B0BDE83040CBE77A
S315080027C000B587B001780691417805918178049122
S315080027D0C17803910179029141790191817900913A
S315080027E0C3793E220FF2D40100F008F8FDF76CFD1C
S315080027F007B000BD00220146022002E02E480088EC
S3150800280070472DE9F84F8B4616460025824626A7BF
S315080028100FF298080FF28C09274C08E04A46394609
S315080028202088FDF751FD2088FDF73EFD6D1C5545B6
S315080028300CDA012308220BEBC5012088FFF7ACFF51
S3150800284016B9681C5045E9D14246E8E7BDE8F18F5C
S315080028502DE9F0410446184D2888FDF7EDFCC8B16E
S315080028600120E40A0B2612A70FF24808E1070DD546
S3150800287018B941462888FDF727FD32463946288883
S31508002880FDF722FD2888FDF70FFD00206408761C59
S315080028901B2EEBD3BDE8F0812578200025780000B3
S315080028A02563000000000000202570000D0A0000C6
S315080028B0256400002C2000000E78002028256329B6
S315080028C02558255825582558255825582558255812
S315080028D0000000005D480068408870475B48006853
S315080028E0001D704759480068C07E704770B5574D3F
S315080028F029684873564C574E022817D100F0ACF891
S3150800290068B92868007B04283CBF304601F0E0FC23
S315080029102868007B03283CBF204601F0D9FC2868BC
S315080029204069C00054BF9024BC240AE000F094F823
S3150800293010B108F037FA03E03070207008F08FFA0B
S315080029409124204608F059FC20B92046BDE870407D
S3150800295003F0C7BD70BD3D480068407B00F00F001E
S3150800296070473A480068407B00F00F00022801D102
S31508002970012070470020704738B5044600F06CF80F
S3150800298020B12046BDE8324008F000BA2F4DFFF7C7
S31508002990E8FF28B92868407B032801D0932032BD78
S315080029A005F061FB20812868C07BA0722868807BBF
S315080029B0E072204603F05DFA0020207304F114014A
S315080029C004F1100008F029FCE081002032BD10B5A2
S315080029D0002300E05B1CDBB28B4205D210F8014BEA
S315080029E09442F7D0002010BD012010BD80B5082103
S315080029F008F0A6FF08B1002002BDA52002BD30B52B
S31508002A00531E002404E0DBB25D5C25545B1E641C87
S31508002A10E4B29442F7D330BD0C480068407B0128E5
S31508002A201CBF3128332801D1012070470020704788
S31508002A3010B5044606F0ADFB10B904490968CC7315
S31508002A4010BD02480068807B70470000B47C0020F7
S31508002A50087F0020087E002080B505F00CFB0328BF
S31508002A6001D1012002BD002002BD80B5FFF7F4FFA9
S31508002A7038B140F22B110FF20C00BDE8044005F006
S31508002A8091BB01BD656D6265722D737461636B2DB3
S31508002A90636F6D6D6F6E2E63000000001CB50FF638
S31508002AA0380000788DF803000FF630000088ADF87E
S31508002AB006000FF62C000088ADF8040000208DF8FB
S31508002AC00200ADF80000DFF8540601210174002168
S31508002AD00FF688020B010DF103040C5D1C541B183C
S31508002AE00DF1060434F811405C8001AC34F811404D
S31508002AF09C800DF102040C5D9C710DF101040C5DC6
S31508002B0002EBC4049C6000AC0C5D1C7301245C736E
S31508002B10491C0129DEDB13BDDFF80006007C70477F
S31508002B20DFF8F81501EB0010407B00F00100704754
S31508002B30412818BF422803D0432818BF442801D18A
S31508002B400120704700207047412818BF422801D14C
S31508002B500120704700207047432818BF442801D138
S31508002B600120704700207047F8B5044615461E46F2
S31508002B70069A00F0FAF960B1042100F04DFB07004F
S31508002B8007D02046FEF7B2FE324629462046B84709
S31508002B9093E0F1BD2DE9FC478046894617001D469E
S31508002BA00B9C1CBF0A9E002E1DD0E5B1307800078D
S31508002BB04CBF402280227988387900F0D6F990B146
S31508002BC0082100F029FB824668B13879FEF78EFEA7
S31508002BD0019400962B463A4649464046D047BDE8FA
S31508002BE0F347FEF78CBEBDE8F387F8B505461646EB
S31508002BF01A4600F0BAF9D8B1069CA4B25CB902210B
S31508002C0000F00AFB040013D02846FEF76FFE314693
S31508002C102846A0470BE0102100F0FEFA070007D06F
S31508002C202846FEF763FE224631462846B84744E062
S31508002C30F1BD2DE9F04782B0814690461A460A9EB4
S31508002C400B9C0C9D0D9F00F090F908B9862015E0A5
S31508002C504FF0000AB6B286B9202100F0DDFA060068
S31508002C600BD04846FEF742FE00972B4622464146C1
S31508002C704846B0478246FEF742FE5046BDE8F6870C
S31508002C80F8B50446A5682078FEF730FE002610E061
S31508002C901420296800FB06173988207801F03FFCC4
S31508002CA00121384600F0B8FA01001CBF2078884791
S31508002CB0761C2879F6B28642EAD3BDE8F140FEF7DB
S31508002CC01EBE38B50024DFF8545408E02046FFF746
S31508002CD027FF18B105EB0410FFF7D2FF641C287C08
S31508002CE0E4B28442F2D331BD10B5002301E05B1C87
S31508002CF0001D9BB28B4204D204889442F7D14088C7
S31508002D0010BD002010BD0288B2F57C4F28BF00F028
S31508002D100BB80FF2E850081A0C2190FBF1F292B2A8
S31508002D2000210FF24460DFE70FF2F451401A142134
S31508002D3090FBF1F292B200210FF22860D4E710B5A9
S31508002D400C460188628891420DD1027B23791A428A
S31508002D5009D0B1F57C4F04D3FFF7E6FF21898842F5
S31508002D6001D1012010BD002010BD10B514460A88F7
S31508002D70E3889A420AD10288B2F57C4F04D2FFF75B
S31508002D80C2FF2189884201D1012010BD002010BD53
S31508002D902DE9FE4F82B004460025AA46DFF87CB32B
S31508002DA004E0C0884519ADB20AF1010A9BF8100083
S31508002DB05FFA8AFA824580F0B1804FEA0A1101EB80
S31508002DC00B0011F80B10227891428068E9D1009027
S31508002DD05046FFF7A5FE0028E6D0002704E0B8F81D
S31508002DE00A004519ADB27F1C00980079FFB28742E8
S31508002DF0DAD214200099096800FB071821464046D4
S31508002E00FFF79DFF0028EAD04FF0000908E0307967
S31508002E103021084202D1F0784519ADB209F101090D
S31508002E20B8F808001FFA89F98145DCD20C20D8F8D1
S31508002E30041000FB0916224631464046FFF795FF67
S31508002E400028E4D0029800B106603079810611D5D1
S31508002E500FF2A841002206E00B799B0602D5CB7833
S31508002E609A1892B20C31B142F6D302EB0B0101F17A
S31508002E70140A03E005EB0B0101F2120A0E9D1DB1BF
S31508002E80039FDFF89C9206E00399002944D0574631
S31508002E908A46DFF89092C0060BD531464046FFF7C2
S31508002EA032FF034603980090324661882078C84767
S31508002EB035E096F80280BDF8100000280CBFF478BB
S31508002EC004464046FFF740FE30B1621ED2B239468C
S31508002ED0504600F026FD1FE04046FFF73DFE30B1A4
S31508002EE0A21E92B23946504600F030FD14E03DB9B4
S31508002EF0BDF8100020B1F178884238BF89200ED37A
S31508002F00002F224604D100215046FEF77EF803E042
S31508002F1039465046FEF736F8002000E0862077E16D
S31508002F2030B5002403E01D7B2D0613D4641C0379F9
S31508002F30E4B29C4210D21423056803FB04531D888F
S31508002F408D42F3D132B1802AEDD0402AEED11D7BD5
S31508002F506D06EBD5184630BD002030BD80B5402241
S31508002F6000F003F800B1012002BD38B50C4615463D
S31508002F7000F085F8FF2801D1002032BD2A462146F7
S31508002F80664B03EB00108068BDE83840C8E740226E
S31508002F90FFE72DE9F8430446884691460025FFF7E2
S31508002FA0E4FF08B9FF2016E000265C4F02E040194E
S31508002FB0C5B2761C387CF6B286420BD23001C05DAB
S31508002FC0A04207D04A464146FFF7CFFF0028EED079
S31508002FD00120ECE72846BDE8F28330B500224F4BC6
S31508002FE000E0521C1C7CD2B2A2420AD21401E55C53
S31508002FF08542F6D119B1E418647BE407F1D5104689
S3150800300030BDFF2030BD80B50021FFF7E6FFFF2861
S315080030101CBFBDE80240FFF783BD002002BD70B5A6
S3150800302004460E460021FFF7D8FFFF2801D10020ED
S3150800303070BD3A4901EB0015687B00F00101002ECE
S3150800304014BF40F001000020687396EA010F14D0FF
S3150800305076B12846FFF714FE0FE01421006801FB3D
S315080030600600017BCA090188204606F002FA761C8A
S31508003070A8680179F6B28E42EFD3012070BD01210E
S31508003080ABE700012549405C704738B50C46FFF7A9
S31508003090F6FF01460020FF291FBF204A02EB011157
S315080030A08968002914D0002203E01B0648BF284679
S315080030B0521C0B79D2B29A4209D214230D6803FB2B
S315080030C002531B7B451C002CEFD05B06EEE7C0B213
S315080030D032BD70B50C461546FFF7D1FF0021FF2813
S315080030E01AD00E4A02EB0012002301E0491C5B1CB1
S315080030F090680679DBB2B3420ED21426006806FB46
S315080031000300067B15B1760602D4F0E73606EED53F
S31508003110C9B2A142EAD170BD002070BDF87700207F
S3150800312047450008434500080021FFE72DE9F04F11
S3150800313085B0044603F07DF98346002600E0761C38
S315080031400B48007CF6B2864262D2FF2C05D0204698
S31508003150FFF795FF0646FF2E5AD0054800EB0617DF
S31508003160FF2C02D1387B5845E9D14FF0000803E01F
S31508003170F877002008F10108B86801795FFA88F83D
S31508003180884543D21421006801FB08094FF0000A5C
S3150800319008E0012000900023002101A8FFF7F8FDB0
S315080031A00AF1010AB9F808001FFA8AFA8245E1D23B
S315080031B00C20D9F8041000FB0A152879C006EFD4AC
S315080031C038788DF80400B9F80000ADF806002879BB
S315080031D040064CBF802040208DF808002888ADF8AE
S315080031E00A0029464846FFF78EFDADF80C00E87838
S315080031F02979490704D5AA680328CAD31268C8E7F3
S31508003200032834BF05F10802AA68C2E7FF2C96D046
S3150800321005B0BDE8F08F704718B501220023047B7E
S315080032200C4205D1002012BD144218BF5B1C520087
S31508003230D2B28A42F8D3DBB2006950F8230012BD35
S315080032402DE9FC470A46002701210028507D07D0B2
S3150800325010B94FF0020C09E0012805D18C4605E0AB
S3150800326010B94FF0080C01E04FF0040CBE460FF2FF
S3150800327074080A9880B20B9CDDF83090DDF834A00B
S3150800328038F82E60BDF80050AE421CD108EB8E050A
S31508003290EE7816EA0C0F16D0AE784E4513D3EE78B4
S315080032A0F606D67B01D50EB90DE066B9BA4501D04A
S315080032B0874201DB00210BE0AE78FE542688761C97
S315080032C026807F1CBFB20EF1010EBEF1060FD7DBBA
S315080032D00846BDE8F687000001000000040100006A
S315080032E0070000000000011200000312000004128B
S315080032F00300000903000002030001090000200181
S315080033002000000001000000070030012000000036
S31508003310000000000000210201000000000000007B
S3150800332000000000FC320008020000004000000017
S31508003330000000000300000014330008000000002D
S31508003340800000000000000003000000143300089D
S315080033500100020043000000F4CA010820330008F7
S3150800336003000200000000000000000080B501F024
S3150800337016F908F0ABFB08F0CDFBDFF8F4170A885E
S31508003380821A92B2C92A28BF088001BD80B5FFF704
S3150800339076FEFF2804D018B9DFF8D807007802BDF2
S315080033A0002002BD10B50168DFF8CC270B88138012
S315080033B04B885380497911710168097951714FF425
S315080033C08251D18001688979890644BF4FF48351B7
S315080033D0D180DFF8A847A17882693AB9C088DFF8B2
S315080033E0A027108001F0FD00A07010BD41F0020179
S315080033F0A17016228169201DFDF7C4FD00202071E9
S3150800340010BD80B50020FEF76CFAFF20FFF78CFE92
S31508003410FEF775FAFFF780FB02460121DFF854072D
S31508003420FDF7F3FDDFF85037DFF858275221DFF8AC
S31508003430580708F083FC05F09BFF08F09DFC03F095
S31508003440EFF908F0DFFC04F0C7F9BDE80140FFF723
S3150800345038BC70B500240FF6380501E0B047641C87
S31508003460E4B255F82460300003D001F04BF8012887
S31508003470F4D170BD80B501F057FB20B9FFF76BFAA0
S3150800348008B901F04AF801F081F8BDE8014001F0F9
S315080034908CB810B500224FF6FF710FF2BC7300E02E
S315080034A0521C92B233F832408C4203D08442F7D190
S315080034B0104610BD084610BD38B50446FFF7E9FFAB
S315080034C00146DFF8C85628884FF6FF72914203D1A5
S315080034D022460FF2D06106E00FF27C7202EBC101C0
S315080034E04A680FF2D861FCF7EFFE2888BDE832403B
S315080034F0FCF7DABE10B582B00446DFF89406007809
S3150800350000283BD001F021F802460FF2B8610220EC
S31508003510FCF7DAFE2068418800914379A2890FF208
S31508003520AC610220FCF7D0FE0220FCF785FE18B13C
S3150800353020684088FFF7C0FFE07B28B1228A0FF297
S31508003540AC610220FCF7C0FEE07C0090A37CA0687A
S3150800355002780FF2A4610220FCF7B6FE207D012353
S31508003560A1890A1A92B2A16841180220FFF714F934
S31508003570ADA10220BDE81C40FCF7A0BE13BD10B5E6
S31508003580044620684079FFF77AFDFF281DD0DFF84A
S31508003590041601EB0010017B227F914215D1408869
S315080035A022681188884206D04FF6FF7399420CD1DB
S315080035B0B0F5004F09D22079022818BF032806D192
S315080035C01189507900F0BBFF08B9002010BDA07B17
S315080035D0002820461CBFBDE8104008F0C5BCBDE861
S315080035E0104008F0FDBCF0B589B00E4617461A46DD
S315080035F00E990024DFF88455032A04D33B785B0729
S3150800360009D5052A07D20FF224620FF20C610220AF
S31508003610FCF754FE9AE001908DF80860ADF80A10A0
S315080036200397ADF81020387800F001008DF81200E5
S31508003630387800F004008DF813003878C00800F0D8
S3150800364001008DF8190001208DF818009DF8130067
S3150800365058B10121384607F078FBADF814009DF8FB
S315080036601800801C8DF8180001E0ADF814009DF8CC
S315080036701800C15D8DF81610401C8DF81800C0B2F0
S31508003680C15D8DF81710401C8DF818000F9F07971D
S3150800369002F0CFFE8DF8200001A8E8619DF816001B
S315080036A0287001A8FFF726FF01A8FFF77BFE01A8EF
S315080036B000F062FFF0B9FFB9042E18BF052E03D03B
S315080036C0022E18BF032E01D1012200E00022019824
S315080036D0408800900198038801219DF8170000F0A2
S315080036E0E7F860B101988079800608D4012101A81D
S315080036F000F0DCF8012429E0387D800726D50198FA
S315080037004079FF281ED10026DFF86C74FFF704FA0B
S31508003710F6B286421AD23046FFF702FA80B101A8FD
S31508003720FFF740FE3046FFF7ACFC0199487130467A
S31508003730FFF7A7FC387101A8FFF721FF00B10124A4
S31508003740761CE3E701A8FFF71AFF044607F0BEFA5E
S3150800375016220021281DFDF758FC0020E8612046A6
S3150800376009B0F0BDDFF830040178491C017001F09A
S315080037707F007047DFF804148A78002814BF42F0E7
S31508003780010002F0FE00887070477CB5DFF8EC4354
S31508003790A378D90701D5002076BD6278DFF8D8135B
S315080037A0012A03D1CA8842F0400205E0022A04D160
S315080037B0CA884FF6BF752A40CA802578DFF8C8231D
S315080037C0167876074CBFD5705570DFF8B8532D8834
S315080037D09B0708D52946201D00F0B9FEA17801F0FF
S315080037E0FD01A17076BDDFF898331C884FF6FC738F
S315080037F09C4208D2019000922B460A462146002098
S31508003800FEF753F976BD009013462A462046FEF782
S3150800381033F976BD0020B8E70A460146DFF85C03AF
S31508003820C06905E0000000005D0000000021F3E724
S3150800383070B504460D4616462079002818BF01289B
S315080038400AD1A0680078C00600D52DB1A07B002853
S3150800385004BFE07C0B2801D1002070BDDFF82403EB
S3150800386000210180607D00280CBF08200020E17B34
S3150800387011B907F041FA06E040F0040007F03CFAF7
S31508003880208A07F042FAA07C07F036FA0B2007F0E8
S3150800389033FAE07C07F030FA284607F02DFA20467E
S315080038A0FFF780FD3046BDE870406EE70022BFE7AF
S315080038B038B51D46049C03460A46A1B2284600F0C0
S315080038C02FFE00B1012032BD38B54FF6FD735224E4
S315080038D0D288950648BF4924550544BF083CE4B23A
S315080038E0150544BF083CE4B2120444BFA41EE4B262
S315080038F038B102280BD006D3032804BF641EE4B2ED
S3150800390009E00B4607E0C8B206F019FB02E0C8B2A8
S3150800391000F00BFF0346184602F0B6FF201AC0B2A5
S3150800392032BD70B504460D00164602D1002020703F
S3150800393070BD284607F016FA864288BF0646324604
S31508003940691C601CFDF71EFB267070BD70B5044629
S315080039500D00164603D100206070207070BD284601
S3150800396007F005FA864288BF06463246A91CA01CFF
S31508003970FDF708FB2670300A607070BDF8B5541E56
S3150800398093B3052A45D2002300251E460BE0971B54
S31508003990FF000CFA07FC4CEA03031EF801C00CFAF8
S315080039A007F73D43761CF6B2964208D2A4EB060EFC
S315080039B000280CBF4FF0000C1EF800C0E7E7042AE9
S315080039C00DD20120D100491E00FA01F1D200904023
S315080039D040420B4218BF03430D4218BF05439D42A0
S315080039E010DBAB4215DA11E0002600E0761CF6B2D1
S315080039F096420ED2A31B00280CBF00251D5C5B5CFB
S31508003A00AB4201DA0120F2BD9D42EFDA4FF0FF30FA
S31508003A10F2BD0020F2BD00210FF2602201E0891CF0
S31508003A20C9B28B5C8342FAD3881840787047A0F1F4
S31508003A302801C9B208298041C00F704700F085BD2A
S31508003A4000F0AFBDF0B5554BB0FBF3F203FB120027
S31508003A504FF46163B0FBF3F40C710C7963433C24B7
S31508003A60C51AB5FBF4F54D714D7904FB0533C01A3B
S31508003A7088714FF4FA60088001208870C8700126A2
S31508003A8000254FF4C87064230FF2E41401E0002601
S31508003A906D1C95422FD28F7826B1022F08BF4FF0A2
S31508003AA01D0C03D007EB040C1CF801CC91F803E0BD
S31508003AB0F44503BF7F1C8F7001270EF10107CF70F5
S31508003AC08F780D2FE4D10E88771C0F8001268E7013
S31508003AD003263742DBD1BFB297FBF3F603FB167614
S31508003AE03EB997FBF0F600FB1676761EB641F60F42
S31508003AF0CEE70126CCE7F0BD10B588B0044605A987
S31508003B00FFF7A0FF04949DF81A0003909DF819008A
S31508003B1002909DF818000190BDF8140000909DF8D9
S31508003B2017309DF816200FF20C1118480088FCF77C
S31508003B30C5FB08B010BDF8B5044615466A26022C22
S31508003B4013D2174FE05D78B9204606F07DF90600D6
S31508003B5007D14FF6FD70854203D02946204606F068
S31508003B60B4F90120E05500E076263046F2BD0000A3
S31508003B70A87F0020CD7F0020A87900201476002099
S31508003B80A4790020A6790020B47900200E780020B8
S31508003B90E86F0020F8770020347600208051010075
S31508003BA0567C002028556E6B6E6F776E20636C7599
S31508003BB0732E205B30782532785D290028257029F8
S31508003BC0000000000D0A542534783A005258206C3B
S31508003BD0656E2025642C2065702025782C20636C62
S31508003BE0757320307825327820000000206D6667CE
S31508003BF04964202532780000204643202578207322
S31508003C00657120257820636D642025782070617998
S31508003C106C6F61645B0000002570525820706B74ED
S31508003C2020746F6F2073686F727421004552524F6B
S31508003C30523A20005554432074696D653A2025642C
S31508003C402F25642F25642025643A25643A256420A7
S31508003C50282534782900000000000000B41A02085C
S31508003C6003000000BC1A0208FFFF00000000000065
S31508003C701F1C1F1E1F1E1F1F1E1F1E1F07021F01A0
S31508003C802F0037013F005701DF02E700FF0200005F
S31508003C90594500086D3300080000000038B50120BA
S31508003CA008F02CFD002000F085F9DFF85C4220685A
S31508003CB040F00800206000F0A4FA00F06BF900F06C
S31508003CC027F88D78DD608D890560CD89456000F01F
S31508003CD016F8206820F01000206008F07CFEFDF73A
S31508003CE089FD08F0A7FE08F09CFD00F088FABDE8FB
S31508003CF0314000F0A1BA40F2016008F039BF088AE5
S31508003D001060488A5060888A1860C88A586042E0FD
S31508003D107E487F490A78C2607E4A4B78D3607E4BDC
S31508003D207047F0B50B687A4C646A0F25960005FA59
S31508003D3006F6344212D0002606EB820724FA07F765
S31508003D40FF0708D5B70005FA07F7BB4330F812C0D6
S31508003D5007EA0C073B43761C042EEDDB0B60F0BD2F
S31508003D60F0B50B686A4C646AFF25D600B5402C424C
S31508003D700FD0002505EBC20624FA06F6F60705D588
S31508003D800126AE40B343175C3E4033436D1C082DF5
S31508003D90F0DB0B60F0BD10B55D4C606A002827D0DB
S31508003DA000225E49201DFFF7DBFF01225C49201D2A
S31508003DB0FFF7D6FF02225B49201DFFF7D1FF00223D
S31508003DC0524900F016F80122574900F012F802226B
S31508003DD0504900F00EF80322544900F00AF804226C
S31508003DE04D4900F006F80522514904F1180034E05F
S31508003DF010BD04F1180094E710B5454C606A002818
S31508003E0027D0002245492046FFF7AAFF0122444948
S31508003E102046FFF7A5FF022242492046FFF7A0FFEA
S31508003E2000223A4900F016F801223F4900F012F83C
S31508003E300222384900F00EF803223C4900F00AF83D
S31508003E400422354900F006F80522394904F10C0028
S31508003E5003E010BD04F10C0063E7BDE8104060E71D
S31508003E60032008F0BDBF80B503F055FF0FF2CC0163
S31508003E7001EB800002BD80B503F051FFC1B200041A
S31508003E80000E0FF2E40252F8200000EB810002BD9A
S31508003E9010B503F040FF044603F041FFC0B208B96D
S31508003EA0012C07D1072C11D8DFE804F00410060806
S31508003EB0080A0C0E002010BD092010BD022010BDF6
S31508003EC0032010BD0B2010BD062010BD44F0800055
S31508003ED010BD0F48007A70470D48807A704716481B
S31508003EE04FF40041C160082101600949887A50B140
S31508003EF010480068800900F001000B7A83421CBF55
S31508003F00087207F09DBD704700BC004000B0004035
S31508003F103C75002000B2004000B400400CB00040E0
S31508003F200CB200400CB4004004B0004004B200409B
S31508003F3004B4004008B0004014A80040554E4B0099
S31508003F404649420042544C004558540050575200C6
S31508003F5057444700205357004352530046534800DE
S31508003F6042414400464C5400481602084C160208C2
S31508003F70A4160208C4160208CC160208D8160208A7
S31508003F80E4160208F0160208F816020804170208D2
S31508003F901417020810B57B4C002008F090FF40F675
S31508003FA08C218842206834BF40F0080020F00800C1
S31508003FB0206010BD10B582B0044600F05FF800A876
S31508003FC005F07CFA9DF801009DF80010FF2902BF54
S31508003FD0FF280420002104B1801CC0B2082828BF8D
S31508003FE00720082928BF0721674A136823F4607346
S31508003FF043EAC01010601068C00851EAC00010609B
S3150800400013BD00B583B002237F226048018800A84B
S3150800401005F054FABDF800004FF6FF7188420EBF4E
S315080040204FF4E1600A2190FBF1F0ADF8000009F0C9
S315080040307AF9C0071FD500F021F801A805F03EFA65
S315080040409DF80500FF2808BF0420811CC9B208296D
S31508004050A8BF0721C1F12F02BDF80030C0F12F001B
S3150800406002EBD272521000FB0320C1F12F01B0FB04
S31508004070F1F0ADF80000BDF800000EBD02237F2266
S3150800408043480188704770B50646424C256800F0DB
S31508004090B1F8FA2190FBF1F070432F303021B0FBD4
S315080040A0F1F0032809D3616D41F0010161652168CA
S315080040B0491B0903090B8142F9D370BD10B50400E9
S315080040C004D110BD4FF47A70FFF7DDFF2046441E79
S315080040D080B20028F6D110BD2F48017869B9C0789A
S315080040E0072818BF092814D0032818BF112810D08C
S315080040F013281CBF15280B280BD02848016841F443
S3150800410080720260C80504D438210FF2A00004F0BA
S3150800411049B8704738B50C4620B1012819D003288C
S315080041202CD02DE01E4D94B11E48844204D0CA21DD
S315080041300FF2840004F036F800F05CF84FF47A7158
S315080041404843B0FBF4F0401EB0F5005F0ED228607D
S3150800415014E05CB100F04EF84FF4FA61620801FB16
S315080041600020B0FBF4F0B0F5003F01D3202032BDAB
S315080041700D4900F001024A6040080860002032BD7F
S31508004180212032BD00BC004018000040E01A020899
S31508004190DE1A020838200040960708083840004012
S315080041A0100004E020A1070068C800407573625F2C
S315080041B06572726F722E63006D6963726F2D636F1D
S315080041C06D6D6F6E2D696E7465726E616C2E63000F
S315080041D02C480068C00702D442F6E060704745F6EE
S315080041E0C050704780B5FFF7F3FF2749096801B942
S315080041F0400802BD80B5FFF7EBFF400802BD08F096
S3150800420040BA2248012181604EF6BE21416000E095
S315080042101F48012101607047A52805D11B484DF6A6
S31508004220AD6141600221016070471848006810F0CE
S31508004230010018BF0120704780B51648102101609B
S31508004240154800781549164A58B103280CBF0020AE
S315080042500120106040F6510008600020FFF72EFF8D
S3150800426006E0022010604FF40060086008F0C8F904
S315080042700C4807210160002101640B4810210160E8
S31508004280002002BD1C400040204000400060004065
S315080042900860004080E100E0C57F00200C60004017
S315080042A00800004014A0004000E100E038B544785A
S315080042B04568FDF781F90C2161438B4A8B585B1BD6
S315080042C0B3F1004F98BF8D50BDE83240FDF77AB97B
S315080042D010B5044607F029FC6060042020702046CB
S315080042E0BDE81040E2E738B500F011F8281860601C
S315080042F0012007E038B500F00AF805EB10200002A7
S315080043006060022020702046BDE83240CEE70446B1
S315080043100D4607F00ABC38B5FFF7F9FF05EB104064
S31508004320000460600320EDE710B50446207860B10C
S31508004330042806D007F0F9FB6168421AB2F1004F6B
S3150800434001D8002010BD081A10BD4FF0FF3010BD6F
S3150800435070B5044607F0E9FB0546FDF72DF9064654
S315080043606FF00041606800F02CF840192060304674
S31508004370BDE87040FDF726B970B504460D461646E9
S3150800438007F0D3FB002156B1FF22327007E0121A5C
S31508004390AA4202D2154606B13170491C0834226871
S315080043A00AB9284670BD1378002BF6D0042B04D022
S315080043B05268831AB3F1004FE9D806B1317000206C
S315080043C070BD0022D8E738B5044607F0AEFB0546AF
S315080043D00BE0017841B1042904D04168691AB1F1AA
S315080043E0004F01D861688847083420680028F0D152
S315080043F031BD10B50C213C4A01FB002407F095FBA2
S315080044002168401AB0F1004F06D86068FFF7DBFF55
S315080044102046BDE810409BE710BD70B50446334DF5
S31508004420687833490978884205D34FF484710FF2C6
S31508004430C40003F0B7FE6E78701C68700C202A4919
S3150800444000FB061044600121017200E04E7054F82A
S31508004450081B0029FAD1FFF77BFF304670BDF8B577
S3150800446005464FF0FF300090204C207840B309F005
S315080044706DF928B940F239110FF2780003F092FE6F
S3150800448007F053FB0C21184A01FB052300251D7272
S31508004490002305E0009EB54288BF354600955B1CA3
S315080044A06578DBB2AB420FD201FB03263568471BA2
S315080044B0B7F1004F04D92D1A367A0EB9002DE9D175
S315080044C003F03EFC0020F2BD00A807F04DFB0120DA
S315080044D0F2BD0C21044A01FB00200121017270473C
S315080044E0024908707047000050790020D07F0020EC
S315080044F0781502086576656E742D636F6E74726F33
S315080045006C2E6300024800787047014908707047AE
S31508004510BA7F0020704701207047B5207047704762
S315080045200020704700207047002070470020704721
S315080045307047002070470020704700207047002011
S315080045407047012070470120704700207047B5204A
S315080045507047704700207047704700207047B520A5
S31508004560704770477047704770470120704770471B
S315080045700120704770477047002070470020704739
S315080045800020704700207047002070477047B5200C
S315080045907047002070470020704770477047704783
S315080045A07047704700207047704770470020704773
S315080045B0000000001FB50C460D230246132100A873
S315080045C008F0D7FB0D2200A92046FCF7DBFC207873
S315080045D040096073207800F01F0020701FBD30B5B9
S315080045E085B004460D460D2200A8FCF7CBFC9DF8C5
S315080045F00000697B40EA41108DF800000D2300AAEF
S315080046002146132008F0C7FB05B030BD2DE9FF4150
S3150800461004460025DFF81064DFF8107413E0A84696
S31508004620306830F81800A0420CD100A9284600F0DE
S3150800463081F89DF80000022804D030684FF6FD7115
S3150800464020F818106D1C3878EDB28542E7D3BDE81E
S31508004650FF812DE9F04385B0044688464FF6FF7979
S31508004660C84505D100F0A0F910B903F0F4FC32E012
S315080046700027DFF8B453DFF8B4630CE0C84508D068
S31508004680286830F81710414504BF4FF6FD7120F829
S3150800469017107F1CFFB2307887421BDA286830F87B
S315080046A017004FF6FE718842F3D200F0DEF80822B2
S315080046B021460DF10500FCF7AFFC0028DED128687D
S315080046C0C84502D130F8170005E020F8178009F030
S315080046D080F8DEE7484664E12DE9FF4780468946CB
S315080046E00026DFF84C73DFF84043DFF8405316E046
S315080046F0B246206830F81A004FF6FE7188420DD28D
S3150800470000A93046FFF756FF082241460DF105007D
S31508004710FCF782FC10B938680AF80090761C2878ED
S31508004720F6B28642E4D3BDE8FF87BF49096831F887
S315080047301000704780B5BD4A1278904201D36920AF
S3150800474002BDFFF737FF002002BD70B504460D46CF
S31508004750287818B92046BDE870403CE0B348007890
S31508004760844201D3692070BD204609F00CFC08B1CB
S31508004770752070BD01F068FE6873681D05F0E6FCDB
S31508004780060018BF01264FF6FF71681DFFF761FF87
S31508004790334602462978204600F006F82946204680
S315080047A0FFF71DFF002070BD10B54FF6FF7409B95D
S315080047B0224608E0032908BF4FF6FE7203D0A2423C
S315080047C008BF4FF6FD729849096821F810209849E4
S315080047D00968435410BD1FB50446944800788442BE
S315080047E028BF692015D2204609F0CDFB08B17520EF
S315080047F00FE000A92046FFF7DDFE9DF8000008B18E
S3150800480000F0F4F8884800684FF6FF7120F8141095
S31508004810002004B010BDF0B585B007460C46824DA1
S31508004820824E00E07F1C3078FFB287421AD2286891
S3150800483030F817004FF6FE718842F3D100F015F8EC
S315080048409DF80500E1B2884204BF9DF80600B0EB6A
S31508004850142FE7D101F0F8FD9DF80D108142E1D142
S31508004860384600E0FF2005B0F0BD00A93846A1E6AD
S315080048702DE9F14F84B00D469046994600266A4FB9
S31508004880DFF8A8A10E9C07E0386830F81B00BDF8D1
S31508004890101088422CD0761C9AF80000F6B2864290
S315080048A028D2B346386830F81B004FF6FE718842A6
S315080048B0F1D200A93046FFF77DFEB8F1000F07D107
S315080048C09DF80100484504BF9DF80400A042E2D1C6
S315080048D001F0BAFD9DF80D108142DCD1002DD3D030
S315080048E008220DF105012846FCF796FB0028D2D1CF
S315080048F0304600E0FF2005B0BDE8F08F10B514463D
S31508004900FFF758FE08224B492046BDE81040FCF741
S3150800491039BB2DE9F04385B00546084616461C46C0
S3150800492000F042F808B100203BE00027DFF8F880E5
S31508004930DFF8F89000E07F1C99F80000FFB2874284
S315080049401ED2D8F8000030F817004FF6FF718842DB
S31508004950F1D0FFF78AFF0C220DF10101681CFCF764
S315080049605BFB0028E7D1FF2F0CD10020207001F057
S315080049706AFD207846B178B92846FDF708FD07E0B4
S31508004980FF27F2E70120F1E738B13846FDF72CFD9D
S31508004990401E8041C00F00E00120207001F059FD43
S315080049A0012005B0BDE8F08308222249FCF734BB94
S315080049B030B585B000241D4D12E000A92046FFF74A
S315080049C0F9FD9DF80000042801D300F00FF8002334
S315080049D04FF6FF729DF800102046FFF7E5FE641CAF
S315080049E02878E4B28442E8D305B030BD00208DF8BB
S315080049F0000000A92046F2E530B585B000208DF804
S31508004A0000000024094D04E000A92046FFF7E7FD51
S31508004A10641C2878E4B28442F6D3FFF7C9FF002065
S31508004A2005B030BD00000000BC740020C074002032
S31508004A30C4740020C87C0020DFF8E82C12681278BD
S31508004A4082420AD019B1012A03D1022805D00020D2
S31508004A507047022A08BF0128F9D101207047DFF8FC
S31508004A60DC1C0875704710B5DFF8B84C2068407B29
S31508004A70112804D0B6210FF2100003F093FB20682A
S31508004A804121417310BD00006173736F63696174DE
S31508004A90696F6E2E6300000080B5022001F0CFFC1E
S31508004AA001F0D6FCDFF8940CDFF8781C0968097B5E
S31508004AB0042903D3C17C491DC17404E04FF47A71FB
S31508004AC01830FFF710FC00F04FBE10B5DFF86C4C3D
S31508004AD0002060742078FF2803D005F01DFCFF2015
S31508004AE0207010BD38B504460D4605F0A1FB007CC4
S31508004AF000F00701400800F0380000EB410000F123
S31508004B001102DFF88C0C0068205CD2B282420ADA05
S31508004B10831ADBB20F2B88BF0F2300200090214693
S31508004B20284605F096FC31BDDFF8F80B0068407B97
S31508004B3033281CBF4328532801D101207047002081
S31508004B4070471FB509F0ABFAF8B1DFF8F04B00A9CA
S31508004B502078FFF7C7FF0020207661790DF1030062
S31508004B6001F0A6F8FFF7B1FF00F010F800F0C0FB5F
S31508004B70007DC00702D50AF0B7FC08B90AF0EAFEBC
S31508004B800AF0B1FC012001F0BDF91FBD10B500F017
S31508004B90AFFB017B032906D340884FF6FF71884295
S31508004BA008BF032008D0FDF795FE0446FDF796FEDC
S31508004BB02146FFF74EFD0220FDF798FE06F026FB7C
S31508004BC0BDE8104000F0D4BD10B5DFF8704B207575
S31508004BD0FFF77BFF00214FF6FF7001F060F9DFF861
S31508004BE0440B0068417B032918BF002919D03329D3
S31508004BF018BF43290FD1017B032906D3032141732B
S31508004C00207DBDE8104001F06CBC207D01F069FCF8
S31508004C10BDE81040BAE721214173BDE810400AF00B
S31508004C20E3BF10BD80B500F063FB002141734FF66A
S31508004C30FE7003F014FA4FF6FF7003F018FADFF867
S31508004C40FC0A007DBDE8024001F04BBC38B50446BD
S31508004C50DFF8D00A0068407B78B920894FF6FF71E3
S31508004C6088420AD0DFF82C0B00780A2805D101F013
S31508004C70F1FB10B901F0F0FB08B1702032BD2146F6
S31508004C8000F0D2FF050008D1012000F0B1FF002195
S31508004C90012001F043FF050001D0284632BDDFF8A8
S31508004CA0F80A007808B10BF076FB002208212046A6
S31508004CB0FDF78DFE30B10421204606F041FE08B905
S31508004CC0A52032BD00202074E081DFF8D00A60619B
S31508004CD0204600F0CFF8054601F079FBDDE780B500
S31508004CE0DFF8BC2A0021117110B1FF2802D101207A
S31508004CF0107007E0012111708000411C89B2101D57
S31508004D00FFF7F8FA00F034FD002002BDDFF8900A3C
S31508004D10002101710020E2E738B504460D46287BDC
S31508004D2000280CBF4FF6FE7003F095F92B46224675
S31508004D300146012001B0BDE830402DE9F04180462A
S31508004D400F4616461C46DFF8DC592868407B0028C3
S31508004D504BD1701EC0B2052847D2DFF8380A007852
S31508004D600A2842D101F076FB00283ED101F074FBF7
S31508004D7008B1042E39D3207B032816D14FF6FE70CE
S31508004D80874214D1012E08BF002710D0022E2CD13D
S31508004D9003F061F94FF6FC71884202D203F05BF921
S31508004DA001E00BF041FC074601E0012E1DD0B8F1E9
S31508004DB0000F0CD0207B03280CBF01210021012EF7
S31508004DC00CBF0120002001F0A9FE002850D1214681
S31508004DD0384600F029FF00284AD101F035FB01F0DA
S31508004DE021FB20B101F038FB08B1702040E02868AB
S31508004DF0407BDFF8487933281EBF53280020787592
S31508004E00304600F0F5FEDFF89069307820B101F001
S31508004E1023FB08B90BF0BFFA207B032803D12046F1
S31508004E20BDE8F04126E00822214607F10800FCF714
S31508004E30A9F8207B032828BF00203874FFF745FE11
S31508004E4094203875387C00280CBF01203120296849
S31508004E5048730020B874727801202968897B00FAA3
S31508004E6001F103200BF022FD10B1296800224A73D4
S31508004E70BDE8F08110B5044600220821FDF7A7FD1C
S31508004E8008B1012010BD03F0E6F800224FF6FF71C5
S31508004E9000F0F3FE217C204600F00AFF6269E189F2
S31508004EA0207C06F0E4F9DFF87C080068007B01281E
S31508004EB008BF02F070FBFFF769FE002010BD70B551
S31508004EC082B00546DFF85C482068407B002802BFB0
S31508004ED0DFF8C00800780A2801D0702076BD05F0F2
S31508004EE06CFF00283AD1DFF854682DB10222294612
S31508004EF006F12000FCF746F800A800F09CFF08B170
S31508004F00932076BD00F01CFF48BB9DF8000000F01A
S31508004F106FFE2068007B012818BF022805D00328E9
S31508004F200ED3002000F0C7FF50B100F020FF206824
S31508004F30007B032828BF0BF038FFFFF727FE0DE09C
S31508004F402068132141730020B074052201202168CE
S31508004F50897B00FA01F105200BF0A8FC002076BD3C
S31508004F60FF22F8B505460E461446DFF8B80700686E
S31508004F70017B012926D0407B022818BF032821D1AE
S31508004F80FDF773FDDFF810084278314603200BF071
S31508004F908DFC060017D13320FDF7A8FCFFF795FD19
S31508004FA0DFF8987703F05FF8F880002D14BF022029
S31508004FB00120387407F1080000F05BFF0020B87480
S31508004FC07C7500E070263046F2BD38B5044605F01B
S31508004FD02FF9054620460BF032FF4419204605F006
S31508004FE0D6FB4FF6FF5101402046BDE8344005F098
S31508004FF0D4BB70B584B003F02EF80646DFF83C47FC
S315080050000B2120780BF0FAFE002100F048FFDFF8AC
S315080050101457FDF701FD58B11EB14FF6F8708642D8
S3150800502006D30BF001FB0646286840888642F8D06E
S31508005030304603F014F8092120780BF0DFFE03F060
S3150800504016F82E68307B052813D100F01DFF8DF861
S315080050500800207C00280CBF4FF4804244F201026D
S315080050600120009002AB4FF48061708804F0C7FB02
S315080050700BE006208DF8080000F006FF8DF8090001
S3150800508000F0F9FA70880CF0F0F80646FF2E08BF13
S31508005090002015D02868418830460BF00EFF207C8A
S315080050A002281CBF3046FFF790FF00230022114656
S315080050B030460CF0EDFA0446304605F02DF9204648
S315080050C004B070BD2DE9F04186B0884616461F46E5
S315080050D00C9C0D9D38B940460CF0BCFB02AA03A9EE
S315080050E00BF08CF803A807218DF808108DF80960D5
S315080050F0310A8DF80A108DF80B40019001200090B6
S31508005100042302AA012140460CF0AFF80446FF2CFE
S315080051101BD041460BF0D1FE17B92046FFF755FFC5
S315080051200DB9204611E040460BF094F818B1204618
S315080051300CF0B8FB05E000230022114620460CF0CF
S31508005140A7FA204605F0E8F8FF2006B0BDE8F0818A
S315080051502DE9F64F83B004461E460E9D00274FF6EE
S31508005160FF7856B14FF0010B30460CF0BCF881467B
S315080051707078400800F0010A05E0BB4610460BF0BF
S3150800518003FF8146BA46DFF89C050068007B0328C2
S3150800519080F0A580691CC9B29DF8100005F04FFA89
S315080051A0054605F0020002909DF80C0018B928067D
S315080051B058BF45F0800500F09BF8407B022804D1D3
S315080051C0DFF8DC050078204301D1022721E09DF8AD
S315080051D00C0030B1B4F1010868EB08084FEAD8783A
S315080051E000E0B846BBF1000F03D0301D05F0CFFA3A
S315080051F001E04FF6FF700121009143462A46014619
S3150800520048460AF058FF80464FF6FF70804508BFAB
S315080052100127DEB11CB94FF6FF70804504D1301D59
S3150800522005F0B5FA014600E04146012001900097D5
S31508005230534642464846FFF745FF0298C0B250B962
S315080052404FF6FF7148460CF09BFF04E03A4641468C
S3150800525048460DF05BFA002F41D10298C0B2F0B172
S31508005260494640460CF0ADFF0E2101FB00F7DFF87A
S31508005270B4140968896A79184A7942F040024A7171
S315080052800CF0D2FFDFF89C040068806A3818417970
S315080052906A064CBF41F0800101F07F014171F6B109
S315080052A0DFF85C6C9DF81000307002F0D4FE0FF247
S315080052B0380C690648BF0CF1010CBAF1000F18BF8B
S315080052C00CF1020C02D10CB90CF1040C4B46424607
S315080052D001469CF800000DF08BFAFF20307005B0EF
S315080052E0BDE8F08F00000000030700040105000078
S315080052F0DFF83004006870472DE9FE4F04468846FB
S31508005300164640460BF0A6FD8146DFF83054297C48
S3150800531001B101218DF80510DFF808743868007BA3
S3150800532005280CBF012000208DF8040044B148462A
S315080053300BF0D9FF824648460BF0C8FF834605E0C6
S3150800534040460BF021FE8246DFF81CBC0020009088
S3150800535004233246414602A805F07BF80DF1090000
S3150800536005F015FA80469DF80B60B4B10822DFF8FF
S31508005370F81B5846FBF750FE00285FD13868407B7B
S31508005380022808BF002E08D1404602F068FE0AF03F
S31508005390E1FA992001F0A5F850E0FDF73DFB002859
S315080053A04CD09DF805009DF80410084301D014B9A7
S315080053B044E0002C42D11EB19420FFF705FC3DE0E5
S315080053C05146386840880CF0FCFE0CF02DFF52461A
S315080053D038684188404600F050FC3868417B01290E
S315080053E016BF3129112143214173022001F026F805
S315080053F040F6B83105F11800FEF775FF0BF0D5FC3D
S315080054000020E8743868C17E21B905F11800FEF756
S315080054105FFF11E034B199F80110890702D5FFF74B
S3150800542090FB09E0007B042806D3052105F1180046
S31508005430FEF759FF0620E874AD20287500F0C7FF6F
S31508005440BDE8F78F2DE9FE4F04460BF003FD054630
S315080054500BF047FD064606EB050920460BF0EFFC68
S315080054603518EDB220460BF08FFD804699F800708E
S31508005470FDF7F2FA002818BF072F14D105F1030A21
S315080054804FF6FF7BA74E012F0ED0022F14D0042F04
S3150800549000F0C180062F15D0072F66D0082F22D01E
S315080054A07C2F00F08180E0E0009500232246002151
S315080054B00846FFF74DFED8E02A4621460020FFF7AA
S315080054C01BFFD2E040460AF07BFE584503D0014652
S315080054D040460DF0CCF83068407B022802D14046A1
S315080054E00DF0D6FBC1E0691C00F0C1F807465FFA6B
S315080054F08AF100F0BDF88246A91D00F0B8F8054605
S315080055005D45EFD00BF051FC3068407B132808D17D
S3150800551000F02DFC20460BF037FD014650460CF0F6
S3150800552050FE3068407B022818BF13281CD1284635
S3150800553002F095FD384602F09AFD0021002000F0A1
S31508005540B7FB4146504600F0AAFC7C48C078DFF815
S315080055501C1A087000F00CF93068417B132903D136
S31508005560232141730BF01DFA7FE03068407B022847
S3150800557002BF894C2079002877D10DF0E7FB054654
S31508005580012021568840C0EB00181FFA88F6002033
S3150800559000F054FF95FBF6F006FB1050411C89B24B
S315080055A0201DFEF7A0FE60E099F80100652804BFFB
S315080055B099F802006D2858D175480068205C5FFA92
S315080055C08AF5854251D20822414601A8FBF7DAFC42
S315080055D000AB0022294620460BF036FD002844D1B0
S315080055E09DF80000FF2840D0DFF884590120287074
S315080055F0DFF80C69347000F026FF9DF8001001A84A
S315080056000DF03FFB00F025FFFF20307000202870CA
S315080056109DF8000027E020460BF0D5FC0546DFF88C
S3150800562054090078FE2809D320460BF01DFC000B10
S3150800563000F0010128460DF029FB16E00FF67C1054
S315080056400088ADF8080000F016F828460BF00DFEA5
S315080056500446FF2C09D029460BF02FFC00212046D2
S3150800566005F0B8FB204604F057FEBDE8F78FC9B22F
S31508005670204605F096B8002001900090022302AA61
S315080056800121704738B5022000F0D9FE00F0E0FE8F
S315080056902A4C00202076234D08F001FD28B1286801
S315080056A0C07E10B9FFF74DFA3AE008F0F8FC10B9D9
S315080056B0FDF7B2F948B1E07C38B100F035F8E07C86
S315080056C0401EE07405F0BDFB2AE02868407B1328DD
S315080056D009D0FDF7A1F930B92868407B11281CBF0D
S315080056E04328412803D1207DFFF76EFA18E00228E7
S315080056F018BF032803D0002818BF212810D100247A
S31508005700DFF8745808E0204600F0A2FE002000F0FA
S31508005710F9FB00F09EFE641C2878E4B28442F2D3BA
S3150800572061E30000B47C0020C82104F11800FEF7EC
S31508005730DABDDFF848080021C174704750760020AA
S3150800574080B5002000F07BFE00F082FE12480021A2
S315080057500171DFF898040068417B022904D1007BB7
S31508005760032838BF0CF0F1FFBDE8014000F071BE18
S3150800577080B500F073FEFF2804D00948007810B100
S31508005780012000E00020DFF8F817087001BD0000CE
S3150800579068740020B47600207476002000F8FF07AD
S315080057A0987C00202DE9F04F8BB00446DFF8D4072B
S315080057B00068255C204604F03BFD0746B81D04F04A
S315080057C0E6FF064607F1090004F0E1FF834607F104
S315080057D00B0004F0DCFFADF8020007F10D0004F041
S315080057E0D6FF80464FEAD039FDF736F918B120467C
S315080057F005F0D6FAE4E001A92046FFF773F99DF80B
S315080058000600C0F3C30A9DF8050000F00F008DF8E6
S315080058100000202DACBF9DF812700027DFF8CC03DE
S315080058200068407B022811D102F01DFC83450DD18A
S3150800583009A800F01EFB1C2D06DB08220DF1070146
S3150800584009A8FBF7E9FB08B105F03DFEB6F5004FE0
S3150800585002BF28F4404040F6FF718842CAD11C2D89
S31508005860C8DB002208210DF10700FDF7B0F8002873
S315080058702FD1DFF814070078012826D1DFF80C07A6
S3150800588000788DF81600ADF814B08DF817909DF8CD
S3150800589000008DF820008DF8217008220DF107010F
S315080058A006A8FBF76FFBFFF723FD407BDFF8505692
S315080058B001281CBF33282C7000F0C5FD05A8FCF78D
S315080058C0DFFEFF20287000F0C4FDDFF8B056A87C84
S315080058D0002875D1FDF7A0F8002871D0012068745A
S315080058E00022082105F10800FDF771F810B1E888D3
S315080058F0834508D008220DF1070105F10800FBF7DA
S315080059008BFB00285CD1B9F1000F06D1B7480068B7
S31508005910407B312818BF332852D101219DF8000059
S31508005920FFF78AF800284BD09DF80400002802BF2C
S315080059309DF805000009022842D1AC480068017BA1
S315080059409DF80620022902D1500709D438E012062C
S3150800595006D405291EBF4088BDF8021088422FD1FB
S31508005960DFF82C66DFF82CB62878FF2812D068797D
S3150800597087420BD195F902009BF90010884209DB92
S315080059801ED168783178884204D319E0381AC0B233
S31508005990812815D2FFF799F82C70204604F0AEFC42
S315080059A0307868709BF80000A87050460F2834BFFE
S315080059B00AF101000F20E8709DF8000028716F7148
S315080059C00BB0BDE8F08F2DE9FF410646884617461D
S315080059D0DFF8A8450120A07405F00AFC00280BD1C1
S315080059E0012E18BF002E08D100F02DFD394640467D
S315080059F0FCF75BFE00F02DFD9CE0FDF72DF828B1C5
S31508005A003A464146304605F0CAF993E0774D28688C
S31508005A10407B23280BD1FCF75DFF0446FCF75EFFAD
S31508005A202146FEF716FE0220FCF760FF82E0002FF3
S31508005A30FCD121281CBF0428532802D10AF0D4F827
S31508005A4078E0FCF7E9FF002856D02678FF2E05D126
S31508005A50607C00280CBFAB20942060E02868007B9F
S31508005A6003288941C943C90F2079FEF7E5FF08B91C
S31508005A70982054E007F01AFD052130460BF0D9F9B5
S31508005A802968887300F0A3FC207C40BB2868007B4B
S31508005A90052824D000F0F8F98046092130460BF095
S31508005AA0ADF907460B2130460BF0A8F942463946B0
S31508005AB00CF011FEB8B994202075022000F0BEFC47
S31508005AC02868417B012906D0312918BF33290CD112
S31508005AD0007B042809D3FFF727FE03200AE0FFF717
S31508005AE088FA0028E7D1942019E04FF41671FFF7D9
S31508005AF01CFE0020E0741DE02868407B132814D1A2
S31508005B0000F016F9BDF8000002F0B1FA00F02FF91E
S31508005B102868017B032905D3332141739620FFF7B3
S31508005B2053F807E0FFF732F804E0022E04BF4046B8
S31508005B300DF00AFA4FF400600AF02AFA10B90BF0D1
S31508005B40F8FD08B10DF0CAFABDE8FF811FB5044695
S31508005B5000208DF80000FFF7CBFB007840F020000E
S31508005B608DF80100FCF778FF18B1204605F01BF9FF
S31508005B703AE00DF1030000F07CF90322FF210DF154
S31508005B800B00FBF742FA05F05CFB8DF80E00DFF818
S31508005B90E4030078FE2828BF0020DFF8FC13097804
S31508005BA0091ADFF8F8231278DFF8F4331B789B1A02
S31508005BB09042B4BF101A0020DFF8B0231278D20042
S31508005BC042F00402DBB2C0B2C018C9B28842B8BFFC
S31508005BD042F080028DF802200F2200A9204604F028
S31508005BE0A8FC401E8041C00F04B010BDB47C002044
S31508005BF038B50446DFF8AC532868017BA14203D0C8
S31508005C000473204600F06AFC1CB12868007B04284F
S31508005C1005D300F0EEFBFF2808BF012000D00020C6
S31508005C20BDE8324007F086BC38B504460D46E87A2A
S31508005C300B38C0B2102801D38A2032BD95F90A0064
S31508005C40FCF7F6FE08B18B2032BDD6480168EA7A21
S31508005C508A730068A97AC173204602F000FA4FF6E3
S31508005C60FE7084420CBF4FF6FF70288902F0FFF9D8
S31508005C70C2482989C180002032BD38B50C46154670
S31508005C8002F0EDF90AF0A4FC2946204600F007F9CF
S31508005C90BA480178FF2918BFC07806D1C1480068FC
S31508005CA0007B01280CBF00200120B049087031BDD7
S31508005CB07FB504460D4600F03BF8BA4E94B1BA4A91
S31508005CC00021284605F0D3FA306801788DF80410CB
S31508005CD0007B8DF805000822214602A8FBF752F939
S31508005CE00DF0D5FC3068817B8DF80310C07B8DF8EC
S31508005CF0020002F0B8F9ADF8000002F0ACF9ADF810
S31508005D00060000F017F87FBD1FB5044600F010F82E
S31508005D101CB100208DF8050007E002F09CF9ADF8EB
S31508005D20060002F0A0F9ADF8000000F003F81FBD68
S31508005D3000A833E01023072200A9002001F09EBC2A
S31508005D4000B58BB0FFF7F4FFBDF80000ADF81800FA
S31508005D509DF803008DF81B009DF802008DF81A00C7
S31508005D6004A9BDF80600FFF75FFF0BB000BD1FB51D
S31508005D70012000F0A0F804460DF094FCFFF7D8FFC8
S31508005D801CB900224FF6FF7103E0FFF7B1FA021DB6
S31508005D904188BDF80600FFF770FF1FBD10230722D4
S31508005DA00146012001F06ABC38B5062000F047FB21
S31508005DB0044600F04DFB7B4D28687C4909788173C1
S31508005DC000F044FBA04208BF00F0D7FA00210020EB
S31508005DD0FFF76EFF9B2000F084FB28680021A0F8DF
S31508005DE04410A0F84610BDE8314000F032BB80B53B
S31508005DF0A0F10B01C9B2102901D38A2002BD694955
S31508005E000968497B022918BF032901D0702002BD01
S31508005E1066490870062000F011FB0021644805F069
S31508005E2065F820B1012808BFFFF7BEFF01E0A120F1
S31508005E3002BD002002BD1FB50446FCF70DFE18B1D1
S31508005E40204604F0A5FF12E000A8FFF7A7FF9DF87B
S31508005E50050040B1062806D25249096809789DF816
S31508005E600420914201D0932001E02070002004B064
S31508005E7010BD1FB5044600A8FFF790FF082202A927
S31508005E802046FBF77FF81FBD4A48007800B140203E
S31508005E9044490968097B484A895C08437047414A6E
S31508005EA01368588019B90822181DFBF7AEB80822DE
S31508005EB0181DFBF767B810B584B004462F4890F84C
S31508005EC02000C00711D50A230A2200A9012001F0E3
S31508005ED0D5FBBDF808004FF6FF71884205D00822A9
S31508005EE0FF2100A8FCF773FD08B1002006E024B1E5
S31508005EF000A9BDF80800FFF7D2FF012004B010BDC5
S31508005F00A076002070B584B004461C4D95F8200094
S31508005F10C0070CD5234E306841884FF6FF72914270
S31508005F2007D100220821001DFCF751FD08B1002009
S31508005F3017E044B1022000F081FA782105F1180033
S31508005F40FEF7D8F90CE030684188ADF80810082249
S31508005F50011D00A8FBF716F80A230A22FFF7ECFE34
S31508005F60012004B070BD0000C87C0020E57F002039
S31508005F70BC7C0020BE7F0020AC7400205076002038
S31508005F80E67F002068740020B4760020D97F0020C0
S31508005F90D77F0020D87F0020E37400209076002069
S31508005FA08E760020B47C002000F8FF07D27F002000
S31508005FB0A95D0008F91A0208C8050108046000006E
S31508005FC02DE9F04F83B082460C4615469B469C4801
S31508005FD00068FF2D0EBF0027295C4F08BBF1FF0F95
S31508005FE00EBF4FF000081BF800004FEA50080DF0EE
S31508005FF01DFD8DF800008DF801A04FEA1A208DF8D6
S3150800600002008DF80340200A8DF804008DF805700B
S31508006010062100A804F003FA8146B9F1FF0F08D05B
S3150800602008EB07004000C11DC9B2484604F0C3FA90
S3150800603008B1182046E0002413E06100C9B22846DA
S3150800604004F0FDFA66000246B11D00F03DF8711C29
S31508006050C9B2284604F0F3FA0246F11D00F034F8F6
S31508006060641CBC42E9DB7800851DEDB24246294630
S31508006070484604F0E9FA6D1CEDB2002714E07C00EE
S31508006080E1B2584604F0DBFA02467E00A91900F090
S315080060901BF8711CC9B2584604F0D1FA02466019B9
S315080060A0411C00F011F87F1C4745E8DB4B46BDF85C
S315080060B030200621504600F09FF80446484604F072
S315080060C02BF92046BDE8FE8FC9B2484604F0BCBA93
S315080060D02DE9F04188B00446884601A9FCF7A9F9DC
S315080060E008B9A3205DE00DF0A1FC8DF80C0001F0C5
S315080060F0B2FF8DF80D0001F0AEFF000A8DF80E0014
S31508006100082250490DF10F00FAF73CFF8DF81740A9
S31508006110BDF804008DF81800000A8DF819009DF8DE
S3150800612009008DF81A000F2103A804F078F906462D
S31508006130FF2E08BF182034D000270AE03A4600216F
S315080061402046FCF79AF900F02FF8281200F02DF8EF
S315080061507F1C9DF80900FFB28742EFD301220DF19B
S315080061600A01304604F0E5F900270AE03A4601211B
S315080061702046FCF782F900F017F8281200F015F807
S315080061807F1C9DF80A00FFB28742EFD3334642468A
S315080061902021002000F030F80446304604F0BCF810
S315080061A0204608B0BDE8F08105468DF800000122BA
S315080061B000A9304604F0BDB92DE9F04105460E4662
S315080061C090461F46069C0DF031FC3870214638462D
S315080061D004F025F90446FF2C08BF18200AD02346E8
S315080061E042463146284600F007F80546204604F0A0
S315080061F093F82846BDE8F08110B584B00024ADF8C0
S315080062000440ADF80210ADF80040ADF806204FF690
S31508006210FC7188421FBF4FF6FD7188424FF6FF7129
S31508006220884205D108490A7800A903F061FB04E011
S3150800623000AA0146002003F012FB04B010BD0000BE
S3150800624068740020C87C002035760020FEB5064616
S315080062500D461746274CA16829B1082201A8FAF766
S3150800626091FE01A8A06037B901F0F5FE6188814268
S3150800627018BF012700D1002730460BF098F800AB6D
S315080062803A46014630460AF0DFFE10BB0120207070
S3150800629000F0D9F89DF8002061682846FCF739F91E
S315080062A000F0D7F89DF80000FF2818BF04F034F86E
S315080062B06DB96068C18848F240021140402906D18C
S315080062C02178490703D4FF21408803F0CAFC00203F
S315080062D02070F7BD084900E00849097801700020D8
S315080062E070470448017811B94FF6FF707047408827
S315080062F070470000BC7C0020D77F0020D87F002094
S3150800630010B56A4800686A4C20606060482200211F
S31508006310FAF77BFE20686749097801702068002132
S3150800632001732068417320680B218173206803215B
S31508006330C17320684FF6FE7101824FF6FF714182E4
S315080063400CF004FD216808760CF000FD21684876FB
S315080063500CF0FCFC21688876206857490978C176D4
S3150800636020685649096881625549097880F82C10D1
S31508006370206854490968016310BD10B502F002FF90
S315080063804B4C6168897B884203D0084602F0F2FECE
S3150800639050B902F0FAFE0146606890F90F00814292
S315080063A004D002F0F6FE08B1012010BD6068008A2C
S315080063B007F038F96068408A07F03CF96068007BA6
S315080063C0012818BF002007F017F9002010BD10B5E6
S315080063D03D4C002020700DF088F820B92046BDE815
S315080063E01040FDF775BFFCF737FB08B104F0D9FC80
S315080063F051E080B5002000F015F828B1002000F023
S3150800640005F808B1002002BDFF2002BD2848006833
S31508006410407B02281CBF1128432801D10120704760
S315080064200020704722480068017B04298041C00F7C
S31508006430704700207047002070477047704700205B
S31508006440704701207047704700207047002070474A
S3150800645070477047002070470020704780B50020BD
S31508006460FFF7D4FF30B112480068007B032801D239
S31508006470002002BDFF2002BD10B5040004D0D921BA
S315080064800FF2680001F08EFE48200849096800FBF3
S31508006490041007494860BDE810406EE704484068A4
S315080064A0008A704702484068408A7047A8740020EE
S315080064B0B47C0020E1740020E2740020B07400204F
S315080064C0B4740020B8740020A47C00207047002013
S315080064D070470020704704F0B4BC704770470CF052
S315080064E0CDBBFBF7EDBF05F093BC0000656D62659B
S315080064F0722D6D756C74692D6E6574776F726B2D60
S31508006500737475622E6300002DE9F84304460D4640
S3150800651090469946089EFFF78CFF0C21B34A01FB6B
S31508006520002000F10807387808B1702013E04FF60C
S31508006530FC70844204D34FF6FD70844218BF0446AB
S315080065404B464246294620460DF0F3FA18B906236B
S3150800655000F003F80020BDE8F283324621463846AB
S315080065603BE070B504460D46FFF763FF0C219F4AD2
S3150800657001FB002000F10806307808B1702070BDD4
S31508006580402300220021204609F0AEF930B9012344
S315080065902A462146304600F020F8002070BD70B526
S315080065A004460D46FFF745FF0C21904A01FB0020E3
S315080065B000F10806307808B1702070BD002200216D
S315080065C0204609F08FF938B900232A464FF6FC71A0
S315080065D0304600F002F8002070BD10B501240470A2
S315080065E04FF6FC74A14238BF43F40043038142606E
S315080065F008217E48FBF79AF90420BDE81040FDF70C
S3150800660089BF3EB5794C0C2101FB004101F1080513
S31508006610FBF767F9002028702046FBF784F9042069
S31508006620FDF7BBFF6968080012D0288902044CBF31
S31508006630022200228DF800204004400CADF802002A
S315080066404FF6FF70ADF804000020029000A88847B6
S31508006650FBF755F937BD0020D3E710B504460846C1
S31508006660616888472089000406D500206060FFF726
S31508006670E0FEBDE81040C4E710BD10B586B0052A97
S3150800668020D3521F8B78CC7803EB04230C7992B273
S31508006690944217D1B4B18DF8002001F20501019199
S315080066A001890A044CBF032201228DF808204904F7
S315080066B0490CADF80A10ADF80C3000A9049102A9EE
S315080066C0FFF7CBFF012006B010BD30B587B08A783A
S315080066D0CB7802EB0322CB7A01EB4304257B8DF8BA
S315080066E00C308DF814500C31049104F20D0106910A
S315080066F0018909044CBF032101218DF80010ADF86A
S31508006700042001894904490CADF8021003A9029135
S3150800671000A9FFF7A2FF012007B030BD30B585B04C
S3150800672004460D460C2A1CD30822A91C03A8FAF70E
S3150800673029FC208900044CBF032001208DF80000A5
S31508006740A87AE97A00EB0120ADF804002089400414
S31508006750400CADF8020003A8029000A92046FFF7F6
S315080067607CFF012005B030BD2DE9F04104460D46F9
S3150800677016469846FFF75DFE0C211C4A01FB0020D1
S3150800678000F10807387868B32888002801BF6888A8
S31508006790398941F40041884224D1FBF7CEFD844271
S315080067A001D0707808B101201DE068884FF40041D7
S315080067B0401A012810D9001F02D0801E06D011E009
S315080067C0424631463846BDE8F0417EE74246314604
S315080067D03846BDE8F04150E7424631463846BDE8FE
S315080067E0F0419BE70020BDE8F0810000307B0020E7
S315080067F010B5234A30B94FF4966421461046FDF782
S3150800680079FD0AE0F02450680028F6D04EF660219B
S315080068108842F2D2840808BF0124204610BD5DE0F4
S3150800682080B50DF024FA43E0154800210170416057
S315080068300FF2AC010120F9F741BDA92818BFAA2813
S3150800684009D110480178491C0170C9B2032924BF2F
S315080068500120FFF7CDBF704782B000281CBF012872
S3150800686002280AD1662B08D106484178491C41708E
S31508006870C9B211B1012002B0BAE702B070470000F0
S315080068809C780020B87F00200DF0F8B900000000C1
S3150800689080B5014802E000BFB87F002000210170E2
S315080068A041704FF6F87007F06FFD08B9FDF75AFE0C
S315080068B00020BDE802409BE7BFE7912800D070475B
S315080068C080B5FEF731F940B90FF23C010120F9F71E
S315080068D0F5FCBDE801400DF069B901BD012087E767
S315080068E0436F6E63656E747261746F72206164764D
S315080068F06572746973656D656E74732073746F70F1
S315080069007065642E00000000436C656172696E67ED
S3150800691020736F7572636520726F75746520746174
S31508006920626C652E0000000038B50446002914BFC5
S31508006930114D124D10220FF268012846FAF77AFB1C
S3150800694030B1102229462046BDE83840FAF71ABB6E
S3150800695031BD0121E8E70021E6E7704708480068ED
S315080069600178002904BF8078012802D10FF21400AB
S315080069707047002070470000C0750020D0750020C1
S31508006980087A00200100041B1000041910000001F9
S315080069905A6967426565416C6C69616E6365303931
S315080069A0FFFFFFFFFFFFFFFFFFFFFFFFFFFFFFFFE9
S315080069B070B582B004462688DFF8785C2868407B84
S315080069C008B1702076BDB00504D504F1120000F0B8
S315080069D0DEFDF0B906F08600862801D1B72076BD1F
S315080069E000F0C8FD2868466116F4045F20D0B0049C
S315080069F00BD5A01C0DF05CF9002852D12868416916
S31508006A0021F4005141F480714161A01C00F0BFFDE2
S31508006A1008B1B22076BD0DF050F920B92868416951
S31508006A2041F4803141612868416941F020014161A2
S31508006A302868416941F40041416148064CBF04F2A7
S31508006A4023020022A31C47F2FF100CF0E7FD00A862
S31508006A5000F03BF828684069C004BDF8000004D57A
S31508006A6040F02000ADF8000008E04FF6DF7108405E
S31508006A70ADF800000DF04DF90DF00EFCBDF8000064
S31508006A8000F010F828684069800506D5012294F8B8
S31508006A90221004F1120000F086FB286800214162EA
S31508006AA0002076BD10B504460023002204F44C707D
S31508006AB001044FF07F600CF0B1FDE00703D500211B
S31508006AC030200CF0E1FD002010BDDFF8681B0968D6
S31508006AD04969090C01F44C7101800020704738B5EA
S31508006AE00446DFF8505B2868407B022801D09320D3
S31508006AF032BD0A2200212046FAF787FA286840693B
S31508006B0000F0FF01820648BF41F01001218080078E
S31508006B105CBFA01C0CF009FE002032BD38B5044647
S31508006B200D460DF005F908B9952032BDDFF8040BBE
S31508006B300068C17E89B14069010401D4A82032BD2C
S31508006B405DB110F0420F08BF002C04D000F440706D
S31508006B50B0F5407F01D0B72032BD002032BD2DE907
S31508006B60F04F8BB004468A460AF09EFB0146204643
S31508006B7003F065FD0646002520460AF06BF90190EC
S31508006B804078800748BF0125B00648BF45F0020592
S31508006B9020460AF00CFC8046DFF89C0A0068205C58
S31508006BA0A0EB0803DBB2242B28BF23230020009088
S31508006BB04246214602A803F04CFC9DF808600120D5
S31508006BC000FA06F99DF8097005F0020B00F09EF927
S31508006BD0C07EA0B100F020FD002814BFA0204FF40D
S31508006BE0F0700121B140014209D0BBF1000F06D176
S31508006BF0082E02D1042F16D101E0052E13D107F075
S31508006C004EFA30B1052E01D1022F02D119F01E001D
S31508006C1009D043F61E4119EA010F05D0524621460E
S31508006C2030460DF0A5FC75E04FF6FF79052E0AD023
S31508006C30062E18D0072E38D0082E4DD0092E51D042
S31508006C400E2E55D066E0062F64DA0198801C03F0F4
S31508006C509EFD064620460AF01EF92B4602AA314634
S31508006C6000F010FB56E001F0F6F9002852D1DFF8E3
S31508006C70C4090068C17E00294CD0BBF1000F02D1BF
S31508006C804069800146D40DF1110003F080FD0246EB
S31508006C90DFF8A8592C700DF1090351469DF8130029
S31508006CA00BF0A6FDFF20287034E00822DFF89019C3
S31508006CB00DF10900FAF7B0F920B90222514608F099
S31508006CC049FF27E00DF1090009F07AFA484521D075
S31508006CD0002109F068F81DE02A4602A950460BF083
S31508006CE037FE17E09DF80910012000F024FA11E09C
S31508006CF0E8070FD50DF1090009F062FA484504BF07
S31508006D000DF109000BF0E2F8484503D0424621464A
S31508006D1000F003F80BB0BDE8F08F2DE9F04788B016
S31508006D2080460D4602F10906DFF80C090068285C62
S31508006D30871BF9B2002003F072FB0446FF2C3CD0F7
S31508006D400120009000234246082120460AF00AFA4C
S31508006D508146B9F1FF0F2DD0F1B228460AF007FB9C
S31508006D608246002000905346F2B2294601A803F055
S31508006D7070FB524601A9484603F0DBFBB8B95644F6
S31508006D80A7EB0A07F9B2204603F058FA40460AF07C
S31508006D9061FD00F0C3F9FFB20097F3B22A4600215D
S31508006DA0204603F022FD4146484607F00FFB4846B9
S31508006DB003F0B2FA204603F0AFFA08B0BDE8F08750
S31508006DC02DE9F74F86B01C460021104603F037FC24
S31508006DD0074604F008084FF000094FF0080B022593
S31508006DE04FF0010A082F1CBF052F062F03D1600894
S31508006DF000F0010612E000F089F8C07E68B100F0E4
S31508006E000BFC002814BFA0204FF4F0700AFA07F113
S31508006E100840064602D0012600E00026F6B2FBF737
S31508006E2024FE9DF82000FF286CD0E00748BF4FF4E9
S31508006E30027BC82000900023BDF8182059469DF80B
S31508006E4020000AF08FF98346BBF1FF0F5AD05FEA9C
S31508006E50080005D0079958460BF0E1FE00284ED0E9
S31508006E60BDF818004FF6F87188422CBF082000209C
S31508006E7040F001008DF8040000F048F8817E4A1CB5
S31508006E8082768DF80510F0070AD59DF8040040F0C3
S31508006E9020008DF804005FEA080014BF0F250725B7
S31508006EA02A4601A9584603F044FB40BBF0071AD509
S31508006EB00021052F0CD1584603F065FA012103F08D
S31508006EC0BEFB0AFA00F010F0620014BF1021182168
S31508006ED0B8F1000F19BF0223079A01234A465846FC
S31508006EE00DF016FB58B9600705D5BDF818105846B9
S31508006EF007F06CFA02E0584607F0DEF88146584675
S31508006F0003F00AFA484609B0BDE8F08FDFF824070F
S31508006F10006870472DE9F04104460E4630460AF0EF
S31508006F200DF8804620460AF095FCFF2804D009F0A3
S31508006F30ACF900F040070DE020460AF0F4FFFF2800
S31508006F4018D00E21DFF8EC261268926A01FB0020A1
S31508006F504079C709DFF8E4562E7001F07CF801463F
S31508006F60002F14BF05200120434622460BF040FCA3
S31508006F70FF202870BDE8F0817CB51C460025DFF8A7
S31508006F80B4361B681B7D9B0701D5002076BD019290
S31508006F9000900B4606220FF2B861002003F097FB1B
S31508006FA00646FF2E0CD0002C14BF032301233246BD
S31508006FB000210846FFF704FF0546304603F0ACF902
S31508006FC0284676BD2DE9F04104460D4616460027AB
S31508006FD0B8460CF088FC18B1012300F017F80746EC
S31508006FE00CF081FC40B100F017FB48B1DFF844060D
S31508006FF000684069800103D4002300F007F8804642
S3150800700058EA070018BF0120BDE8F0813246294634
S315080070102046B1E72DE9F34F8DB015461E46022EE0
S3150800702016BF032E012700270DB1A84605E001A8C3
S315080070300CF07BFB48B10DF104082321002003F076
S31508007040EEF98146B9F1FF0F01D1002063E003F0A4
S31508007050EFF88246D34605200BF8010B0BF8016BB7
S31508007060199CE00607D5112200215846F9F7CDFFED
S315080070700BF2110B19E0102218995846F9F782FFFE
S315080070800BF1100B0120B04010F062000DD003A9DF
S3150800709008A800F05FFA584600F1010BA1064CBF9C
S315080070A09DF81C109DF830100170002F14BF29465A
S315080070B00E9908225846F9F765FF0BF108052FB116
S315080070C0A00900F0010005F8010B0AE00120009074
S315080070D00823A5EB0A02D2B24946404603F0B9F99D
S315080070E00835A5EB0A01C9B2484603F0A7F86007B8
S315080070F005D5BDF834000AF0ADFB00F00FF82346BD
S315080071004A460E99BDF83400FFF75AFE044648462B
S3150800711003F002F920460FB0BDE8F08FFF2809D02A
S31508007120DFF82015096831F810204BF6FF731A406E
S3150800713021F81020704730B58BB004460D4600F094
S315080071409EF800A800F023FA60B99DF810009DF893
S3150800715024100A1AD2B2812A04D32CB1A94201D02A
S31508007160A84201D000201CE01123022205A900F044
S315080071706EF801229DF8101000A800F014F80DF022
S31508007180BAFA01214FF4007008F0E7FEFFF75BF941
S31508007190FFF7BCFE90F820000BF06FFDFFF759F9DA
S315080071A001200BB030BDF0B591B005460C46164629
S315080071B001271122002101A8F9F727FF8DF81440AD
S315080071C02DB91022002101A8F9F71FFF04E01022AB
S315080071D0294601A8F9F7D6FE112200210BA8F9F7CE
S315080071E014FF1122002106A8F9F70FFF06A90BA81C
S315080071F000F0B0F9002E14BF0BA806A8112201A9A9
S31508007200F9F70AFF00B90027CEB1DFF8285497B17D
S315080072101123062200F01AF82868407B432808BF85
S315080072200DF0BAF900A8FFF750FCBDF8000080067B
S3150800723058BF0CF06EFD286880F8204004E01FB1A6
S315080072401123022200F002F811B0F0BD01A90020B6
S3150800725000F014BA70B58AB004460D46164600F01A
S315080072600EF8002E14BF05AE00AE10223146204699
S31508007270F9F788FE307C287000200AB070BD00A996
S3150800728005A867E12DE9F74F84B01D4602F1010B09
S315080072901BF8014B00208DF801008046022C14BF14
S315080072A0032C01208DF800008DF8028000F0D3FE33
S315080072B0002802D006F0F3FE284300F03181DA46B2
S315080072C00BF1100B504600F062F90746012000FA50
S315080072D004F9622119EA010F1CBF1BF8010B8DF88E
S315080072E00100CDF808B0DFF84C639DF8000020BB1C
S315080072F00BF1080819EA010F10D03068007D8007E5
S315080073000CD5FF2208214046FBF761FB30B9002364
S315080073104246002102200CF081F90EE040460CF0AE
S3150800732037FA50B93068407B432824D1012C18BF5E
S31508007330052C20D101208DF8020000F08CFEBDF846
S315080073401410884208D19DF8000038B90822BC49B3
S315080073500298F9F761FE002840F0B780052C0AD894
S31508007360DFE804F0033C2D2D033C0CF0BCFA0028A2
S3150800737014BF032D002F40F0D380042C0CBF20210E
S31508007380302153464246B0480CF048F9002C4BD001
S31508007390306800214162417B022909D10321404618
S315080073A0FFF79DF8002007B0BDE8F04F0CF00FBBC3
S315080073B041295FD14069400540F1B28080E0032D44
S315080073C058D1032C0CBF0121002153460698827E12
S315080073D0123007B0BDE8F04F0DF0CEB905F0020542
S315080073E03068407B022804D10CF07DFA08B1002DE4
S315080073F01AD03068407B412816D03FB906F04FFEB8
S3150800740002469DF801105046FFF7CDFE8F480078DA
S3150800741038B1012C07BF00210120012100200CF002
S3150800742033F906F03CFE00287AD00CF05CFA68B115
S3150800743030684169090502D4407B432806D12DB935
S31508007440AC2007B0BDE8F04FFDF709BB3068007DFA
S31508007450800704D4BDF8101000200DF09AFA3068A1
S31508007460417B112914D14069400511D500200CF043
S3150800747046FA002854D1FDF70FFBAE20FDF7EFFAC8
S3150800748000200CF0A4FA07B0BDE8F04FFDF7EBBA00
S315080074900DB100F08FF89DF8020088B14FF08051C9
S315080074A000200CF0F1F80CF008FC18B94FF4803104
S315080074B00CF0EAF830680021416240460CF066F9A3
S315080074C007B0BDE8F04FFDF73CBB622019EA000F94
S315080074D013D0BDF814004FF6F87188420DD3002278
S315080074E008210298FBF773FA38B100229DF80110BB
S315080074F0504607B0BDE8F04F55E6029800F05FFD2C
S315080075004FF6FF7188420BD0002F14BF15210421B6
S315080075100191CDF800A0234642460299FFF77AFD6D
S3150800752007B0BDE8F08F10B58AB00446FFF7A7FE8E
S315080075309DF82400844205D105A80DF0E1FC012040
S315080075400AB010BD9DF81000844208BF00A8F4D008
S315080075500020F5E710B50C46112306220146012046
S3150800756000F08CF81123022221460120BDE81040C4
S3150800757000F084B880B5002200210846FFF713FE04
S3150800758000214FF6FF70BDE804400CF07DB80022DC
S315080075901021FBF71CBA80B526480068C07E40B1AA
S315080075A000F008F826480CF0EFF8BDE8014007F0AF
S315080075B09ABF01BD1F480068406910F0300F09D016
S315080075C03021224A12780AB1C00700D4202130207F
S315080075D00CF05AB8704717490968CA7E02B970474D
S315080075E080B5087B032816D200200DF025FE48B189
S315080075F00179302211420ED101F0CF0141F010017C
S31508007600017101BD0AF099FC28B100210020BDE8EE
S3150800761004400DF0BEB901BD80B500F01CFD002880
S315080076200448006840690CBF8008000D00F001009E
S3150800763002BD0000B47C002068740020A0760020FB
S31508007640C87C00208474002030000100F91A020862
S31508007650313832310000000010B50446FEF7F4FE5A
S3150800766050B10FF23C1001E000F20600017919B1A1
S315080076700188A142F8D14488204610BD2DE9F04181
S3150800768082B005460C4616469846FEF7DDFE0746C6
S3150800769042480178FF2919D04078B84216D100220D
S315080076A00FF2FC0003E09A18D2B200F20600037942
S315080076B063B1B0F800C0B445F5D16B1E9B41DB0F32
S315080076C000930379204602F0C4FE1DE03046FFF71A
S315080076D0C3FF064607B17F1E002D434607D0FAB200
S315080076E03146204602B0BDE8F04105F042BB2246CD
S315080076F0F9B205F050FBFEF7A6FE30460BF0C9FAC4
S31508007700BDE8F341FEF7A5BEBDE8F3812DE9F043D8
S3150800771089B004460FF288070026FEF795FE050095
S3150800772014D06D1E12E0002000904346F2B21B48AA
S31508007730017801A802F08DFE2CB9434601AAE9B2E8
S31508007740484605F028FB464407F20607387978B11B
S315080077503888FFF781FF814697F80480002CE2D02D
S315080077604346EAB2494601A805F003FB0120DBE7D8
S3150800777009B0BDE8F08310B5084C2078FF2801D180
S31508007780702010BD0020FFF7C1FF207802F0C4FD6D
S31508007790FF2020706070002010BD00008076002059
S315080077A007000D00100008000F001A0006000C0064
S315080077B0110002000E00110004001200040001006E
S315080077C0010004000900100008000A0011000A0060
S315080077D0000000000000000000B583B000A80021EA
S315080077E0002206C0082200A98148F9F7CBFB07BD8D
S315080077F030B587B004460D461822002101A8F9F7CE
S3150800780004FC01A800F0E8F8ADF80C408DF80F501C
S3150800781003208DF80E0001A8FAF77EFB04000DD0B0
S315080078200FF21820009023460FF208220FF2F011EB
S315080078300220F8F743FD204600F059F807B030BD9E
S3150800784030B587B004460125FCF792FEF0B1182240
S31508007850002100A8F9F7D9FB0822211D00A8F9F78D
S3150800786091FB2088ADF80800A0788DF80B0003205E
S315080078708DF80A002388A2780FF2CC110220F8F7B7
S315080078801DFD00A8FAF763FB05000DD00FF2AC103A
S3150800789000902B460FF2EC120FF2D4110220F8F7E3
S315080078A00DFD5448FCF714FD07B030BD80B55248AD
S315080078B000210171017802290AD10FF2E4120FF2B0
S315080078C0CC110220F8F7FAFCBDE8014003F0F2B843
S315080078D0002101700FF2DC110220F8F7EFFC0020FE
S315080078E003F0DAF90020BDE80240FCF740BE10B507
S315080078F00446AB2C07D10FF23C120FF2D01101202F
S31508007900F8F7DCFC07E023460FF2E8120FF2D41171
S315080079100120F8F7D3FC3848002101700FF29412C1
S315080079200FF2D8110220F8F7C9FC2046BDE810402E
S31508007930FCF71DBE10B5304C207818B100F031F8B0
S31508007940702010BD05212D4803F02CF808B9012137
S31508007950217010BD30B583B0274C207818B100F0DF
S3150800796020F870203EBD0FF238120FF2C411022023
S31508007970F8F7AAFC214D0220F8F75EFC10B128465C
S31508007980FAF766FF19A10220F8F798FC00A800F09C
S3150800799023F800A9284603F06CF808B902212170DB
S315080079A03EBD0FF284120FF268110220F8F786BC6A
S315080079B0114A1178902809D101290BD002290AD138
S315080079C0032010700121101DFCF7A5BC022902D363
S315080079D0022010706AE7704710B50446FEF729FDC5
S315080079E00822034901EBC001204615E0000000000B
S315080079F0187A0020107A00200C7A002000C8180394
S31508007A0010B50446FEF715FD08222146004B01E095
S31508007A10187A002003EBC000BDE81040F9F7B2BAA7
S31508007A202570206572726F7220307825782025704F
S31508007A3000000000466F726D0000000061626F7200
S31508007A4074696E67000000004E776B20666F756E6E
S31508007A50642C2063682025642C2070616E4964209C
S31508007A6030782532582C206A6F696E696E67000077
S31508007A702570206572726F7220307825782C202543
S31508007A80700000004A6F696E00000000436F6E7454
S31508007A90696E7565202570207365617263680000DC
S31508007AA06A6F696E61626C65206E6574776F726B5A
S31508007AB0000000004E6574776F726B2066696E640D
S31508007AC020636F6D706C6574650000002570206119
S31508007AD06E64206A6F696E207363616E20646F6ED0
S31508007AE0650000002570206572726F722030782557
S31508007AF0780000005363616E00000000257020289E
S31508007B007363616E206572726F72292E0000000021
S31508007B102570466F726D20616E64206A6F696E20EB
S31508007B206F6E676F696E67004572726F723A2000F2
S31508007B3053656172636820666F722025700A436810
S31508007B40616E6E656C733A200000000080B5FEF722
S31508007B5005FF08B9012002BD807A34490870FEF78E
S31508007B60FDFE0028F6D0C07A314908702E4800215B
S31508007B700170002002BD10B58CB0FEF7EFFE0400C0
S31508007B8008BF012031D02C22002101A8F9F73DFABF
S31508007B906088ADF80400A088ADF80000102204F152
S31508007BA00C010DF10600F9F7EDF90DF11600FAF7DB
S31508007BB01DFFD0B90DF10600FEF7CBFE0DF116003C
S31508007BC0FEF7C9FE012200A901A8FCF7E9FC01A8F5
S31508007BD0FEF7EEFE48B9BDF80000FEF763FFFFF7B3
S31508007BE0B5FF10B9FEF7B9FE00200CB010BD70B590
S31508007BF082B004461D460C480678002A1CBF022A95
S31508007C00042A00D10326009613462A462046FCF786
S31508007C10CBFCFAF792FB854203D0294620460CF0A6
S31508007C2012F8304676BD0000B37F0020BC7F0020E6
S31508007C30E074002010B58CB0FEF790FE040008BF73
S31508007C40012033D02C22002101A8F9F7DEF9E088BB
S31508007C50ADF804002089ADF80000102204F10C01EB
S31508007C600DF10600F9F78EF90DF10600FEF771FE23
S31508007C700DF10200FEF729FFBDF80200800605D5C2
S31508007C80BDF8000040F02000ADF80000002200A971
S31508007C9001A8FCF785FC01A8FEF78AFE30B9BDF8F5
S31508007CA00000FEF7FFFEFEF758FE00200CB010BDE0
S31508007CB030B51C4801680020002201249440CBB24C
S31508007CC0234212D00FF2680030F812004CF23C3111
S31508007CD04FF20F02144B062811D1588890420AD148
S31508007CE01888020A0B2A06D207E0521C082AE4D38F
S31508007CF00E49088030BD4FF4C0605980F8E740F25D
S31508007D000724A04201BF5D8895421A88A242EFD196
S31508007D1059802046ECE705480088000A7047034862
S31508007D20008870472C00004000000020D67700200D
S31508007D3001040204010301050600070203090109FB
S31508007D40002181F31188704710B50AF095FF0DF0F0
S31508007D509FFBDFF82C432078002839D110200DF03E
S31508007D60DBFC00060BD400200DF0D6FC000606D579
S31508007D70E078012812D104F0B7FFA8B310BD10208F
S31508007D800DF0CAFC0006F6D500200DF0C5FC00066D
S31508007D90F1D5E078012818BF0F28ECD0E078022842
S31508007DA018BF0628E7D0072818BF0828E3D00928EF
S31508007DB018BF0A28DFD0032818BF1028DBD01128DF
S31508007DC018BF1228D7D013281CBF14281528D2D0BC
S31508007DD00FF2E02421460020F9F78BF8214601200E
S31508007DE0F9F787F8B02010BDFCF73AF80DF0D4FC87
S31508007DF0DFF89002007808B1FCF7DAFD02F018F80F
S31508007E000DF0FFFCDFF880420FF2D420FCF705FBEB
S31508007E102070DFF87802FCF700FB6070FEF770FA56
S31508007E2003F0A3F806F0F2F80DF022FE0DF023FE9B
S31508007E3003F0EAF9012005F07AFAF021DFF850029A
S31508007E40FCF758FA002010BD2DE9F0470DF056FE54
S31508007E500DF04EF90EF002F808B90DF0D2FFDFF872
S31508007E603482404602F052FD08B906F0ECFBDFF812
S31508007E702892484602F04AFD08B901F056FD08F076
S31508007E8083FF09F06EFEDFF800522878FCF7B1FA96
S31508007E906878FCF7AEFA0AF069FF00270024DFF8D5
S31508007EA0FC61DFF8FCA10AE02046FEF7D1FA30684B
S31508007EB0007B042828BF0127FEF7CBFA641C9AF832
S31508007EC00000E4B28442EFD3002F1EBF7548007845
S31508007ED0002805D000F03EF8102808BF05F02EFD52
S31508007EE0714802F013FD08B90DF060FC0BF0E4FED2
S31508007EF0F9F762FB07460DF0B1FF68B1404602F09C
S31508007F0005FD48B1484602F001FD28B10BF0D2FE46
S31508007F1010B12878FCF7A3FA3846F9F753FBF9F7B6
S31508007F204BFB04460DF09AFF30B1404602F0EEFCDA
S31508007F3010B16878FCF793FA2046F9F743FBFEF789
S31508007F4080FA18B940F26B1100F035F8FCF7C4F85E
S31508007F50BDE8F08738B502F0F2FF28B109F0E1FB79
S31508007F60441EA441E40F00E0012405F0CEFA0028DF
S31508007F700CBF042500250DF071FF48B1454802F0F5
S31508007F80C5FC28B1444802F0C1FC08B1002000E055
S31508007F9002204649097801B12021424A127802B1E5
S31508007FA01022434B1B7803B140232C43204308433C
S31508007FB01043184332BD0FF2181000F0F3B838B565
S31508007FC0044636480068007B03280BD2204608F092
S31508007FD0F7F84FF6FF75A84204BF204609F076FF6A
S31508007FE0A84204D12046BDE8324002F00AB832BDA4
S31508007FF070B504460D464FF6F870844201D3012049
S3150800800070BD264E3CB93068007D800703D42846EB
S315080080100BF08BFBA8B9306841888C4205D1082241
S31508008020011D2846F8F7AEFF0BE0007B03280AD2AD
S3150800803020460CF09FFAFF2805D029460CF0BDFA19
S3150800804008B1002070BD2946204602F01BF8401EE4
S315080080508041C00F70BD11480068008A70470F49FB
S315080080600968088270470D480068408A70470B49BE
S315080080700968488270470948006800787047000018
S3150800808096070808E2760020D57F0020D01A020855
S315080080907C7F002054770020A4760020B47C002042
S315080080A0AC74002020770020AC760020687600208B
S315080080B0FC7E0020537461636B2F4861726477619C
S315080080C07265204D69736D617463680D0A0000005E
S315080080D07A69676265652D737461636B2E63000048
S315080080E058770020251B0108747E002011310108ED
S315080080F0BC7600204D0A01081C7E00204D18010898
S31508008100987700205F6B010868760020855600087E
S3150800811078760020415700082077002039D90008D2
S315080081209C7C00200D4D0008E876002019FB00080D
S3150800813030770020A9B30008107F0020559D01085C
S31508008140087E00204F230108087F0020B394010809
S31508008150687E002073450108107E0020E5F40008BB
S31508008160F87D0020013A010878770020713001086F
S31508008170FC7E0020E1B10008A47C0020CF63000843
S31508008180847F0020B76E01087C7F0020E9C90108BA
S31508008190AC7C0020DB640008000000000000000042
S315080081A042DE704738B504460D46FCF731F8F9F754
S315080081B003FA294620460DF017FB2B4622460FF2F6
S315080081C094510120F8F795FE29462046BDE834402B
S315080081D0E6E72DE9F8434FF42065DFF85465371DC7
S315080081E0DFF8500501687965016AB965DFF8481551
S315080081F00968F965416A3966816A7966C16AB96644
S31508008200016BF966806B386797F8340040074CBFF6
S31508008210FC6BBC6BA04604F03DFD3865DFF81C1509
S31508008220DFF81C25DFF81C35A646864524BFA3F1D2
S315080082302009F14520D354F818EFC7F840E054F860
S3150800824004EFC7F844E07C6DE405E40D062C17D16D
S315080082503C6CA646964513D38E4511D224884DF616
S31508008260426E74450CD106F18C04756865607D68AC
S31508008270A56040F2017503E000243C647C648046F6
S31508008280DFF8C444A04202D2204600E0001D98420E
S3150800829004D2D0F800E0BEF1CD3FF7D0181AB86482
S315080082A00020F864844606EB8004C4F878C0401CB5
S315080082B00628F8D3002004E0C0B206EB800CCCF800
S315080082C0784098452BD253F8044D9442F9D38C4202
S315080082D0F7D25FEAC47CF4D54FF0000C06EB8C0E9F
S315080082E0DEF878E0A64504D00CF1010CBCF1060FC7
S315080082F0F4DBBCF1060FE4D1002814BF401E0520AC
S31508008300DAE77C6F4FF0000C06EB8C01CA6F8A67C0
S315080083100CF1010CBCF1050FF6DBC6F88C400146E2
S31508008320481EC9B20029ECD1786DC005C00D0228D7
S315080083300AD0032816D0042817D0052818D00628EE
S3150800834019D00C281DD01FE0DFF800040168890742
S3150800835048BF40F602151CD40068C00719D540F27C
S31508008360025516E040F6012513E040F6022510E016
S3150800837040F603250DE0B5F5206F0AD140F6042531
S3150800838007E040F6052504E018B1242838BF40F672
S3150800839007252846BDE8F2832DE9F04F85B08046CB
S315080083A0DFF88C53A86B410707D50FF2BC31039150
S315080083B02E6C2F6D0024A14607E00FF2B43103910D
S315080083C0EE6BEF6C6C6DDFF87C9300074CBF0FF219
S315080083D0A8320FF2AC32B9EB040A07D064204FEA90
S315080083E05A0100FB0710B0FBFAFB01E04FF0000B47
S315080083F00296CDF804900094039B0FF28C31404608
S31508008400F8F70FFD1FFA8AF00190039800901FFAFB
S315080084108BF3BAB20FF2A0314046F8F702FD95F891
S31508008420380040070CD4AAF19800874208D1686D35
S31508008430C549884204D20FF2BC314046F8F7F1FC30
S31508008440B14528BFA64205D2039A0FF2D431404659
S31508008450F8F7E7FC4046F8F73AFD286EF8B10FF250
S31508008460E0314046F8F7D5FC0026ACA70FF2847435
S31508008470286E0121B14008421EBF54F82620107804
S31508008480002803D039464046F8F7C3FC761C112E5F
S31508008490EEDB404605B0BDE8F04FF8F7A6BC0FF294
S315080084A0D031404605B0BDE8F04FF8F7BABC2DE923
S315080084B0F84F04469E4F07F144050FF2B85A0FF2DB
S315080084C0D0590FF2B86801260FF22C4BFFF727FC9C
S315080084D040F20151401A16D0401E17D040F2FF1143
S315080084E0401A35D04FF44071401A39D0401E52D048
S315080084F0401E73D0401E00F0B280401E00F0CB80B4
S31508008500401E06D0C5E00FF2803141E00FF2B831C7
S31508008510C3E0E86C012806D0032807D0042807D052
S31508008520052808D00AE00FF2EC3608E07CA606E03B
S315080085300FF2E83603E00FF2EC3600E079A60FF208
S31508008540EC3100F0B9F82B6D32460FF2084103E022
S315080085502B6DEA6C0FF214412046F8F762FC93E0A3
S315080085600FF2244100F0A8F895F82400800703D5F7
S315080085700FF22C4100F0A0F8686A400003D50FF20C
S315080085805C4100F099F8686A00287DD50FF28041B1
S3150800859000F092F878E00FF2B44100F08DF895F803
S315080085A0200010F0030F01D000F081F895F82000A4
S315080085B0000603D5EA6A514600F07BF8002700F06A
S315080085C071F81EBF58F827201078002802D04946AF
S315080085D000F06FF87F1C082FF1DB55E00FF2B84169
S315080085E000F06AF800F063F8286A400503D50FF230
S315080085F0C04100F061F8286A000403D5EA6A5146CA
S3150800860000F057F8082700F04DF81EBF58F8272045
S315080086101078002802D0494600F04BF87F1C102F2E
S31508008620F1DB95F82000000603D10FF2CC4100F0EB
S3150800863043F801270FF2F0490FF2A858286B06FAFB
S3150800864007F108421EBF58F827201078002802D0E4
S31508008650494600F02EF87F1C042FEFDB14E00FF2DA
S31508008660D04100F029F800F022F8102700F01AF897
S315080086701EBF58F827201078002802D0494600F077
S3150800868018F87F1C1A2FF1DB2046BDE8F24FF8F7E1
S315080086901EBCBDE8F18F0FF2B44100F00DF800F0F2
S315080086A006F8F1E7286A06FA07F1084270477A6C75
S315080086B059462046F8F7B5BB2046F8F7B2BB2DE970
S315080086C0F0478046DFF888A00FF26C56002516A7FB
S315080086D016A40FF29C4906E04046F8F79AFB404676
S315080086E0F8F7F5FB6D1C3078A8B15AF8043B32460A
S315080086F049464046F8F78DFB16F8010B0028FBD1D2
S31508008700307800281EBFEDB205F00300032814BF19
S3150800871021463946E0E7BDE8F087000020257000CD
S31508008720414443003F3F00000D0A00002C20000092
S315080087300000002004ED00E000E300E012CA010892
S3150800874090010008D86F0020980000201CA0004067
S31508008750040000200D0A5B4153534552543A2570D4
S315080087603A25645D0D0A000070726F6365737300C5
S315080087706D61696E000000005468726561640000EE
S3150800878048616E646C6572002570206D6F646520A3
S315080087907573696E6720257020737461636B202872
S315080087A025347820746F20253478292C20535020BE
S315080087B03D2025347800000025752062797465739C
S315080087C020757365642028257525252920696E205E
S315080087D0257020737461636B20286F7574206F662B
S315080087E020257520627974657320746F74616C290D
S315080087F000000000537461636B205F6D61795F2030
S3150800880068617665207573656420757020746F20BD
S315080088103130302525206F6620746F74616C2E0008
S315080088205350206973206F757473696465202570C9
S3150800883020737461636B2072616E676521000000A6
S31508008840496E7465727275707473206163746976A3
S315080088506520286F72207072652D656D7074656469
S3150800886020616E6420737461636B6564293A000045
S315080088704E6F20696E7465727275707473206163C9
S31508008880746976650000000052657365742063613B
S315080088907573653A205761746368646F67206578F5
S315080088A070697265642C206E6F2072656C696162EE
S315080088B06C6520657874726120696E666F726D6189
S315080088C074696F6E000000005265736574206361F9
S315080088D07573653A205761746368646F67206361CE
S315080088E075676874207769746820656E68616E6359
S315080088F0656420696E666F00496E73747275637479
S31508008900696F6E20616464726573733A20253478E2
S315080089100000000053433120527800004D414320A7
S31508008920527800005343322052780000526573652E
S31508008930742063617573653A20444D412070726FE7
S3150800894074656374696F6E2076696F6C6174696F9C
S315080089506E000000444D413A2025702C2061646465
S31508008960726573733A202534780000005265736582
S31508008970742063617573653A204173736572742058
S3150800898025703A256400000052657365742063619A
S315080089907573653A2048617264204661756C740087
S315080089A0484653522E5645435454424C3A20657213
S315080089B0726F722072656164696E6720766563748A
S315080089C06F72207461626C6520666F7220616E201A
S315080089D0657863657074696F6E0000004846535287
S315080089E02E464F524345443A20636F6E6669677553
S315080089F07261626C65206661756C7420636F756C54
S31508008A0064206E6F74206163746976617465000012
S31508008A10484653522E44454255474556543A2066D1
S31508008A2061756C742072656C6174656420746F205E
S31508008A306465627567202D20652E672E2C20657863
S31508008A4065637574656420424B50540052657365BE
S31508008A50742063617573653A204D656D6F72792070
S31508008A604D616E6167656D656E74204661756C74DF
S31508008A7000000000496C6C6567616C206163636582
S31508008A80737320616464726573733A2025347800C1
S31508008A90434653522E2570005265736574206361F0
S31508008AA07573653A20427573204661756C740000CB
S31508008AB041646472657373206973206F6620616E02
S31508008AC020696E737472756374696F6E206166745B
S31508008AD0657220627573206661756C74206F6363B6
S31508008AE075727265642C206E6F74207468652063D5
S31508008AF0617573652E000000434653522E286E6F2B
S31508008B006E6529206C6F6164206F722073746F72B2
S31508008B106520617420616E20696C6C6567616C20E4
S31508008B206164647265737300414653522E25700062
S31508008B3052657365742063617573653A2055736170
S31508008B406765204661756C740000000052657365A0
S31508008B50742063617573653A204465627567204DB4
S31508008B606F6E69746F72204661756C740000000040
S31508008B702570203D20253478000000008810020862
S31508008B80C810020800110208041102084811020858
S31508008B90001102080011020884110208B411020823
S31508008BA0E4110208081202083012020870120208BC
S31508008BB00011020800110208AC120208DC120208B1
S31508008BC01413020850130208801302080011020841
S31508008BD0001102080011020800110208B813020861
S31508008BE0E813020800110208281402086C14020887
S31508008BF0AC140208E8140208F0140208F814020873
S31508008C0004150208101502081C150208201502088A
S31508008C1024150208301502083C15020844150208F6
S31508008C204C15020850150208581502086015020866
S31508008C306815020870150208523000523100523287
S31508008C400052330052340052350052360052370073
S31508008C505238005239005231300052313100523107
S31508008C603200523133284C5229004D53500050538C
S31508008C70500050430078505352004D53502075739E
S31508008C80656400505350207573656400435354411E
S31508008C90434B20626F74746F6D00494353520053FF
S31508008CA04843535200494E545F4143544956450080
S31508008CB04346535200484653520044465352004DC9
S31508008CC04D41522F42464152004146535200526589
S31508008CD074300052657431005265743200526574FE
S31508008CE0330052657434005265743500446174303B
S31508008CF00044617431000000214A50701170002050
S31508008D00907070472DE9FC41044688461C4EB7789A
S31508008D10307898B34FF6FC70844204D33E210FF2A4
S31508008D206400FFF73FFA002500E06D1C3078EDB2CD
S31508008D3085420DD200A970782818C0B201F0F1F862
S31508008D400822414600A8F8F767F90028EDD12F4612
S31508008D50B0780146874201BF491C3078C9B28142C2
S31508008D6008BF0021B1707078C7194146F8B201F002
S31508008D706BF818B92146F8B201F0A7F8BDE8F381F7
S31508008D80C87F002073656375726974792D616464A0
S31508008D90726573732D63616368652E630000000056
S31508008DA0DFF8D43433F810001040C840704730B5A7
S31508008DB0DFF8C8340FF2745434F810409C60DFF8BA
S31508008DC0B84434F81050954311402943D96002221B
S31508008DD01A6000221A6024F8101058680028FCD17E
S31508008DE030BDDFF89C04DFF89C148A780AB149780C
S31508008DF00FE089566FF008029142B8BF302108DBB0
S31508008E00C16D39B140F24A31C26DB1FBF2F189B296
S31508008E10C91E01607047E0B50A237F22DFF868049F
S31508008E2000F062F84FF6FF72BDF806100D20FFF746
S31508008E30BEFF07BDF8B50546DFF84844B5F5004F4F
S31508008E4019D102237F22DFF8440400F04DF8BDF85B
S31508008E500000000AFF2814BF002818206070BDF81B
S31508008E6000000006C00E10281CBF001D00F091F976
S31508008E70BDF80000C543E07808B1002005E0A089E8
S31508008E80ADB26840C00701D50120E070A58105F0A4
S31508008E900106C5F34007DFF8F803016841F400410D
S31508008EA001604FF440520FF2A84000EB46004078AC
S31508008EB0010389B20220FFF77AFF30460CF0E8FF7B
S31508008EC04022B90100F0FCF92D06A80E00F00100B9
S31508008ED03843A070FFF785FFE07818B1FFF79BFFCE
S31508008EE00020E0700020F2BD018800A800F0E6BA74
S31508008EF02DE9F04F87B0DFF89C53287804900B389B
S31508008F00C0B203900423039A0B2100A803F031FF93
S31508008F109DF800008DF80A009DF801008DF80900FB
S31508008F209DF802008DF808009DF803008DF80500ED
S31508008F30D94E3078012804D16878471EBF41FF0F03
S31508008F4000E0012702F02EFD80469DF90200A8F1F7
S31508008F500A0408F10A0A5045B6BF84424FF0010BCD
S31508008F604FF0000B012003998840ADF806009DF8E4
S31508008F700100000604D4A888BDF80610084201D0EE
S31508008F804FF0010B0CF0FAFF9DF8030000060AD417
S31508008F90E888BDF80610084205D19DF9000050453D
S31508008FA0B8BF844202DB4FF0010901E04FF0000927
S31508008FB04BEA070059EA000000F09B80B7480068B2
S31508008FC000F002008DF80400DFF8D4A2DAF80000F9
S31508008FD000F4E0600590B3484FF4E06101600020BA
S31508008FE004F030FB03F05EFCAF4CA7B1687850B1D3
S31508008FF0AA48006840084000A84908600120307067
S31508009000FBF741F807E0206840F40050206020682C
S3150800901020F480502060307801280CD1FAF7ECFE55
S315080090209E48006840F001009C49086000203070A6
S315080090306420FBF728F82FB1687818B90498C0B2ED
S315080090400CF0D5FF687838B1206820F4805020608D
S31508009050206840F400502060BDF80600C643BBF106
S31508009060000F08D00DF0B0F88DF801008DF80280D9
S31508009070A8883040A880B9F1000F08D00DF04BF948
S315080090808DF803008DF80080E8883040E8809DF967
S3150800909000009DF90A10884202BF9DF801009DF85C
S315080090A0091088420BD19DF902009DF908108842E3
S315080090B002BF9DF803009DF80510884206D00423D8
S315080090C000AA0399C9B20B2003F065FE0598CAF8F1
S315080090D0000002F035FA9DF8040004F0B3FA03F034
S315080090E0E8FE687828B148F2607020606420FAF7D4
S315080090F0CAFF9DF801000CF0D1FF9DF803000DF0A2
S3150800910005F907B0BDE8F08F80B502F047FCBDE869
S315080091100140EDE602F042BC70B50646A6F10B0426
S3150800912004F0F3F90546A6F10B00C0B2102801D3E6
S315080091308A2070BD5D488168090702D40068C007A7
S3150800914001D58C2070BD5348067059490A680C2A07
S315080091500ED0A4B20FF26C1232F8242090F908004F
S315080091608018C861FFF7C4FE012D08BF04F071F925
S31508009170002070BD10B5044602F010FC2046BDE87C
S315080091801040C9E74348007870473E4890F9000008
S3150800919070472DE9F04186B006466FF02A008642F0
S315080091A046DB14237F224348FFF79EFEBDF81000D6
S315080091B04FF6FF71884203D0400448BF012506D404
S315080091C03F2200211020FFF7EBFD044600252D481D
S315080091D0394906F12B02D2B22F2A1AD213220FF2DC
S315080091E0241300E0521ED2B213F91270BE42F9DB04
S315080091F003EB420676780E6013F812100170002011
S31508009200002680460327ADB14FF6BF72BDF8101091
S3150800921029E0092E0CDA325C0A60067014237F22D4
S315080092202648FFF761FE03200126B0462827EAE70D
S315080092308B201DE04FF46052C10200F041F84FF454
S31508009240E062310200F03CF880224FEAC81100F0D3
S3150800925037F884F020003C18A4B2402C28BF3F24DD
S315080092603F2284F0200100F02BF8FFF7BAFD00201A
S3150800927006B0BDE8F0810000747C0020E8100040CC
S315080092806410004040760020DC1A0208E81A02083A
S315080092901C10004036760020097700208020004008
S315080092A000E100E080E100E0D010004060200040CE
S315080092B0AC100040D81A0208C0100040DA1A02089A
S315080092C00B2074E5AA21290055232900002528002A
S315080092D0AA26270055282700002A2600AA2B26009A
S315080092E0552D2500002F2400AA30240055322300CE
S315080092F000342200AA352200553721000039200003
S31508009300AA3A2000D500E601EC02EF03F204F405C0
S31508009310F506F707F808F909FA0AFB0BFC0DFD0F25
S31508009320FE11FF1300160119021C031F100011007D
S3150800933020003000400041005000600070008000AE
S315080093409000A000B000C000D000E000F0000000CF
S315080093500000010380B50120F8F7C8FA1D4800216E
S31508009360017001200DF0A5F8BDE80140F8F7C7BA6D
S3150800937080B50120FBF7B4F80FF21010FBF74DF893
S315080093801549087001BD80B5FBF7BCF8012805D062
S3150800939011480078BDE80240FBF72BB801BD70B54F
S315080093A000240E4D00E0641CE3B22E88B3420ED2B0
S315080093B0E4B20C2303FB045313F8046F864201BF7F
S315080093C05E888E421E799642EDD1184670BD002001
S315080093D070BD0000D8770020B27F0020D86F00202B
S315080093E080B519B9FAF774FF002002BD43F6FF737A
S315080093F0994203D289B2FAF776FFF5E70A0A9A4242
S3150800940003D291B2FAF776FFEEE74FF47042B1FB5A
S31508009410F2F1994203D289B2FAF77DFFE4E7022016
S3150800942002BD2DE9F04106469846069D079CFFF7C2
S31508009430B6FF07000BD03046F9F7E5FD38B14146CF
S31508009440B868FFF7CDFF10B97D71BC7100E0022046
S31508009450BDE8F0811CB5049C0194009313460022D4
S31508009460FFF7DFFF16BD80B500230093FFF7F2FF75
S3150800947002BD80B5FFF793FF20B180680021017017
S31508009480002002BD022002BD0022F2E7307B002048
S3150800949057660008D8770020559300089C78002066
S315080094A0916800089879002095A00108107A002094
S315080094B0AD780008000000000000000030B583B059
S315080094C0044610467F2808BF0020B1F5004F1AD180
S315080094D008237F2240F6120100A8FFF7EFFF0822B3
S315080094E00FF2C40100A8F7F797FD30B908237F22C9
S315080094F040F2A27100A8FFF7E1FF082200A9204662
S31508009500F7F740FD37BD1A461F4D294300FB0311E7
S315080095102046F7F737FD37BD2DE9FC440C461546BE
S31508009520194941EA00060FF2740AC00702D56221FA
S3150800953000F030F8E80702D5632100F02BF813484D
S31508009540864204D3A819401E1149884202D36421D1
S3150800955000F020F8002706E0B85DFF2802D06B214E
S3150800956000F018F87F1CAF42F6D36A082146304649
S315080095700DF07DF828B171215046BDE8FC44FEF790
S3150800958011BEBDE8F38400000000080800080808BA
S31508009590001008085046FEF705BE00006D66672DE8
S315080095A0746F6B656E2E6300FFFFFFFFFFFFFFFF03
S315080095B02DE9FC4F89B005468846ADF804800020A1
S315080095C002900998C6884FF000090027F9F74DFA66
S315080095D0149CDDF854A0BAF1000F0AD1F00608D59C
S315080095E000949DF82830099A414628460DF084F8DB
S315080095F002E1700548BF4FF48059300548BF49F469
S315080096000069B00548BF49F0800903D4F00548BF92
S3150800961049F04009C346072D67D8DFE805F0052B52
S31508009620163A3A04053A02279DF828000090029B4C
S31508009630BDF8042049F40271204607F093FD8146DF
S31508009640B9F1FF0F53D11820D6E005A95FFA88F0C3
S31508009650FBF770F808220DF1190103A8F7F792FC39
S3150800966003A80290DFF88007006830F81B00ADF801
S315080096700400D9E703A95FFA88F000F052FC03A8B2
S3150800968002900C20DFF86417096800FB0B100088AD
S31508009690EDE7BDF804004FF6F871884225D309981E
S315080096A0C0884FF4026108421FD1DFF844070068FA
S315080096B0407B022818BF912018D1FF2C0ED000F04D
S315080096C0C7FA032D0CBF01210021401ADFF8241721
S315080096D00968615C8842B8BF742007DB032D0CBF9C
S315080096E00C27082729F4C0799EE7012084E0DFF8D3
S315080096F0080740884FF6FF71884214D0484607F09D
S31508009700A9FB8346DFF8F00641880BF1040001F057
S3150800971044F8DFF8E40600788BF80700DFF8D80687
S315080097204FF6FF714180099A3946484607F0D1FE3F
S3150800973008B918275CE0DFF8B8060068C07E48B1AB
S31508009740B00607D50123029A002148460AF0E0FE32
S3150800975007004DD1FF2C15D0484607F070FBDFF8FF
S3150800976090160968C97E01B11221DFF888261268A9
S315080097707430A35C19F80220D21889188842B8BF39
S31508009780742735DBB00407D5484607F06DFB40F46F
S315080097908061484607F06AFB062D12BF072D48462A
S315080097A007F071FBBAF1000F08D0BDF8041048465F
S315080097B007F083FB8AF8009000201DE0E81E0228C7
S315080097C001D9001F07D1484604F076FC00280CBFD3
S315080097D0A12700270CE0B00444BF4FF6BF7006402F
S315080097E033465FFA88F22946484604F003F80746E6
S315080097F0484600F091FD38460BB0BDE8F08FF0B54D
S3150800980087B004460E46174618460C9900F007FE20
S315080098100546FF2D21D0FF208DF810008DF8110088
S31508009820ADF80E704CF20E00ADF80C00ADF81260F3
S315080098300020ADF8140002A801900095FF2303AAA2
S3150800984021460020FFF7B4FE0446284600F064FDD2
S31508009850002C0CBF9DF80800FF2007B0F0BD2DE9CD
S31508009860FC4104460D4616461F46DFF88405006887
S31508009870407B022818BF912019D1FF2F09D000F08C
S31508009880E7F9DFF870150968795C884238BF7420F3
S315080098900DD374B94FF6F870854227D2002001908F
S315080098A00097FF23324629462046FFF781FEBDE88A
S315080098B0F6814FF6FE78022C0CD1DFF840050078C9
S315080098C0854213D2DFF82005006830F815004045B8
S315080098D0E4D30BE0012C09D1DFF824050078854292
S315080098E004D2E8B200F02BFB4045D7D30120DEE7CF
S315080098F01CB500240194009313460A460146042029
S3150800990010E01CB5DFF8FC241278002A14BF4FF6C5
S31508009910FF744FF6FD740022019200930B4602462F
S3150800992021460320FFF744FE16BD10B5DFF8D8041C
S3150800993000F0A2FF0446FF2C0DD0214604200DF0AE
S3150800994044F818B10121204600F006F82046BDE883
S31508009950104000F0E1BC10BD2DE9FE4F82460D46D1
S3150800996007F078FA0646B01C00F011FF8346504609
S3150800997007F09AFC0146504600F061FE804608F062
S315080099800309504607F07AFAFCF762FDDFF87C44D3
S31508009990301D00F0FCFE2080DFF87474FEF75BFBD8
S315080099A0834512D04FF6F87083450ED27078C007FB
S315080099B00BD4584606F04EFC002869D001235246BF
S315080099C05946208800F08AF962E000A9504607F057
S315080099D0FAFC00A83860304607F085FCDFF8341436
S315080099E008600321504607F024FADFF82C140870A3
S315080099F00421504607F01DFADFF8201408704DB30D
S31508009A009DF80600800625D5DFF8E453FEF723FB0C
S31508009A1040B12868007D800704D4B9F1010F08BF5A
S31508009A20102000D0002040F00803002200215046F4
S31508009A300AF06EFD70B108F00300012802BF28681D
S31508009A40407B112839D109F04EFFB0BBAF20FBF798
S31508009A5006F832E018F0030003D0022805D009D32F
S31508009A6016E0504600F02DF812E05146404603F045
S31508009A70F0FE0DE0FEF7EFFA2188814208D0514644
S31508009A8005200CF0A2FF18B121885046FDF767F8AB
S31508009A90FEF7E1FA218881420DD1504607F004FC11
S31508009AA00146504600F0CBFD0C21084203D10021A7
S31508009AB0504604F0E8F800203860FCF7CAFCBDE818
S31508009AC0F78F2DE9F84F804607F0C4F9054695F853
S31508009AD001B0A81C00F05BFE4FF6F8718842B6414B
S31508009AE0F643F60FFEF7B7FADFF82093B9F8001039
S31508009AF081420CBF01240024DFF814733868B0F8DB
S31508009B0002A00BF0010050EA060B14BF062008203D
S31508009B100021FCF7E8FC38680188002904BF407971
S31508009B2000282CD1B9F80000BAF5004F04DB5246DC
S31508009B30414605F064FE22E0B94902220A7033461E
S31508009B400022414605F0D2FC38688079400603D5E4
S31508009B50FF21504600F085F8BAF1130F0FD0386888
S31508009B60C08840040BD4AE480078AE490978CA07C5
S31508009B7001D5022803D089075CD501285AD138684F
S31508009B8000884CF20E0188421AD144F20106B24509
S31508009B9018BFBAF5804F10D1404607F008FC0146B9
S31508009BA0B2450CBF01200020491EC9B200912B46C0
S31508009BB042460121FBF7CCFA3CE040460CF06BFF2D
S31508009BC03868817901F00C010C290DD1008900F063
S31508009BD0EFFA78B3002C14BF0325022538680189EB
S31508009BE00020FAF718FE14E0017900914379002263
S31508009BF00021B9F80000FAF73BFE3968897901F0C7
S31508009C000C01082904D1002C0CBF0425052500E009
S31508009C10002585490870BBF1000F02D1BAF1380F4B
S31508009C2001D1012200E0002229464046BDE8F84F4E
S31508009C30FCF70CBBBDE8F18F10B5044600F008F838
S31508009C40610548BF0838210548BF0838C0B210BDAD
S31508009C50562067490968C97E01B144200E30C0B252
S31508009C60704770B586B005460C46694E0C223168B9
S31508009C7002A8F7F787F9306801798DF80D10417950
S31508009C808DF80C10ADF80A50C0884FF6BF71084021
S31508009C90ADF80E00002001900094FF2302AA5B484D
S31508009CA001880520FFF784FC06B070BD5F48007880
S31508009CB008B9FF2070475C480078704780B50A46A7
S31508009CC00C21084208D19079400605D5FF21508815
S31508009CD0FFF7C7FF012002BD002002BD2DE9F34FA3
S31508009CE085B090461D46404607F0DEFA01464046D6
S31508009CF000F0A5FC834603201BEA000F6ED1444FF3
S31508009D0038680490414C2088ADF80C004FF00009E3
S31508009D1000A9404607F057FB00A83860BDF81400B4
S31508009D2020809DF80500002804BFBDF80000002823
S31508009D3037D1404607F08EF8801C00F028FD4FF614
S31508009D40F87188426AEB0A0A6FEA0A004FEAD07A83
S31508009D50002D14BF022501250126F6B2B54236D3D9
S31508009D60534632464146BDF8140005F0BFFB81460E
S31508009D70B9F1010F04BF022D012E10D11E48BDF8FE
S31508009D80181041801A480068417E491C4176A1F1A5
S31508009D9080001949087000A95846FFF78FFF761CFE
S31508009DA0DBE7BDF800004CF20E01884204BFBDF89F
S31508009DB0020001280BD145B14146BDF818000CF048
S31508009DC06CFE00A95846FFF779FF4FF00109049881
S31508009DD03860BDF80C002080484600E0002007B037
S31508009DE0BDE8F08F00000000BC740020CC74002091
S31508009DF0B47C00206874002094760020C07400208B
S31508009E00C8740020C07F0020A4760020BE7C0020F5
S31508009E10C07C0020C47C0020D77F0020D87F00208B
S31508009E20D47F0020BD7F0020D37F0020BC7C00208B
S31508009E30DFF8C40300780C2101FB00F2FF21DFF8EC
S31508009E40BC030068F7F7E1B870B505460C46DFF8BD
S31508009E50A8030078854201D36A2070BD284604F01D
S31508009E6094F808B1762070BD2046FEF7A8F84FF69C
S31508009E70FF71884208BF4FF6FD700C214D43DFF88D
S31508009E807C6331686852204600F060F900B1012011
S31508009E90316869188872FCF7D7FA042804D32B218D
S31508009EA00FF27C30FEF77EF9FCF7CEFA31686918B6
S31508009EB08A7A42EA400088720822214630682818C1
S31508009EC0801CF7F75FF8002070BDCB4A12789042E5
S31508009ED000D3704738B50C2202FB00F4C74D2A6838
S31508009EE0A1524FF6FF72914208BF04F050F8FCF7F2
S31508009EF0ABFAC3490978884204D345210FF22030CA
S31508009F00FEF750F928682018817A01F0F10181726C
S31508009F10FCF79AFA296861188A7A42EA4000887238
S31508009F2031BD10B50B4608220C21B44C246801FB40
S31508009F300040811C1846BDE81040F7F723B80C21ED
S31508009F40AE4A126801FB002000887047F8B507463C
S31508009F500C46A94DA94E00E00C3728780C2132682A
S31508009F6001FB0020874214D238884FF6FF718842D9
S31508009F70F2D008222146B81CF7F74EF80028EBD194
S31508009F80FCF762FAB97AC1F342018142E4D1384654
S31508009F90F2BD0020F2BDF8B50446FAF737FB0025F6
S31508009FA096480768944E0EE03888A04209D1FCF717
S31508009FB04BFAB97AC1F34201814204BF4FF6FD70EC
S31508009FC038806D1C0C373078EDB28542ECD3F1BD84
S31508009FD070B504460D462846FFF7DDFF294620469C
S31508009FE0FAF737FB21468548006805E0358003F017
S31508009FF0F0FB214606F10C00FFF7A8FF0600F5D195
S3150800A00070BD7FB5044608227E49F7F705F810B9F2
S3150800A010FEF721F834E07C4D08222868011D204609
S3150800A020F6F7FAFF10B92868408829E04FF6FF7559
S3150800A030002000900023012221462846FAF718FC42
S3150800A0404FF6FC76FF2805D07049096831F81000EC
S3150800A050B04215D301A8FCF742FD50B9BDF804007B
S3150800A060400606D5082221460DF10600F6F7D4FF6C
S3150800A07030B100F085F810B10088B04200D3284608
S3150800A08004B070BD2DE9FF4104468846FDF7E3FF9D
S3150800A090844202D108225B493EE05B4E3068418823
S3150800A0A08C4209D100220821001DF8F790FC18B946
S3150800A0B008223068011D2FE00020009000230122AD
S3150800A0C001462046FAF7D4FBFF280AD000A9FAF77A
S3150800A0D031FB30B908220DF105014046F6F752FF6B
S3150800A0E01DE0002645480568434F01E0761C0C35FF
S3150800A0F03878F6B2864214D228884FF6FC71884220
S3150800A100F4D2A042F2D1FCF79FF9A97AC1F3420131
S3150800A1108142EBD10822A91C4046F6F733FF0120FD
S3150800A12000E0002004B0BDE8F08110B50446002028
S3150800A13005F073FFFF2806D03549096811F81000A5
S3150800A14000F0040010BD04F0010010BD38B5044647
S3150800A150002500F015F808B1857A0CE00090002378
S3150800A160012221464FF6FF70FAF782FBFF2802D03C
S3150800A17028490968455C21462846BDE83440D4E7A5
S3150800A18021461E480068E1E638B504460D0018BFAA
S3150800A19001252946FAF7A0FA21461848006802E080
S3150800A1A0857221460C30FFF7D1FE0028F8D131BD63
S3150800A1B02DE9F041804641460020FAF72CFBFF289E
S3150800A1C015D1002514480668144F01E06D1C361D8C
S3150800A1D03878EDB285420CD230884045F6D1F4780D
S3150800A1E0FCF732F98442F1D1B0780028EED001208C
S3150800A1F000E00020BDE8F081C8740020CC7400207F
S3150800A200AC740020C87C0020B47C0020BC740020FC
S3150800A21084740020C4740020A0740020A474002054
S3150800A220616464726573732D7461626C652E630074
S3150800A230DFF8B816096801EB40107047DFF8B0265A
S3150800A2401268815470472DE9F041040032D0F7F7BF
S3150800A250B3F9DFF8A016DFF8A056DFF8A026FF232B
S3150800A2601678FE2E1DD100261670DFF8946637780C
S3150800A2702F700027DFF88CC609E007F1010E07F8F2
S3150800A28008E0DCF8008007F808305FFA8EF796F8E1
S3150800A29000E0D1F800807745EFDB0EEB080606F8FC
S3150800A2A0013C2E78A64207D2F7F78CF900211B202D
S3150800A2B0FCF719F9FF201FE0361B2E701578DFF81A
S3150800A2C048761678D7F800C04FF0010E06F80CE06D
S3150800A2D0D1F800C016F80CE082F800E0641EE4B27B
S3150800A2E0002CEED106F80C30DFF8041609680022B7
S3150800A2F06A54F7F767F92846BDE8F08110B50446B1
S3150800A300F7F75AF9DFF800160968625C521C6254BE
S3150800A310BDE81040F7F756B92DE9F041044600F0BC
S3150800A32032F80546F7F748F9DFF8D025DFF8C835DB
S3150800A330DFF8C065DFF8D08511E03168615C002779
S3150800A34004F80E701F787F1C1F70D6F800E0177887
S3150800A35004F80E701470FF2904D12C46FF25FF2C33
S3150800A36001D10CE00C46D8F80010675C7F1E6754D4
S3150800A370D8F800E014F80E107F273942DDD0BDE882
S3150800A380F041F7F71FB980B5DFF87C150968415C1D
S3150800A390090603D5FFF74CFF007802BDFF2002BD72
S3150800A3A0BCB504460D46FFF7EEFFFF2818BFFFF7BA
S3150800A3B0B3FFDFF85475FF2D04D13868215C01F02E
S3150800A3C07F0106E02846FFF799FF3868215C41F0CF
S3150800A3D0800121542046FFF72BFF0570B3BD0EB44C
S3150800A3E030B504460120FFF72EFF0546FFF720FF8C
S3150800A3F0FF2D08BFFF200FD0DFF8F41409686C544E
S3150800A40003A9002204E051F8043B00F8013B521C62
S3150800A410D3B2A342F7D3284630BC5DF810FB70B51B
S3150800A42082B004460D4605F11F0000F032F90646D3
S3150800A430FF2E0DD0DFF8B804006835543CB1012072
S3150800A44000902B4600223146204600F002F830469E
S3150800A45076BDF2B582B0054616461F46089C0846E4
S3150800A460DFF88C140968405CB919884203DA4FF49E
S3150800A470B07100F0D4F85FB1314602A800F0D3F805
S3150800A48000943B4602469DF80810284600F001F85D
S3150800A490F7BD2DE9F8430546894616461F46DFF8F7
S3150800A4A05484089C0BE04A5D0A54491CB142FADB05
S3150800A4B0BF1B7519D8F8000019F800900026FFB2DE
S3150800A4C0BFB14846FFF7B4FE3018F1192029B2BFCC
S3150800A4D03E46C6F12006F6B2324624B9014628465B
S3150800A4E0F6F750FDE4E7012C08BF2946F8D000210D
S3150800A4F0DCE7BDE8F1832DE9F04182B004468846E1
S3150800A50016001F46DFF8E8030068255C0ED07119AF
S3150800A510C9B2204600F04FF808B1182007E00097A6
S3150800A52033462A4621464046FFF793FF0020BDE8FA
S3150800A530F6810123DFE70A4600E0521C1378002B58
S3150800A540FBD10223521AD2B2D5E7F8B5044601F177
S3150800A5501F00C5042D0E02F11F00C004000E05B928
S3150800A560012500B90120854223D0DFF8886385429A
S3150800A57010DA401BC0B2FFF766FE0746FF2F01D16F
S3150800A5800020F2BD691EC9B2204600F026F83168DF
S3150800A59047540EE08A420CD2411EC9B2204600F04A
S3150800A5A01CF804463068205CFFF7B6FE3068FF21C9
S3150800A5B021540120F2BD70B504460D46DFF830631C
S3150800A5C02A463068215C2046FFF7BFFF18B130687D
S3150800A5D02554002070BD182070BD04E0491EDFF820
S3150800A5E014231268805CC9B20029F7D1704711B5E7
S3150800A5F081B00C46DFF8F8120968405C844203D340
S3150800A6004FF4F47100F00BF8214601A800F00BF89E
S3150800A61004469DF80400FFF70BFE201816BD0FF23E
S3150800A620FC20FDF7BFBD38B504460D46E904090E02
S3150800A6302078FFF7D2FF207005F01F0032BD80B5E5
S3150800A640FFF7D5FF007802BD10B51446FFF7CFFF18
S3150800A650047010BDF0B583B00446DFF8945228683C
S3150800A660265CFF2C03D14FF40271FFF7D8FF06F1E1
S3150800A6701F0000F00EF80746FF2F09D028683E5441
S3150800A6800096002322460021384600F0AEF83846E8
S3150800A690FEBD0004400DC0B2D5E5F8B504460D462A
S3150800A6A016460120FFF7CFFD0746FFF7C1FDFF2F2E
S3150800A6B001D1FF20F2BD33462A462021201800F09A
S3150800A6C00EF88B490968201878543846F2BD0CB440
S3150800A6D080B502AAFFF7E1FF02BC5DF80CFB2DE985
S3150800A6E0F047804616469946C24600250C460AE0BB
S3150800A6F03A465046F6F746FCBA44E819401EC5B233
S3150800A700681CC5B2761CA5423CDA3078002839D0D8
S3150800A710312818BF32280ED159F8041B0AF8011B34
S3150800A7203228EDD1681CC5B2AC42A4BF08120AF89B
S3150800A730010BE5DA26E0342811D159F8040B291D56
S3150800A7408C421FDB0AF8010B010A0AF8011B010CEF
S3150800A7500AF8011B000E0AF8010BE81CCFE759F8A6
S3150800A760041BA0F13302072A38BF303806D3A0F1FC
S3150800A7704102072A34BF373859F8040BC7B278198B
S3150800A780A042B5DBAAEB0800C0B2BDE8F087417865
S3150800A790007800EB012080B270470170090A417009
S3150800A7A0704770B500F016F800F005F8007800EB71
S3150800A7B0062080B270BD06782946204617E700B500
S3150800A7C083B08DF80420120A8DF805200122009224
S3150800A7D0022304E004460D46691CC9B207E70A4687
S3150800A7E0014601A8FFF735FE07BD2DE9F5411F46CD
S3150800A7F0089CA4B24CB3254689B200A8FFF713FFFC
S3150800A8000646B9B201A8FFF70EFF07463046B8421A
S3150800A81038BF3846C0F12000C0B2A842B8BF0546C6
S3150800A8209DF80400FFF704FD80469DF80000FFF739
S3150800A830FFFC2A4607EB08013018F6F7A3FB641B52
S3150800A840A919EF19A4B2002CD5D1BDE8F38170B5CA
S3150800A85004460D46F6F7B0FE2A4A12682378FF2BFF
S3150800A86008BFAD5403D09B181E78AE541D702570D2
S3150800A870BDE87040F6F7A6BE38B50446F6F79CFE66
S3150800A8802178FF22FF2908BFFF2507D01D4B1B682B
S3150800A890CD5C8D420EBF2270EA5CCA54F6F792FE72
S3150800A8A0284632BDF8B504460E460025F6F784FE5E
S3150800A8B02178FF2915D00A460125124B1B6802E0AC
S3150800A8C03A466D1CEDB2D75CB74208D1FF5CD75447
S3150800A8D0B14206D18A4208BFFF22227001E08F42A8
S3150800A8E0EED1F6F76FFE2846F2BD0000647400202C
S3150800A8F06874002070740020617400208C76002033
S3150800A90060740020747400206C7400200078FF289E
S3150800A91001D1012070470020704700007061636B09
S3150800A92065742D6275666665722E630062B38B0761
S3150800A93008D0521E11F8013B00F8013B00F02480B4
S3150800A9408B07F6D1830740F0208000BF103A07D363
S3150800A95030B4B1E83810103AA0E83810F9D230BC53
S3150800A960530724BFB1E80810A0E8081044BF51F8FF
S3150800A970043B40F8043BD20724BF31F8022B20F8E9
S3150800A980022B44BF0B7803707047083A07D3B1E827
S3150800A9900810083A40F8043B40F804CBF7D25307AE
S3150800A9A0E4E7000070B504460D460126022000F0D3
S3150800A9B056F958B11022FF21BE484068F6F725FB24
S3150800A9C02A462146002000F077F90646304670BD33
S3150800A9D070B5FF2400260020B64D6968425CA4F1D4
S3150800A9E019039A42BCBF02F11904E4B2401C1028AC
S3150800A9F0F4DB0020425CA242BCBF761CF6B2401CC7
S3150800AA001028F7DB300003D10120BDE8704043E190
S3150800AA1008F09CF990FBF6F106FB1101C9B200207B
S3150800AA206A68825CA24206DA0A0002D10B306870B4
S3150800AA3004E0491EC9B2401C1028F1DBBDE870408D
S3150800AA4010B5002408F082F94FF6FF718842F9D054
S3150800AA5098494A6822F81400641C102CF2D3032083
S3150800AA60087003220120497800FA01F1BDE8104078
S3150800AA7022E138B504460D46012000F0F0F808B981
S3150800AA80702032BD8B480A214170846075B100215F
S3150800AA904A5D3AB100218170082229460C30F6F742
S3150800AAA071FA05E0491CC9B20829F1D30121817060
S3150800AAB0BDE8314010B57F4C2078012807D07020BA
S3150800AAC0F7F71FFA702010BDE0780CF003F8E0786D
S3150800AAD0A0B1401EE070C0B20BF0E4FF01884FF64B
S3150800AAE0FF729142F0D090F90F20817BF7F7FAF9BF
S3150800AAF0E0780BF0EFFF0BF0DBFF12E06078401C0C
S3150800AB00607060781B2809D201218140A268114231
S3150800AB10F5D00420207003220120A7E7AB2000F01F
S3150800AB20BBF8002010BD10B50C4600F091F820B116
S3150800AB306048017802290BD00CB1002010BD02290B
S3150800AB4006D024D304291ED005D305291BD01EE020
S3150800AB50FFF73EFF1BE0002243684FF6FF7433F809
S3150800AB601210A14208D0417833F81200F7F7ADF970
S3150800AB70002000F091F80AE0521CD2B2102AEED357
S3150800AB80FFF75EFF03E001210170FFF793FF012045
S3150800AB9010BD2DE9FC4104460E469046454D2878E1
S3150800ABA0032802D004280FD042E00020696831F853
S3150800ABB0102023889A4204BF4FF6FF7221F810200E
S3150800ABC0401C1028F2DB33E0E07888B3277B0BF0D3
S3150800ABD067FF87422CD1A87830B90822211D05F1D4
S3150800ABE00C00F6F719FA18BB002709E038460BF0EF
S3150800ABF059FF0822211D001DF6F70EFAC0B17F1C69
S3150800AC00E878FFB28742F1D3401CC0B20BF062FF6E
S3150800AC1070B9E8780BF046FF0746E878401CE870FC
S3150800AC200E2221463846F6F7ADF9BE7387F80F802F
S3150800AC30BDE8F3410CE038B504460D4600F008F8C7
S3150800AC4028B11C484068201800F80B5C012032BD6A
S3150800AC501848017802298041C043C00F704738B5AB
S3150800AC600446FFF7F5FF18B13D20F7F74AF90FE05C
S3150800AC700BF01EFF002000F00FF80E4D0020E870C4
S3150800AC802C700BF019FF686020B9182000F004F842
S3150800AC90002032BD012032BD10B50446054800210A
S3150800ACA001700BF021FF24B12046BDE81040F7F7EC
S3150800ACB028B910BD8079002010B505F0F7FD04000D
S3150800ACC018BFFFF7E9FF204610BD000010B522485F
S3150800ACD000210170214CF7F730FB20805222002119
S3150800ACE01F48F6F792F9002060800C220021201DEB
S3150800ACF0BDE81040F6F789B918494A88522A03D29E
S3150800AD00174BD054501C4880704710B50446C0B243
S3150800AD10FFF7F2FF200AFFE7BDE81040ECE730B581
S3150800AD2000241D465B189A4208DA002030BD6A18CE
S3150800AD30121812F8012C02EB04246D1EEDB2002D38
S3150800AD40F5D1204630BD0423E9E780B50223FFF795
S3150800AD50E6FF80B202BD000016760020A479002026
S3150800AD60B47900200078FF2808BF0020704780B516
S3150800AD7002220021FFF7E9FF4FF6FF71884208BF5C
S3150800AD80002002BD0020704700207047B52070479C
S3150800AD90B520704770477047002070477047704766
S3150800ADA07047704770470020704780B543210FF2FF
S3150800ADB01000FDF7F7F9FF2002BD002070470000DC
S3150800ADC072663463652D737461636B2D7374756273
S3150800ADD0732E6300F8B504460D46DFF8CC030078F9
S3150800ADE0002802BFDFF8C4633069002827D1DFF8DE
S3150800ADF0C00300780A2818BF022D20D1F6F7DCFB1D
S3150800AE000746F278082A18D2012D02D19019047241
S3150800AE1006E006F1080106F10900F6F7B3F8347200
S3150800AE20F078401CF0703846F6F7CCFB2046FFF762
S3150800AE3065FA08F053F90120F2BDF6F7C3FB0020C6
S3150800AE40F2BD80B5FBF742FBDFF86003017929B94B
S3150800AE5001210171BDE8014008F040B901BDDFF8E4
S3150800AE604C0300210171704738B5DFF83C030078C0
S3150800AE70002839D1F6F7A0FB0546DFF83043E0781D
S3150800AE8070B1217A6170421EE270D2B204F10901F2
S3150800AE9004F10800F6F776F82846F6F793FB21E062
S3150800AEA02846F6F78FFB2069F0B92079022802D0E8
S3150800AEB00BF06CFE60706078FF2810D1207998B18D
S3150800AEC0FBF705FBFBF7C4FA07F0B1FB6070FF2838
S3150800AED003D0FBF7FEFA00B92071FBF7BAFA6078DF
S3150800AEE0FF2801D0012032BD002032BD2DE9F041F6
S3150800AEF004460D4606F031FEAC4E00203071F6F7DA
S3150800AF005BFB8046306920B14046F6F75BFB0020C4
S3150800AF1013E0A8480078052808BF08F0E4F900F00F
S3150800AF200EF8070008BF34614046F6F74BFB1FB121
S3150800AF3005B1A047012000E00220BDE8F08110B568
S3150800AF40F6F73AFB9949CA789A4B1B781A43097956
S3150800AF50114305D1984909784C1EA441E40F00E035
S3150800AF600024F6F72FFB204610BD10B591480021A6
S3150800AF7001708E4CFF206070216107F0E7FE20709B
S3150800AF808D48002101708D48017014218C48F9F70D
S3150800AF90B1F9BDE8104006F07DBC2DE9F041044644
S3150800AFA0DFF81482834E874F804D6878FF2808D1D2
S3150800AFB03878FE2817D04FF4B3710FF21420FDF736
S3150800AFC0F1F83878811F01290DD8052131702146FD
S3150800AFD005F01DFE08B900F013F86878FFF79CF92C
S3150800AFE0FF20687002E0AC7000F00AF83878042890
S3150800AFF004D02879012804BF02202871BDE8F08111
S3150800B000032030704046F9F763B910B5674C61788C
S3150800B01081420DD10846FFF77FF9F6F7CDFAFF21F1
S3150800B02061706849FE220A70BDE81040F6F7CABA90
S3150800B03010BD38B504465D4DA97806F015FD28B94A
S3150800B040A9782046BDE8344003F0A6BE31BD2DE9F7
S3150800B050F8430446FF2C05D140F2B7110FF27010E1
S3150800B060FDF7A0F8584D204605F003FF00F00C0048
S3150800B0702870FF206870204605F0FBFE00F00C00E3
S3150800B08008285FD028780C285CD1204605F0E2FE17
S3150800B0900746FFF77CFB804608F44C46384605F021
S3150800B0A020FFC05D68704FF6FF794FF4406018EADC
S3150800B0B0000F06D0F81CFFF76AFB484508BF46F0A4
S3150800B0C0400608F44060B0F5006F06D1781DFFF71A
S3150800B0D05EFB484508BF46F010064CF650006978F6
S3150800B0E0012918D0022919D0042908D0062927D001
S3150800B0F0072927D008291AD07C2912D051E0B0B2E6
S3150800B100B0F5484F18BFB6F5084F4AD1204606F0A5
S3150800B11034FC002812E0B6F5484F0FE0B6F54C4F60
S3150800B1200CE0B1B2B1F54C4F0CD0864206E04CF6B5
S3150800B1304040864235D11E480078052831D101E0C5
S3150800B14086422ED1204605F08FFE0646204605F09B
S3150800B15090FE00F00C00082816D0B00614D54FF65D
S3150800B160DF7000EA0601204605F080FE204605F05D
S3150800B17066FE0646204605F06DFE05F0B2FE81190C
S3150800B180C9B22046FFF717FA2146281DFFF75FFBCD
S3150800B1902046FFF7B3F80D480078BDE8F243F9F703
S3150800B1A098B9BDE8F1830000FD7600203C770020C1
S3150800B1B0B4760020707E0020747E0020BC760020C5
S3150800B1C0847F00200777002050770020D57F002055
S3150800B1D06D61632D617262697465722E6300000089
S3150800B1E07047B5207047401CC0B2704701207047B1
S3150800B1F0002070477047002070470020704770474E
S3150800B200012070470120704770470000C848002198
S3150800B21001714FF6FF718181704730B583B00446DE
S3150800B2200D460823092200A90120FCF727FA14B1C4
S3150800B2309DF8060020700DB100982860BDF804003E
S3150800B2403EBD80B5002100A8FFF7E7FF9DF8000086
S3150800B25002BD10B582B0044600A90020FFF7DDFF45
S3150800B260009A0146204600F002F8204616BD00B5B1
S3150800B27083B08DF80600ADF8041000920823092261
S3150800B28000A90020FCF7FAF907BD2DE9F04385B0BF
S3150800B290814606F009F80646A648006819F80050DF
S3150800B2A0002000900A233246494602A8FFF7D1F843
S3150800B2B00A369DF8080009280CBF012700279DF8C3
S3150800B2C00900E021084266D100A8FAF7D2FD082253
S3150800B2D00DF10A0100A8F5F79FFE00285BD1002FA3
S3150800B2E04CD000F011F9002855D0914FB8894FF687
S3150800B2F0FF7840451CBF4FF6FE7188424BD138781F
S3150800B300001D38708C490978491E8900C0B28142EF
S3150800B31041DA0020387007F019FDB881344607E095
S3150800B32021464846FFF73DFAB9898842F3D0A41C5E
S3150800B330E4B2681E8442F3DBB889002818BF40458A
S3150800B340E9D0FCF790FEB9898142E4D0FFF779FF8E
S3150800B350401CC0B2FFF77DFF0146BA890A2000F0FB
S3150800B3604BF840B14FF47A71381DF8F7BCFF0A2044
S3150800B370FBF764F80FE0A7F80C800CE0F1B248463A
S3150800B380FFF75DF9FFF765FF711CC9B24846FFF77D
S3150800B39008FA00F07AF805B0BDE8F0836448017849
S3150800B3A009B1491E0170704738B5614C00202071FB
S3150800B3B00A20FBF744F8FBF74BF860480068407B27
S3150800B3C0022818BF032813D1A0894FF6FF754FF638
S3150800B3D0FE7188420CBFA581A84209D0FCF747FE3A
S3150800B3E0A58100210020FAF763FC9A20FBF779F87B
S3150800B3F0BDE83140FBF72DB82DE9F04786B0054684
S3150800B4000C4691460026092D0CBF0127002700216E
S3150800B4100846FFF702FF80468DF8085002AD012066
S3150800B42068700DF10A00FAF724FD0DF1120A17B932
S3150800B430AC720DF1130A49465046FFF7AEF90AF108
S3150800B44002000FB94FF6FF780196009602A9431A33
S3150800B450DBB202AA6421404605F007FF0446FF2C2A
S3150800B4600FD03FB100F050F820B12046FFF70DFF8E
S3150800B470012603E0204602F01FFE06462046FEF798
S3150800B4804BFF304606B0BDE8F08738B504464FF6A0
S3150800B490FF75AC4216D0FCF7E6FD844212D024486C
S3150800B4A08189A9421CBF4FF6FE7291420AD1848156
S3150800B4B04FF47A71001DF8F716FF0A20BDE83240EE
S3150800B4C0FAF7BCBF31BD1D480068007B042800D3CD
S3150800B4D0704738B5164CA0894FF6FF71884212D1CD
S3150800B4E0FCF7C1FD0546F021201DF8F703FF0A20E9
S3150800B4F0FAF7A4FF4FF6FE70A0812A46002109201C
S3150800B500BDE8384078E731BD10B50C480068007BC7
S3150800B51004280AD2FCF79FFD044600210020FFF705
S3150800B5207CFE844201D1012010BD002010BD000020
S3150800B5302C77002068740020EB740020B47C00206F
S3150800B54010B5DFF8284510202063F6F735F8DFF840
S3150800B55020150A6842F001020A60F6F733F8DFF8A8
S3150800B560140560602060616889316160012121638A
S3150800B5708A30E060A060E0688930E06002202063DD
S3150800B580DFF8F4044FF6FF71016010BDDFF8EC0434
S3150800B59045F26401C1601E21416250210162C82141
S3150800B5A0C1618165F021C16545F690014166882132
S3150800B5B081660621C16644F2066101604FF6FF7195
S3150800B5C04160DFF8BC04007838B1DFF8B80448F207
S3150800B5D0607101604FF4C1514160DFF8AC04016845
S3150800B5E041F004010160DFF8A404002141707047AE
S3150800B5F02DE9F84F0446DFF898148A2202FB001258
S3150800B600121D0092521C5378127802EB03221FFA7D
S3150800B61082FB0BF440424FF000094FF0010A0BF48D
S3150800B62040630425B3F5006F08BF082503D0B3F5BA
S3150800B630406F08BF0E25130004D05FEA4B635CBF5A
S3150800B640AB1CDDB2DFF84C341B784B705FEA8B63BA
S3150800B65074D5DFF84464736E1B066FD547180098D7
S3150800B66028184FF40068B2F5404F07D106F068F97C
S3150800B6705FEA000927D005F108000EE0B2F5004F91
S3150800B68021D140780099695C01EB002080B206F070
S3150800B690E1F8FF280CD1CA46A81CC0B241080BF035
S3150800B6A00702032A0FD1002C14BF7268326815E00E
S3150800B6B0DFF8E813096831F810004FF4FE61084214
S3150800B6C018BFD146E8D10020B870F06DC00635D550
S3150800B6D0B06C002C08BF4FF4806828E08A42F2D389
S3150800B6E0002C14BF726832684B1C9A42F8D3009932
S3150800B6F0405C0428E7D1BAF1000F02D10020B870E7
S3150800B70004E00020B870B9F1000FDED0F06DC00675
S3150800B7100AD4B06C0CB94FF4806810EA080F03D04D
S3150800B720706C40F0010070640120B87006E010EA01
S3150800B730080F03D0706C400840007064BDE8F18FB4
S3150800B7402DE9FC4E0446DFF848B38A2000FB04B016
S3150800B750071DD14D002C0CBF286868684600C0B28A
S3150800B760052805D24FF4F6710FF25830FCF71AFD8A
S3150800B7705FFA86F909EB0700A0F1080630787178B8
S3150800B78001EB00201FFA80FA9BF801003070FAF7E7
S3150800B7905DFE7070C24EF06B20F48050F063686EE8
S3150800B7A0D4B9306840051CD41AF4E45F0FD101F00F
S3150800B7B046FF10B15FEA4A4009D53878802806D294
S3150800B7C004EB0B008278494638460AF0FDF9002C4E
S3150800B7D00CBF0120022020E0012CE5D130680005CD
S3150800B7E0E2D5B048017881B100210170AE48016800
S3150800B7F01AF4E45F02D00022402004E078780009B9
S3150800B80000F001028F200BF0DAFA002C0CBF4FF47F
S3150800B81080604FF400603060D9E72861BDE8F38E98
S3150800B8202DE9F047944C2068216C01EA00059E4EEC
S3150800B830994FDFF87882DFF86C92DFF854A219E0A6
S3150800B84038B14878C00604D4002231688F200BF03E
S3150800B850B6FA280605D50BF0FDFA25F080058020F6
S3150800B8602060E80506D50BF0F5FA25F480754FF447
S3150800B87080702060002D5CD0280706D50020FFF7D1
S3150800B880B7FE25F0080508202060E80606D5012041
S3150800B890FFF7AEFE25F010051020206005F06000C9
S3150800B8A0602803D1B86CC0050AD401E0A80605D5FE
S3150800B8B025F0200520202060002006E0680606D531
S3150800B8C025F04005402020600120FFF739FFE804F5
S3150800B8D004D525F480554FF480502060E807B8D584
S3150800B8E06D086D00012020609AF800000028B0D08D
S3150800B8F001F01DFE0128ACD199F800000028A8D057
S3150800B90098F800000428A4D1F868400800F001005F
S3150800B9108A2101FB00A1091D002814BF7A683A682C
S3150800B92012B92268D204F7D5002814BF7868386897
S3150800B93086E700202060BDE8F0875D48006870470C
S3150800B940F0B589B004460D460021032001F05AFAE5
S3150800B95004AE1BE0002701F070FA26F8170001F084
S3150800B9606CFA00A921F817007F1C082FF3DB04A83E
S3150800B97009F00CFB00202080218836F81020514061
S3150800B9802180401C0828F7DB6D1EA41CEDB2002D93
S3150800B990E0D101F08EFA012009B0F0BD03210220A2
S3150800B9A001F030BAF8B529244FF6FF7501F045FACB
S3150800B9B0281A90FBF4F000F13A063E4F3878B8B9E9
S3150800B9C00321032001F01EFA02237F223A48018848
S3150800B9D000A8FDF773FD01F030FABDF80010401815
S3150800B9E080B2281A90FBF4F0253078700120387060
S3150800B9F001F05FFA7878301A40B2F2BD80B50321BB
S3150800BA00022001F0FFF9BDE80140CBE770B500243C
S3150800BA102A48007890B9FFF7F1FF05461B4E707863
S3150800BA2048B13078401B40B20BF088FA0B2805DB8A
S3150800BA303570012402E0357001207070204670BD13
S3150800BA4080B540B11E48002101600948016821F00F
S3150800BA508001016001BD01F027FE01F0FFFD01F044
S3150800BA60B1FDBDE8024001F095BD00000020004090
S3150800BA7084200040DC7C002000A000404C100040E0
S3150800BA8037760020D010004080200040DD7F00205F
S3150800BA90D87C0020367600202020004084740020C0
S3150800BAA004A00040FC7600201477002007770020C9
S3150800BAB038200040DB7F0020E21A020809770020C0
S3150800BAC0541000407068792E6300000038B5FCF702
S3150800BAD041FA0721084219D10BF037FAB0B1F5F748
S3150800BAE06BFD04460A4D0120F5F728F940B9F8F729
S3150800BAF03CFD28B12878F8F7B2FC08B1F8F734FD10
S3150800BB002046F5F75FFD2878F8F7E3FC002032BDFC
S3150800BB10B27F002080B500F008F880B202BD80B57B
S3150800BB2000F003F80002000C02BD10B5F5F744FD5D
S3150800BB3030490A68496841EA0244F5F743FD2E4848
S3150800BB40017831B12D4909688C4202D12C484068E8
S3150800BB5010BD00210170204610BD2A48072101604A
S3150800BB6027480121017070472DE9F843044600254E
S3150800BB70206810B9FCF7E4F82CE0F5F71DFD00F095
S3150800BB802CF8206810F1010F1CBF401C2060FFF73D
S3150800BB90CCFF81461C482168494489B24160216826
S3150800BBA04944090C0160164E3570164F022038605C
S3150800BBB0386400F017F801200BF0D9FC3D643078A2
S3150800BBC038B98525FFF7B1FF2168081A484420606F
S3150800BBD000E025602846BDE8F28380460B48102120
S3150800BBE0016070470A48102101604046F5F7EABC33
S3150800BBF00000000010600040C87B0020D07B0020B9
S3150800BC00D07C002014A000401860004080E100E0CD
S3150800BC1000E100E02DE9F24F80460A9C032901D392
S3150800BC2023B10529C0F0858042F0040288F8002077
S3150800BC3001252BB188F80130180A88F80200032577
S3150800BC40F7F790FD05F80800681C80B200F8084070
S3150800BC50441C00250B980B90DDF8309011E004F891
S3150800BC6008A0641C4FEA1A2A461EA4B2F0B200289D
S3150800BC70F5D13A46594604EB0800F5F783F93C191D
S3150800BC806D1CEDB20B98285C002854D0742837DA5E
S3150800BC9059F804BB00264C281CBF5328622814D127
S3150800BCA059F8047BBFB24C2806D1BA464FF6FF7046
S3150800BCB0824537D0022635E0532833D15FFA87FA12
S3150800BCC0BAF1FF0F2ED001262CE06C2804D1584675
S3150800BCD0FFF74DF8801C11E0732804D15846FFF78A
S3150800BCE041F8401C0AE0A0F130010A2938BF303873
S3150800BCF004D3A0F1410107291BD2373887B211E0D6
S3150800BD000027752808BF01260AD0762808BF02260C
S3150800BD1006D0782808BF032602D0772809D104263A
S3150800BD2059F804ABBDF80000A4B239197118884255
S3150800BD309BDA002000E0A0B2BDE8F28F10B50D4CEA
S3150800BD4060602180A260E36010BD3EB50C4606A97E
S3150800BD50084D0291019300920023024629886868DB
S3150800BD60FFF758FFA9680880E9684C804FF48252AB
S3150800BD70CA803EBD10780020704738B5044600F0EA
S3150800BD8023F8FF2812D100252846FEF7D8F84FF6E3
S3150800BD90FF71884205D121462846FEF755F8284600
S3150800BDA032BD6D1CEDB2022DEED3FF2032BD80B53B
S3150800BDB000F00AF8FF2801D1702002BD4FF6FF7186
S3150800BDC0FEF783F8002002BD30B583B0044600258F
S3150800BDD000A92846FEF7A5F8082200A92046F5F787
S3150800BDE01BF940B92846FEF7AAF84FF6FF718842B4
S3150800BDF001D028463EBD6D1CEDB2022DE8D3FF20CA
S3150800BE003EBD000080B500F04DF8BDE801404EE0AB
S3150800BE102DE9F04104460D46464F37F81010464ABC
S3150800BE2032F810608E429B41DB43DB0F4FF6FF7CF6
S3150800BE3066451CBF761C22F81060032C18BF052C1B
S3150800BE4009D13F89B2F808C005EB0C06BE42ACBF63
S3150800BE501781168119E0BE8A092C18BF0B2C06D14A
S3150800BE60978A05EB070EB6450EDAEE190CE01D2C7F
S3150800BE700BD1B2F83A8005EB080E7F8FBE4503DA80
S3150800BE8005EB0806568700E0968232F810008842CD
S3150800BE9003D313B92046F8F766FB29462046BDE8C2
S3150800BEA0F0410DE0422200212348F5F7AEB84222C0
S3150800BEB0FF212048F5F7A9B81E4A22F81010704746
S3150800BEC0F8B504460D4600260FF28800315CA142FB
S3150800BED022D1FF2E2CD0FAF7AEFA0746174800787B
S3150800BEE0874204DB93210FF25C00FCF75BF9222002
S3150800BEF0134900FB071030F816104FF6FF729142EF
S3150800BF001CBF491C20F81610032C18BF052C08D195
S3150800BF10018969180181F1BD761CF6B2112ED5D3B7
S3150800BF20F1BD092C18BF0B2C02D1818A69188182B0
S3150800BF30F1BD0000E8780020A4780020AC74002049
S3150800BF402C790020636F756E746572732D736F6339
S3150800BF502E630000000102030405060708090A0B00
S3150800BF60151618191A0000001CB5044620684079F1
S3150800BF70F7F70CFA80B92068418803290CD0E27CCF
S3150800BF800192009143790FF250020FF2200101202D
S3150800BF90F4F794F9012104E020460BF023FB18B1CD
S3150800BFA001462046F7F782FC012016BD2570642C51
S3150800BFB02064726F7070696E67206570203078250E
S3150800BFC07820636C757320307825327820636D6429
S3150800BFD0203078257800000064697361626C65001A
S3150800BFE02DE9F04F85B004462068B0F8029094F821
S3150800BFF01380A668A789257D617D00290CBF40218D
S3150800C00080218DF80C104079F7F7C0F9A0B9B8F17E
S3150800C010000F18BFB8F1020F0ED0B8F1030F1CBFFE
S3150800C020B8F1050FB9F1030F06D00FF270410120E0
S3150800C030F4F744F90121D4E1E07B18B1208A0028FD
S3150800C04000F03581DFF8B40300210180607D002807
S3150800C0500CBF18201020E17B09B140F00400FEF760
S3150800C0604BFEE07B10B1208AFEF74FFEA07CFEF760
S3150800C07043FE681C80B2A7EB050A05EB060B414692
S3150800C080162900F21081DFE811F017001A017B006B
S3150800C0903B0043017B000901480114014D0152018F
S3150800C0A05701CF0069010E010E010E017801A101A9
S3150800C0B07801A601CF0069014B460FF2FC320FF258
S3150800C0C0E8310420F4F7FAF80120FEF715FEA81C5B
S3150800C0D08742C0F2E08000F0BDF90246C7480088F2
S3150800C0E0C0F1520080B20190208A00909DF80C3071
S3150800C0F04946206840790BF027FCA81C85B2E6E77C
S3150800C10000208DF80E000420FEF7F6FD1CE09DF8D1
S3150800C1100D000BF07FFE834600F0A1F90BF0D3FA71
S3150800C1208DF8000070B100F07BF99DF80000FEF76D
S3150800C130E3FD5046FEF7E9FD00F06CF9F4F7BEF8AA
S3150800C14000F074F900F060F9E81CB8420CDA00F067
S3150800C15081F900F072F90028D9D00498C01CFEF7BE
S3150800C16001FE00F1010BD7E79DF80E00002859D112
S3150800C170257DE07B002814BF042002209F49088003
S3150800C1800020ADF80E000420FEF7B6FD0FE09DF87E
S3150800C1900F00401C8DF80F009DF80000FEF7ACFD5F
S3150800C1A05046FEF7B2FD00F041F900F02DF9E81C03
S3150800C1B0B84225DA00F04EF900F03FF930B104989C
S3150800C1C0C01CFEF7CFFD00F1010B04E09DF80D0041
S3150800C1D00BF020FE834600F042F90BF03DFA8DF88D
S3150800C1E0000000F017F9F4F76FF89DF80000002832
S3150800C1F0CDD100F015F97FA10420F4F75FF8D4E754
S3150800C2009DF80F0060B99DF80E0030B90FF2D821DD
S3150800C2100420F4F753F88021E3E00020FEF76CFDD4
S3150800C220B8F1050F37D1DBE0B8F1150F0CBF0FF2E7
S3150800C230E82371A3CDF800900FF2D0220FF2BC21AB
S3150800C2400420F4F73BF8B8F10C0F0CBF0D201620AC
S3150800C250FEF752FD00F0FEF806469BF80270062F20
S3150800C26028BF052765480088654945180020FEF758
S3150800C27043FDB8F1150F0CBF01200020029001976D
S3150800C280208A00909DF80C3032464946206840794D
S3150800C2900BF03BFA2870F7F7BDFAA5E02046F8F749
S3150800C2A041F90028F9D1E07B002800F0A18084211B
S3150800C2B097E02046F8F766F90028EED1F3E7B9F1DA
S3150800C2C00A0F20D1DFF83C8198F80000D8B1E07B4E
S3150800C2D0002804BF781B082815D100F0BBF80028F1
S3150800C2E001BF9BF8020000289BF80300E2280AD148
S3150800C2F03A46291D89B23046FEF725FDF7F7A0FB19
S3150800C300002088F8000000F0A0F8F8F739F966E090
S3150800C31000F09BF8F8F74AF961E000F096F8F8F7AC
S3150800C32003F95CE000F091F8F8F72EF957E000F011
S3150800C3308CF8F3F758FF52E0AF5D865D9DF80C0068
S3150800C340009033463A46494620684079F6F70CFC91
S3150800C350324639464846F8F7E9F845E0A95D054604
S3150800C360B8F1160F0CBF0120002000907B1B9BB272
S3150800C370AA194846F8F7DDF831E0AE5D9BF801509A
S3150800C380B8F1110F04D11220FEF7B6FC002003E025
S3150800C3901420FEF7B1FC012018490F880395029670
S3150800C3A00191C7F1510189B20091154979184B1CC1
S3150800C3B04A462146F6F744FF00B101201049785451
S3150800C3C00E480088401C0D49088064E700F056F8BE
S3150800C3D0F8F7B3F803E000F051F8F8F7ACF818B935
S3150800C3E000212046F7F762FA012005B0BDE8F08F74
S3150800C3F08221F6E74F4B000000000000A6790020D6
S3150800C400B4790020C77F00205FFA8BF16818C01C3A
S3150800C41085B2704753464A460FF2A8010420704772
S3150800C4209DF80E00401C8DF80E0070479DF8002000
S3150800C4300FF2AC010420F3F741BF8246A819049015
S3150800C44080788DF80D00F6F773BB1FFA8AF2594605
S3150800C450484670473A4629463046FEF776BC9DF868
S3150800C4600D0002900498C01C0190208A00909DF847
S3150800C4700C3052464946206840797047AA5D054601
S3150800C480781B81B2002300E05B1CDFB28F42FBD32E
S3150800C49080B20090AB19218A484670476469736177
S3150800C4A0626C65640000000025703A20636C757341
S3150800C4B02025327800000000524541445F4154541B
S3150800C4C05200000057524954453A20636C75732050
S3150800C4D02532782061747472202532782000000095
S3150800C4E04641494C2025780057524954453A20740C
S3150800C4F06F6F2073686F72740000000025702570D6
S3150800C5003A20636C757320253278000044495343FA
S3150800C5105F415454520000005F4558540000000023
S3150800C520DFF8F8035121016070472DE9F04105460F
S3150800C530F7F758FEFA2190FBF1F64FF4F070B0FBCE
S3150800C540F6F73FB21E2D01DBE81B04D5A8B2BDE8FD
S3150800C550F041F7F798BDF5F72FF880460BF07EFC0B
S3150800C560DFF8BC0307210160002141608160DFF824
S3150800C570B4134FF000720A60E91B09B27143C91C73
S3150800C5808908491E416000F0AEF8DFF890733C68F0
S3150800C590386820F0400038600BF062FC3C602E6082
S3150800C5A00BF062FC0BF068FC4046BDE8F041F5F77D
S3150800C5B009B838B50546F7F715FEFA2190FBF1F4E8
S3150800C5C04FF4F070B0FBF4F02D1A2DB21E2D04DADC
S3150800C5D08A210FF29430FBF7E5FDDFF844030721C3
S3150800C5E00160002141608160DFF838134FF0007266
S3150800C5F00A6005FB04F1C91C8908491E416031BD62
S3150800C600DFF82403B0F9000000B970472DE9F041BE
S3150800C6100024DFF818532C60DFF8146334604FF4F5
S3150800C620A040706041F29A084046FFF77EFF6F68A7
S3150800C630F7F7E0FD00010A21B0FBF1F000F5C8703C
S3150800C640C01B00B24FF4487190FBF1F000F30300F1
S3150800C65030604046FFF769FF08274046FFF765FF49
S3150800C660686804197F1EF8D1F7F7C4FD4FF4FA413C
S3150800C6704843211DC908B0FBF1F080B27060BDE8DF
S3150800C680F081DFF8A402B0F9000000B9704738B5A8
S3150800C6906FF00F04DFF89C520120A8602C60802000
S3150800C6A0FFF743FFE868FF2802D8641C102CF5DB67
S3150800C6B031BD70B5DFF88002016841F00101016003
S3150800C6C001214160F4F778FF044600F00CF8DFF822
S3150800C6D04C02512101602E600BF0C6FB2046BDE8D6
S3150800C6E07040F4F76FBFDFF854522E682868400888
S3150800C6F0400028600BF0B8BB00207047F8B501462B
S3150800C70040F2DC500446884AB2F900708D4D8C4ED2
S3150800C710012F15DA022030812860A86900F003008D
S3150800C720032857D0002F03D5A86940F00200A86156
S3150800C7300846FFF7E1FF04001BD1002F4AD547E062
S3150800C74031894FF6FF77B9421CD102237F227E48F2
S3150800C750018806F10800FCF7B1FE3089B84204BF2B
S3150800C76002203081A869800703D4A86940F0020036
S3150800C770A861012070703089286020B2FFF719FF80
S3150800C7802046F2BDAA699207EFD57278002AF8D139
S3150800C790A86810F00100AA6803D10F2909D2491C1C
S3150800C7A006E0920705D532791AB1032901D3491E45
S3150800C7B031813071308902283CBF022030812868D7
S3150800C7C031898842D5D1A86900F00300032801D031
S3150800C7D0FFF76FFF0020F2BD2DE9F04780460024E1
S3150800C7E04E4D564EF4F7E8FE81460BF037FB4046B1
S3150800C7F0FFF784FF08B901240AE000F04CF8D5F8E1
S3150800C80000A000F0ABF8C5F800A037600BF02CFBD1
S3150800C8100BF032FB4846F4F7D5FE002CE2D0BDE813
S3150800C820F0870220D8E710B53D48002141608160B5
S3150800C830016821F0020101603A484FF00071016079
S3150800C8403F4C607848B1002060700620FFF754FF1F
S3150800C8503548B0F9000001281CDBA078012814D15E
S3150800C8603A48012101603A490968C90748BF0320C7
S3150800C8700FD40221A170016C41F001010164354811
S3150800C880042101603448016010BDA078042801D154
S3150800C8900520A07010BD3768306840084000306039
S3150800C8A00BF0E2BA2DE9F843254C2078002830D061
S3150800C8B0E07800282DD11C48B0F90000012820DABC
S3150800C8C040F2CD310FF2A000FBF76CFC19E0F4F74B
S3150800C8D073FE80460BF0C2FAA07805280CD0174ED6
S3150800C8E0FFF7D9FF0D4DD5F8009000F037F8C5F8D9
S3150800C8F0009037600BF0B8FA0BF0BEFA4046F4F732
S3150800C90061FEA0780528E2D1002060700520FFF7B7
S3150800C91063FF00202070BDE8F1830000008000401E
S3150800C92010E000E004ED00E0F41A020810400040B0
S3150800C9300C000040084000401C40004094ED00E018
S3150800C940D876002004400040EA1A020818A00040E1
S3150800C9500C40004080E200E000E100E0286820F09A
S3150800C960400028600BF07CBA636C6F636B732E63B0
S3150800C9700000000070B52B4842782B490B685B070E
S3150800C98023D5032A21DA00EB420384889C810123FC
S3150800C990847803FA02F2224382700278234C8AB121
S3150800C9A0002503FA05F6164207D045707240027054
S3150800C9B000EB4500808A206007E06D1CEDB2032D70
S3150800C9C0EFD302E02260032242704FF6FF70086040
S3150800C9D0BFF35F8F70BD13480021017003214170BA
S3150800C9E00021C17005210181002181700F490022B3
S3150800C9F00A604A604FF400428A601022CA60001D2D
S3150800CA004861012088610320C86007480421016441
S3150800CA104FF6FF71016006484FF400610160FCF7AC
S3150800CA20FAB90000B877002010A8004004E00040DA
S3150800CA3000E100E02DE9F041314C00202065314E3F
S3150800CA404FF40055356002202060E560002020651F
S3150800CA50206D40F060002065DFF8AC800E2000F005
S3150800CA601DF888F80000002060654FF4804737609D
S3150800CA7004202060E76025481621016000206065D3
S3150800CA80606D40F060006065162000F007F888F8D1
S3150800CA9001001F4805600760BDE8F0810E2802D036
S3150800CAA0162802D009E01B4800E01B4800688009E8
S3150800CAB000F0010080F0010070470020704710B5B3
S3150800CAC00F484FF40051C160022101600E20FFF7A4
S3150800CAD0E5FF01460C4C22788A4218BF21700DD119
S3150800CAE0501E8041C00F207021780E20F5F7ACFA51
S3150800CAF02178481E8041C00F207021780E2033E02F
S3150800CB0014A8004080E100E0B47F002020BC00406B
S3150800CB1000E100E008B2004008B4004010B506483D
S3150800CB204FF48041C160042101601620FFF7B6FF6B
S3150800CB300146024C04E000BF14A80040B47F002060
S3150800CB4062788A4218BF61700DD1501E8041C00FAD
S3150800CB50607061781620F5F777FA6178481E80418B
S3150800CB60C00F607061781620BDE81040F5F76CBA02
S3150800CB7010B50446F4F720FD4848302101604848BE
S3150800CB80016048480160484810210160200A08BF32
S3150800CB902402464804804FF20F014180BFF35F8F9D
S3150800CBA0434800210160416042484349016010BD85
S3150800CBB042480168C90708D5414903220A70016C31
S3150800CBC0490849000164012101600168090703D584
S3150800CBD0016C21F008010164704780B5002000F05F
S3150800CBE009F830B9F5210FF2EC00BDE80440FBF76F
S3150800CBF0D9BA01BD2DE9FC44324C414222688D1850
S3150800CC0015F01F0108D0002802D44842451903E050
S3150800CC104842401900F12005A5F120062A48A842F5
S3150800CC2024BF2A48864203D3EFF30880854201D3FE
S3150800CC3000202DE0F4F7C0FC82462548006810F075
S3150800CC40010718BF0BF032F9206801468D4206D25B
S3150800CC50A84224BFCD2100F80119F9D206E02038F0
S3150800CC60002201E000F8012B8842FBD325603046FC
S3150800CC700BF021F9E22001E006F8010BAE42FBD3E6
S3150800CC800FB10BF0FBF85046F4F79CFC20682038EF
S3150800CC90BDE8F6840B480068704700003020004065
S3150800CCA030C8004030C0004010E0004000000020BE
S3150800CCB01C4000400CED00E00400FA0518A00040F6
S3150800CCC0DA760020B076002078660020600D002015
S3150800CCD094ED00E06D6963726F2D696E7465726E0E
S3150800CCE0616C2E630000000030B583B0002401A8F3
S3150800CCF00FF204110A680260DFF8F4500120287068
S3150800CD0000200BF0F5F830B100200BF0F1F810B167
S3150800CD102C7049203EBD02237F22DFF8D800018807
S3150800CD200DF1020000F025F802237F22002100A859
S3150800CD3000F01FF8204601A931F81010BDF80220AE
S3150800CD40914208BF0124401C0228F4D3002CBDF8E8
S3150800CD50000004D0B0F57F7F07D100203EBDB0F5B6
S3150800CD607F7F0CBF0620042000E0072000212970E1
S3150800CD703EBD10B5B1F5807F08D2DFF8744024783F
S3150800CD8044B1C9B2BDE810400BF08EBBBDE81040F7
S3150800CD90FCF794BB10BD2DE9F04105460E46174633
S3150800CDA098460FF25800B5F5807F12D2104C2178BC
S3150800CDB0A1B1617811B1C221FBF7F4F901206070C5
S3150800CDC0434632463946E8B20BF0CBFC0020607089
S3150800CDD004E0CD21BDE8F041FBF7E4B9BDE8F081F8
S3150800CDE003490978002918BF0BF0CABD704700002F
S3150800CDF0CB7F0020E41A0208FE01FD02746F6B6502
S3150800CE006E2E630070B505460E460BF027F83D4CAE
S3150800CE10206C20F0080020640BF02EF8F4F7CCFB09
S3150800CE20310341EAC51141F00101374A1160082171
S3150800CE302160BDE87040F4F7C5BB2DE9F041334CDD
S3150800CE40334D304E25E00BF009F8324804210160D5
S3150800CE50306C40F0080030642F68286840084000AD
S3150800CE6028600BF001F8D4F80080206820F0400014
S3150800CE7020600AF0F5FFC4F800802F600AF0F4FF7E
S3150800CE80306C20F0080030642348042101600AF061
S3150800CE90F3FF30680007D6D5082030601F480068C1
S3150800CEA080B2BDE8F08180B5FFF7ACFFBDE8014070
S3150800CEB0C3E7154801684908490001607047F8B595
S3150800CEC00746F7F79EF8044639460320FFF7EBFFB7
S3150800CED0054639460120FFF7E6FF06463946002093
S3150800CEE0FFF7E1FF08490A68520852000A60401B2A
S3150800CEF00004711BB0FBF1F060434000000CF2BD6A
S3150800CF000000000018A000400470004000800040A7
S3150800CF1094ED00E000E100E080E200E000700040EF
S3150800CF20DFF88C07417A39B1017A012904BFC07A42
S3150800CF30042801D101207047002070470FF604012C
S3150800CF40405C7047010603D54FF67F710840C00064
S3150800CF5070478001B0FBF1F080B2FF2888BFFF2040
S3150800CF60C0F1FF00C0B2704738B5DFF84407817AD0
S3150800CF70012901D1002032BDDFF84047617871B13F
S3150800CF80E178807B4518ADB22079854228BF0546F1
S3150800CF9005F0DCFE0121A940491E084000E00020FA
S3150800CFA061790818C0B232BD2DE9F0470446C007BA
S3150800CFB003D540F26D1100F048FADFF80457286DE2
S3150800CFC0C00748BF8C2000F19180DFF8E466002096
S3150800CFD030733070DFF8E4763878A0B120781228FC
S3150800CFE018BF0C280BD1617801F00701032902BF8D
S3150800CFF0001910F8020C042804BF01203073A86F2A
S3150800D00040F0010002E0A86F40084000A867707B66
S3150800D010DFF8B086DFF8B096797899B10021B17358
S3150800D020296D41F004012965012807D14FF6FF70E3
S3150800D030C9F800004FF40070C8F80000FFF794FF25
S3150800D04082460CE0296D21F0040129654FF0000A9B
S3150800D050012804D100F02AFA6420F7F714F8A86F1B
S3150800D06020F00800A8671420E864C5F848A0787876
S3150800D07030B1707B002801BFA86C00280120A86485
S3150800D080B8790028286D14BF40F0080020F0080081
S3150800D0902865FFF745FF28B1D9F8400040F0080099
S3150800D0A0C9F84000202028626C602C6068687F30D0
S3150800D0B06860042028624FF4E064DFF81006046014
S3150800D0C006E000F043FB18B1FAF73AFEF4F774FAF3
S3150800D0D0DFF8FC05006800F003000328F1D0C8F863
S3150800D0E00040286D40F0010028650020BDE8F08763
S3150800D0F010B50446FEF721FC201A0003000B33384E
S3150800D100DFF8D01588421AD2DFF8CC050221016073
S3150800D110DFF8C815A2B24A60220C02F00F020A60B4
S3150800D120016C41F002010164DFF8B445002020706B
S3150800D13002E0012009F048FF20780028F9D010BD48
S3150800D1402DE9F84FDFF88085D8F80000D8F84010A8
S3150800D15001EA0004A4B2C8F80040DFF86475DFF8F5
S3150800D16050556878002840F0C880DFF87865DFF801
S3150800D1704C95E00744D5D7F800A0386C796C41EA9D
S3150800D1800041A96199F80000B0B39AF80100800639
S3150800D19032D501202870FFF7C3FE88B31920F6F7A9
S3150800D1A072FFDFF844B54FF44040CBF82800DBF8AF
S3150800D1B000000090F06E40F40050F066F06E40F407
S3150800D1C08050F066A8699AF800104901B831081825
S3150800D1D0FFF78EFFF06E80098001F066F06E00A9F9
S3150800D1E009880843F0660020CBF8280048F26070EA
S3150800D1F0F066A88A306003E00022002009F0DFFD0F
S3150800D20020060ED5287830B1002028700022A9699A
S3150800D210402009F0D4FDD8F83C0020F48050C8F826
S3150800D2203C00600608D5687830B9FEF786FB002210
S3150800D2300146892009F0C3FDE0064FD5287ADFF8B4
S3150800D24084A4012804BF697B01291ED1F6F7D4FD01
S3150800D250386F40F00100386700206873FEF770F9F0
S3150800D2600A20F6F710FF00244FF6FF70C8F80000F2
S3150800D2704FF4E060CAF800000920B8660120B864D7
S3150800D280B86F40F00800B86718E0A97B491CA97375
S3150800D29099F80220C9B2914215D2012808BF00F0B8
S3150800D2A0D8F8B86F20F00800B8671420B866FFF7FA
S3150800D2B05BFEB8644FF40070CAF80000386D40F0A1
S3150800D2C0010038650AE0012808BF00F0C2F8FEF739
S3150800D2D034FB002201468D2009F071FD20070CD58C
S3150800D2E0FFF71EFE48B13068A88201203060D8F8E2
S3150800D2F0400020F00800C8F84000A0060AD5202003
S3150800D3003862687830B9FEF718FB00220146882093
S3150800D31009F055FD687820B114F4407F04BF012058
S3150800D320A870BDE8F18FDFF8C8030088704770B5AC
S3150800D33082B00446FBF7EEFEDFF8B8030021016071
S3150800D340DFF870531521E960092101651F21416045
S3150800D35001210166DFF898030088FBF76BFDFEF7ED
S3150800D36015F90BF0BDFB00F030F9DFF84463308A9D
S3150800D37000F058F9708A00F05DF9F4F71DF969684C
S3150800D38041F040016960F4F71DF9707900F0F2F890
S3150800D390B07900F0FFF8307900F02EF9DFF858037D
S3150800D3A090F90000FBF7F5FEF07800F04BF996F9D6
S3150800D3B0070000F053F902237F22DFF840030188B3
S3150800D3C000A8FCF77BF8BDF80000C0054CBF00209C
S3150800D3D0BDF80000DFF828130870DFF82803007886
S3150800D3E0FBF79AFE18B140F2963100F02EF8012CA0
S3150800D3F005D12868C00711D500F02BF80EE06CB9E6
S3150800D4002868C0070AD4F6F7F7FC286840F0010038
S3150800D4102860C820F6F737FE00207073DFF8A842A8
S3150800D420F120206440F2F910E063FEF789F82868D5
S3150800D430C00707D54FF6FF702060DFF888024FF463
S3150800D440E0610160FFF72EFA73BD0FF2E820FAF7E4
S3150800D450A9BE70B5DFF8B0522E68DFF85442607B7B
S3150800D460012822D0F4F7A8F8B6B22E60DFF85C12CD
S3150800D4704FF4E0620A60DFF874120A6A5208520032
S3150800D4800A620A68520852000A600A6842F00202F2
S3150800D4900A604A6A42F001024A6201216173F4F79E
S3150800D4A091F8BDE87040F6F776BC70BD70B5804C53
S3150800D4B0607B48B3F6F7A0FCF4F77EF80546DFF87C
S3150800D4C04C02012101607C4E306D40F00100306550
S3150800D4D000206073FEF734F820203060306B40F08F
S3150800D4E002003063F06D40F00800F0652846F4F756
S3150800D4F069F80A20F6F7C7FD73484FF6FF71016011
S3150800D50070484FF4E061016070BD6948407B704720
S3150800D51010B5674C607B18B140F28741FFF795FF5D
S3150800D520207A18B1FFF795FF207A607310BD60481E
S3150800D530007A704780B5022801D3012002BD5C49F4
S3150800D5400872487B012804D1087A20B9FFF7AEFF94
S3150800D55001E0FFF7DDFF002002BD6D48006880028C
S3150800D56000149A386FF07F0201B29142B8BF104694
S3150800D57040B2704710B50446F4F71EF86549002C0A
S3150800D5800A6814BF42F0120222F012020A604849E1
S3150800D5904C7140E038B50446F4F70EF80546F6F740
S3150800D5A098FC40B95B48002C016814BF41F0800123
S3150800D5B021F0800101603E4884712846BDE832406A
S3150800D5C0F4F700B83A4880797047534853494A787F
S3150800D5D00B7813EB02220260CA788B7813EB0222CF
S3150800D5E042604A790B7913EB02228260CA798979FB
S3150800D5F011EB0221C160704710B50446F3F7DCFF52
S3150800D6004449002C0A6814BF42F0200222F0200286
S3150800D6100A6027490C71BDE81040F3F7D3BF2448C8
S3150800D620008A7047224908823D49086070472048A9
S3150800D630408A70471E4948823A49086070473A4806
S3150800D640007870471B4900280A6814BF42F0020296
S3150800D65022F002020A601649C870704738B50446B7
S3150800D6607F2C0ED102237F223048018800A8FBF7C1
S3150800D67025FFBDF80000C00554BFBDF800406FF097
S3150800D6804A04F3F799FF0546F6F723FC30B964B266
S3150800D69004F19A008005000C254908600448C47105
S3150800D6A02846F3F78FFF31BD014890F90700704708
S3150800D6B0FC7600208020004030200040987600202C
S3150800D6C01020004000E100E004A0004080E100E0F6
S3150800D6D0A8200040CDFF070008A0004040200040D9
S3150800D6E0E27F002064100040E41000406020004003
S3150800D6F04C7600205C10004040760020EC1A0208A8
S3150800D7003E760020367600201C1000402810004087
S3150800D7100C1000408420004098200040C87C00205F
S3150800D720942000409020004018770020F01A020844
S3150800D730541000407068792D636F6D6D6F6E2E639F
S3150800D74000000000FEFEF7F7C8C80100EFF31180DD
S3150800D75060288041C043C00F7047000038B5DFF825
S3150800D7606C080468002503E004F206046D1CEDB29B
S3150800D770DFF85C0841788D4211DAA278FF2AF3D1E6
S3150800D780491E4170C9B28D42F2D0481B062101FBE1
S3150800D79000F292B2A11D2046F3F7F4FBE8E701B9BF
S3150800D7A0017131BD38B50024DFF8205807E066213D
S3150800D7B006202A6800FB042000F0ACFA641CDFF897
S3150800D7C010084178E4B28C42F1D30021417001710E
S3150800D7D031BD10B5DFF8F847207950B1201DF6F7AE
S3150800D7E0A3FD652805D36421201DBDE81040F6F782
S3150800D7F07ABD10BD2DE9F843044688469146DFF800
S3150800D800D05768780621DFF8C427126801FB00267E
S3150800D810DFF8C0170978884208BF722017D049F286
S3150800D820600000EA03072046FCF768FDB47086F836
S3150800D830038086F8059057EA17203071002030805B
S3150800D8406878401C6870002000F08AF80020BDE85F
S3150800D850F2832DE9FE4F8A46DFF87C572868C08890
S3150800D860C00B80F001060027DFF870B7DFF8708775
S3150800D870DFF8589731E0504603F099FD07469DF8C2
S3150800D8800600800603D528688079800652D5207957
S3150800D89000F00C00042809D1A07803F019FF002134
S3150800D8A0A07804F0E1F8A078FDF7AFFB0021204648
S3150800D8B000F030FAFFF752FFDBF800001AF8000014
S3150800D8C0874208D26079DFF81C1708700022012108
S3150800D8D05046F8F7BBFC6EBB0027DFF8F406407825
S3150800D8E0874227DA0620D9F8001000FB071400A99A
S3150800D8F0A07803F068FD2868817A9DF80A2091428D
S3150800D90015D1002EB7D10189C8B20904BDF808207F
S3150800D910D2B28242AFDB98F800301B189A4206DA78
S3150800D9200123101A03FA00F212EA116FA3D17F1C21
S3150800D930FFB2D2E7BDE8F78F012011E080B5FEF708
S3150800D940E9F8DFF88C168A89801A40F2011280B24B
S3150800D950904204D3081DBDE80240F6F7B9BC01BDE4
S3150800D9602DE9F14FFEF7D6F8DFF86446A189451A86
S3150800D970ADB24FF6FF7BA081A0788542ACBF0020F0
S3150800D980401BA0704FF00008DFF8400607680DE05E
S3150800D9900121384600F075F83888584538BF83465F
S3150800D9A0F8F757FD08F1010807F2060760785FFAED
S3150800D9B088F8804555D23E79B7F800904FF0000AAE
S3150800D9C0B87803F05BFAF8F743FDDFF81C06006841
S3150800D9D0007B04280ED3FAF7BDFA4FF6EF7108421A
S3150800D9E008D103F0F5F9DFF804160988884238BF2C
S3150800D9F0A1EB000AB9F1000F08BFA9461FFA8AF180
S3150800DA00481948450AD23888401B38809DF80000D6
S3150800DA100028C1D03007BFD50021BAE706F00C00B0
S3150800DA20042802D100203880BAE706F00300710600
S3150800DA304CBF03210121884208DB9DF8000000281D
S3150800DA40AAD06621384600F065F9A5E730069FD5C5
S3150800DA50A07800EB09018D429ADA4844401B3880C9
S3150800DA609AE7FFF77BFE4FF6FF70834505D05946C8
S3150800DA70201DBDE8F44FF6F736BC00202071BDE83E
S3150800DA80F18FF8B504460D46A07803F0F7F9F8F7D4
S3150800DA90DFFCDFF85465E5B12079401C20714006AB
S3150800DAA015D5DFF84C05078801220021204600F02D
S3150800DAB061F818B1DFF834050088C7193068007BAB
S3150800DAC0042805D3DFF824050088C71900E00027D5
S3150800DAD0278000222946204600F04CF8002840D02E
S3150800DAE0A07803F0B7F90546207900F0030100F0A5
S3150800DAF0F30020713068427E521C4276EA71DFF8E4
S3150800DB00D064307898B12079420610D502290ED310
S3150800DB1080060CD5042300F028F810BB012300F07A
S3150800DB2024F820B1207940F00300207119E0A0788C
S3150800DB3000F02DFB10B101280BD012E0207940F03F
S3150800DB400400207100060CD5DFF8A8040078B07030
S3150800DB5007E0207940F008002071287800F07F005F
S3150800DB602870BDE8F140F8F774BC00220021A078BF
S3150800DB7006F0CEBC2DE9F04786B004460D4617469A
S3150800DB80A07803F067F906460DF10009E07828B198
S3150800DB9001282AD0022813D006280DD1B01CFCF77C
S3150800DBA0F6FD3FB100A9FAF723FA28B900A8FCF751
S3150800DBB0CDFA10B1012000E0002006B0BDE8F087DC
S3150800DBC002A96079F6F7B6FD08220DF10D0100A845
S3150800DBD0F3F7D8F96079DFF82014096831F810806E
S3150800DBE0DFF818140968405C0BE060790C21DFF84F
S3150800DBF01024126801FB0020B0F8008000F1020929
S3150800DC00807A1FB14946FCF790FAD6E74FF6FC77BB
S3150800DC10B8450CD3484602F0D3FA82464FF6FF7051
S3150800DC2082450BD051464846FCF7D2F9D046B8454E
S3150800DC3004D24146B01CFCF7B0FDBBE72079C1060B
S3150800DC40BAD54FF6FD71B8450CD100F00C000C287A
S3150800DC5014D19DB14846FCF7BBF96621204600F071
S3150800DC6059F8A9E7884509D10023002211464846F4
S3150800DC7001F086FE39464846FCF7AAF9207940F0B5
S3150800DC800C00207198E7F8B504460D4603F00CFB26
S3150800DC9001462046FCF7D3FC10F0030139D110F0F9
S3150800DCA00C002CD1DFF8286300E0401C7178C0B264
S3150800DCB088422ED20621DFF81423126801FB0027BA
S3150800DCC0B978A142F1D13879410611D500F0FB00A7
S3150800DCD03871204603F0BEF8017801F07F01017023
S3150800DCE03888B0B90021301DBDE8F440F6F7FBBA14
S3150800DCF02946384600F00EF8BDE8F1402EE52046E4
S3150800DD0003F0B7F8C00604D429462046BDE8F44017
S3150800DD10BDE0F1BD2DE9F04F8BB004460E4694F8F0
S3150800DD200280404603F0AAF8F8F792FBB52E00F0F9
S3150800DD30A28060790090E778404603F08BF80546A4
S3150800DD40207900F0030901A9404603F03CFB404650
S3150800DD5003F08AF8400505D5BDF80A0040F40050DE
S3150800DD60ADF80A002079C00605D5BDF80A0040F4CA
S3150800DD708050ADF80A004FF00C0B9DF80A0080069B
S3150800DD801BD50022022F0BD106A96079F6F7D2FC23
S3150800DD9008220DF11D0104A8F3F7F4F804AA07E018
S3150800DDA0012F05D16079964909680BFB0010821C82
S3150800DDB004230021404606F0ABFB4046FCF7E3FA95
S3150800DDC08246022F05D100988B49096831F8105010
S3150800DDD00CE0012F06D10098894909680BFB001051
S3150800DDE0058803E0A81CFCF7D2FC0546DEB1BDF8A1
S3150800DDF00A00410617D54FF6FC718D4213D27A49AF
S3150800DE0009680A7B032A02D349888D420BD0C005CC
S3150800DE1044BF284606F0B4FCBDF80A00C00444BF57
S3150800DE202846FCF7B8F8404603F023F8C00622D483
S3150800DE300FB10098C5B2DFF8CCB1A0788BF8000016
S3150800DE40F8F701FB0096534601AA29463846F4F727
S3150800DE5084FBF8F7FEFAFF208BF800005FEA09005A
S3150800DE6014BFA9F101010021002E0CBF09200B20C7
S3150800DE70C9B2F8F738FB4046FCF74EFA0020208076
S3150800DE80FF20A070F8F7E5FA0BB0BDE8F08F2DE992
S3150800DE90FF4780460C46042602F0DCFF0546A81C10
S3150800DEA0FCF775FC8246AF7901A9404603F08BFA68
S3150800DEB0BDF80A0000F00C010C2908BF03268006ED
S3150800DEC044BF404606F03CFB4046FCF75CFA8146F8
S3150800DED045480068007B03281ED2022F1CD34FF644
S3150800DEE0F870824503D2287AE021084214D0281D0A
S3150800DEF0FCF74DFC0746E97907F0E1FD054638468B
S3150800DF0004F0B6F93DB1A9884FF6FF72914203D0E5
S3150800DF100143814200D166243A4D3B48007880454A
S3150800DF2005D1601E8041C00F08F010FE0CE085F890
S3150800DF300080F8F788FA00944B4601AA5146304605
S3150800DF40F4F70BFBF8F785FAFF2028700021072065
S3150800DF50F8F7C9FABDE8FF8710B500221B4B1B6806
S3150800DF6002E0521C03F20603194C6478D2B2A242AC
S3150800DF7007D25C79844204BFDC788C42F1D1012057
S3150800DF8010BD002010BD0221E6E70121E4E770B5C7
S3150800DF90044600250D4806680CE07079A04204BFC7
S3150800DFA0F078012803D1B5213046FFF7B3FE6D1C82
S3150800DFB006F2060600F005F8EFD3BDE87040FFF755
S3150800DFC0CDBB03484078EDB285427047D474002033
S3150800DFD01C770020D0740020C07C002068740020C4
S3150800DFE0DA740020D37F0020B47C0020E674002079
S3150800DFF0D8740020BB7F0020BC740020C4740020A5
S3150800E000CC740020A07600209477002038B5DFF87D
S3150800E010980C0021017006F0F1FF07F0C2FD03F02D
S3150800E020A0FB01F045FF0AF08EFDFCF7ABFE0024CD
S3150800E030DFF8785C09E02046F8F70AFA03F01BFFD8
S3150800E04005F040FEF8F705FA641C2878E4B2844225
S3150800E050F1D320E038B5F8F7CCF904460025FF2CB3
S3150800E06008D0F8F7F5F9F4F7F7FC00B90125F8F741
S3150800E070F0F94DB906F0C2FF07F093FD01F018FF5D
S3150800E0800AF061FDFF2C00D00DB1FCF77BFE03F012
S3150800E090F2FE05F017FEBDE8314006F0DFB8DFF8FE
S3150800E0A0100C0068407B11281CBF4328412801D169
S3150800E0B0012070470020704710B5044602F0CAFEDA
S3150800E0C0801CFCF764FB4FF6F8718842204624BF93
S3150800E0D0BDE8104000F006B800F059F8401E80412F
S3150800E0E0C00F10BD2DE9F041044607F026FDA0BB80
S3150800E0F0DFF8BC0B00684FF6FF75017B032905D3D3
S3150800E1004188A94229D0204602F0D7FE00230022E2
S3150800E1100221204603F0BCFAF8B1204602F09AFE26
S3150800E1200646F779F9F797FF8046F9F794FF4246CE
S3150800E130394607F010FDB01CFCF729FBA84204BFBE
S3150800E140204608F0E1FC30780321084203D101217A
S3150800E150204601F08BF9012000E00020BDE8F0819F
S3150800E16038B50446DFF82C0C0068205C851AEDB239
S3150800E170681A80B2009053189BB222462046FCF7D4
S3150800E18034FB29462046BDE83440FCF714BA2DE98D
S3150800E190FE4F82460025019502F05CFE0646301DBC
S3150800E1A0FCF7F5FA0746B01CFCF7F1FA804630781A
S3150800E1B000F0C0000290384603F04CFB8DF80200D0
S3150800E1C0FF2814BF4FF00109A946307803210842F9
S3150800E1D008D1F9F740FF874202D05FEA090402D066
S3150800E1E0012400E00024B079002875D0F9F733FF40
S3150800E1F080450BD1F9F72FFF834600225946504632
S3150800E20000F0E5F8002867D00020B4E000F0C2FC72
S3150800E210017B032928BFB0F802B0EED2404602F0CF
S3150800E22028F820B9504602F01FFE400514D5C3460B
S3150800E23070784007E1D5504602F06DFF01F07BF893
S3150800E240401C4200D2B229465046FFF789FF707833
S3150800E25000F0FB007070D0E7707840071CD5504678
S3150800E26002F059FF01F067F806466F1CF9B201F093
S3150800E27064F8002E18BFFF2806D10022F9B25046CE
S3150800E280FCF7E2F9C346B8E705EB4000811CC9B2C2
S3150800E2905046FCF786FAAFE701AA00A9404607F000
S3150800E2A065F88346DCB10298802804D0402816D148
S3150800E2B09DF8000098B1307800F03F00307038467D
S3150800E2C001F0D7FF10B9F9F7C6FE07463A4600210E
S3150800E2D0404606F05FFA00284CD001204BE0019832
S3150800E2E000283AD006F095FF8DF8010001980079CC
S3150800E2F000F0300002909DF80100FF2805D140F299
S3150800E30023110FF27800F9F74DFF34B30298C0B223
S3150800E310102813D00298C0B220281ED1B9F1000FD8
S3150800E32007D09DF802109DF8010007F087F8A0B9FC
S3150800E33004E0019800790C2108420ED0F3795A4678
S3150800E3404146384606F08AFD0198007900F0F30048
S3150800E35040F004000199087101259DF8000028B1D4
S3150800E3600121404603F0AEFF20B1C346002D8AD0F6
S3150800E370302243E70220BDE8FE8F00006E65747701
S3150800E3806F726B2E6300000038B504460D46F4F72D
S3150800E3906CFBDFF81C090068007B032801D3012009
S3150800E3A032BD4FF6F97084421CBF4FF6F8708442AE
S3150800E3B001D0702032BDF9F74EFE024629462046A6
S3150800E3C006F0E8F9401E8041C00F32BD0022F8B5BC
S3150800E3D004460D46164602F03DFD007800F02FF97A
S3150800E3E00CBF012700272946204602F066FDF9F7EB
S3150800E3F032FE854217D0284601F02CFF50B900237B
S3150800E4003246DFF8900C0178204601B0BDE8F040AE
S3150800E41003F03EB96FB9F9F71EFE002322462946D6
S3150800E420FBF75CFC28B10121204601F01FF801200A
S3150800E430F2BD204602F018FD400505D5002120460C
S3150800E440BDE8F440FCF7C6BC204603F02BFA401E94
S3150800E4508041C00FF2BD2DE9F041044688461646B4
S3150800E460304602F021FF0746304602F0E8FC3E1A25
S3150800E470F6B23719A8EB060292B2394607F10E0032
S3150800E480F2F780FD28203870DFF82458286890F8BD
S3150800E4902000787305F024FC0246791C01200AF056
S3150800E4A05DFB0822DFF8F01B781DF2F76BFD286884
S3150800E4B090F82000F9F737F83346002208F10E01E4
S3150800E4C0C9B2204605F03DFE1220BDE8F0812DE9CF
S3150800E4D0F04F85B081460D4602F0E6FE06464846F0
S3150800E4E002F0D9FC8246484602F0A9FC074606F126
S3150800E4F00E0189B2484602F026FE002852D00020B6
S3150800E50000900E233246494601A8FBF7A2FF0DF1FB
S3150800E510050101200AF030FB83469DF811809DF81D
S3150800E520040028283ED10822DFF86C1B0DF10900EB
S3150800E530F2F772FDB0B3DFF8644B4046F8F7F3FF25
S3150800E54060B9206890F82000A8EB0000C0B28028C7
S3150800E5500DDA00210020F6F703FD08E001200090FF
S3150800E560002332463946484605F023FED0B14846D0
S3150800E57002F0B5FD51460DF1090006F05BF80646B6
S3150800E580FE2E0FD0FF2E3AD1504603F0CCFC06469D
S3150800E590DFF80C7BFF2E0BD00DF1090103F0B6FE58
S3150800E5A0387860B300211920F7F79DFF0020EAE2CA
S3150800E5B000F044F80AD1484602F076FE014648467D
S3150800E5C0FCF73DF8082801D10120F0E73878002843
S3150800E5D0E8D1206890F82D1090F82C00814205D3D8
S3150800E5E000F0DDFA4FF6F8718842DBD20DF1090129
S3150800E5F0504603F0E6FD504603F095FC06462068B3
S3150800E60090F82000804505D041460120F8F793FD93
S3150800E6100028C7D0206890F82000804503D13046EE
S3150800E62006F077F828B95946304605F0ECFF002879
S3150800E630BDD05946304605F0F6FFC5E7287800F004
S3150800E64003000128704738B5DFF8580AFCF714F9B3
S3150800E6500446FF2C1DD0DFF8505A032102F0E9FBCF
S3150800E66028700421204602F0E4FB68700521204644
S3150800E67002F0DFFBA87001200AF0DAFA204600F063
S3150800E68009F82046FBF748FE0020BDE832400AF0AC
S3150800E690CFBA31BD38B5044602F0EBFB00F00C05E5
S3150800E6A0204602F0EBFBF7F7D3FE204602F0E1FB2B
S3150800E6B000F00C00082832D1F4F7CEF918B120463C
S3150800E6C0FCF768FB76E0062200212046FFF748FDA6
S3150800E6D02046FBF7ADFD0AF0D6FA8DF801008DF855
S3150800E6E002409DF8010048B92046FBF7A1FD014606
S3150800E6F00DF101000AF0FCFA8DF800009DF8010002
S3150800E700802804D100A8FCF776FD002852D1F7F737
S3150800E7109AFE00A804F0B7FAF7F79BFE4AE0042D24
S3150800E720204617D102F0A0FB00051ED402200021C6
S3150800E730F7F7D9FEF4F790F908B1042D3AD00C2D65
S3150800E74015D12146012008F040F998B32046F6F77E
S3150800E75079FE2FE002F0E0FBB0F5006FE6D1204627
S3150800E76002F0FCFB00F072FBE0D10020DFE7280096
S3150800E77003D12046F7F716F81CE0042D1AD1DFF866
S3150800E7801C090568687B02280CD0FFF788FC48B985
S3150800E790687B332818BF312804D0012804BF287B9A
S3150800E7A0052807D12146022008F00FF910B12046A6
S3150800E7B000F004F8F7F74DFE31BD00002DE9F04FE3
S3150800E7C085B0804602F046FB00F0E0F9ADF804009B
S3150800E7D0281DFBF7DCFF00F0E1F98346284602F026
S3150800E7E082FD0390FFF72AFF0CBF012400246878F6
S3150800E7F000F0020100914FF6F8718B45B641F143DE
S3150800E800CE0F0490404602F04FFD8246287800F06D
S3150800E8103C01082968D1DFF87C15096818F8011049
S3150800E8208A4561D214B9032108425DD10098C0B265
S3150800E83058B1DFF868080068C07E002854D0294619
S3150800E8404046FFF744FE00284ED02CB1414603202F
S3150800E85008F0BBF8002847D051464046FBF7EFFEC4
S3150800E86007460098C0B2C8B9DFF830080068C07E0D
S3150800E870A0B1F9F7F0FB834536D124B1062F0DD0A8
S3150800E880072F31D10AE007F00300012806D05246C7
S3150800E8902946404600F07FFD002825D0DFF8FC0712
S3150800E8A00068417B022949D10099C9B211B9C07ED5
S3150800E8B0002843D1BDF8040001F0C2FF002813D197
S3150800E8C0BDF804000090F9F7C6FB0099814210D103
S3150800E8D000F036FD09D3F9F7BEFB0D22014600F01C
S3150800E8E059F940880AF044FB4DE1012001F0C4FEC5
S3150800E8F049E1BDF8040001F0BCFC70B9F9F7B3FBB7
S3150800E9004FF6FF71884208D0DFF8940B00780A2882
S3150800E91004BFBDF8040003F093FA012203994846A0
S3150800E92001F0D1FE0028E3D1284602F0CFFC0146CB
S3150800E9300022584601F0C7FE0028D9D14FF6FC70D0
S3150800E940834506D1DFF854070068007B0328CFD239
S3150800E95009E04FF6FD70834505D1DFF840070068EA
S3150800E960007B0428C4D2A87908B1401EA87168782B
S3150800E97040072CD50020029002AA0DF10101484655
S3150800E98006F0F4FC029810B306F043FC8DF800007C
S3150800E990584602F05FFF0299097901F03003102BFF
S3150800E9A01CBF01F00C02082A03D0029A01F0F301F9
S3150800E9B011710299097901F03301202907D1FF283D
S3150800E9C005D0012201469DF8000006F020FDBDF89D
S3150800E9D0040002F03FFFFF2804D0DFF8C81A0968D0
S3150800E9E000224254049800F00100304367D1E979C7
S3150800E9F048460AF095F8FCF705FC08B1039820B1DB
S3150800EA00BDF80410484600F0B4F9F9F724FB584558
S3150800EA1055D0584601F02DFC20B124B1012F08BF6E
S3150800EA2000225CD064B9584601F014FC40B10023BA
S3150800EA30424659464846FBF751F9002840F09F8060
S3150800EA40DFF8640A007840B9484601F012FC20B99C
S3150800EA50584601F00EFC002830D0D4B1052F18D145
S3150800EA60F9F7F9FA8DF80000F9F7F5FA000A8DF8C2
S3150800EA700100022200A94046FBF75BFD00281DD1D4
S3150800EA800AF10101C9B24046FBF7B1FD0178491CFC
S3150800EA900170687840070AD5404602F03CFB411CE5
S3150800EAA0C9B24046FBF7A3FD0178491E01704046EE
S3150800EAB0FFF76DFB00211C20F7F715FD63E0002C1E
S3150800EAC04FD0781E09285ED8DFE800F005050E133A
S3150800EAD019333C424646022F0CBF012200225146FA
S3150800EAE0404606F033F84EE0514640460AF074FABE
S3150800EAF049E052464146484601F0CFF843E00AF15C
S3150800EB000101C9B24046FBF79AFD0546DFF89C4964
S3150800EB1003982060F7F797FC0AF10200C0B200904C
S3150800EB2043462A46216848460AF0C6FAF7F791FC92
S3150800EB3029E0CDF800A02B46424600210120F6F731
S3150800EB4007FB20E0524641460120F6F7D5FB1AE0BE
S3150800EB5040460AF0B5FB16E04046FCF796FB96B130
S3150800EB6009E00498C00705D5287A00F003000128B3
S3150800EB7009D100E01EB1404600F014F803E0002178
S3150800EB80404600F073FC05B0BDE8F08F05464046E8
S3150800EB9002F081B9DFF80405006870478146A81CB1
S3150800EBA0FBF7F5BD2DE9F84F804602F053F9FFF75C
S3150800EBB0EDFF0446281DFBF7EAFDFFF7EFFF834646
S3150800EBC095F807A0204601F054FB0746294640461B
S3150800EBD000F070F80646022E64D022465146484692
S3150800EBE006F077FF00285DD1F9F735FA814559D047
S3150800EBF0DFF8BC08007860B9012E06D0FCF702FBE6
S3150800EC0018B1284602F06FFB18B12146484600F0B5
S3150800EC10B0F822465146484606F09DFF002841D0E6
S3150800EC2028780321084203D10021404600F01EFC43
S3150800EC30A879B8B3DFF864040068007B032831D2EA
S3150800EC406878C00715D52C7A5846FBF7B1FA40B153
S3150800EC5004F0E000E11001F01C01084340F0010057
S3150800EC6006E004F01C001C2803D005281ADB201F28
S3150800EC7028724FF6FF752946404602F01EF90FB175
S3150800EC80002203E004F062F800F03F0200230221AC
S3150800EC90404602F0FDFCAB4504D14046BDE8F24FC4
S3150800ECA007F032BFBDE8F18F68760020AC7400200B
S3150800ECB0B47C0020F0B587B00446087803210842E2
S3150800ECC054D12146042007F080FE00284FD0204664
S3150800ECD002F0EAFA014600F05BFB0321084245D13F
S3150800ECE0204602F0E1FA0546294600F051FB05A93F
S3150800ECF00FF2E07248CA48C10321084236D1002003
S3150800ED00009005236A1CD2B2214603A8FBF7A1FB93
S3150800ED10052203A905A8F2F78DF938BB204602F0AB
S3150800ED2046FB0546A91C00F032FB0646691C00F0A6
S3150800ED302EFB00EB062605F10B0100F028FB074623
S3150800ED40002000900823EA1CD2B2214601A8FBF74E
S3150800ED5080FB204602F09FF83A46B1B2FCF74FFA1C
S3150800ED60012201A9B0B201F0AEFC00E0002007B014
S3150800ED70F0BD38B504460D4601F07BFA002818BFE9
S3150800ED80AC4206D0204602F065FDBDE8324001F0EF
S3150800ED90EEBA31BD687400202DE9F04180460D4673
S3150800EDA000260DB9012602E0312D08BF002502F024
S3150800EDB060F800F00C00082813D1F3F74DFE80B96F
S3150800EDC0DFF8F06686F80080F7F73DFB4046FBF76C
S3150800EDD0DAFA294603F058FFF7F73BFBFF203070B5
S3150800EDE032E0DFF8D476404602F043F80C210842B8
S3150800EDF005D139780120BDE8F041F7F774BB032443
S3150800EE00404602F089F8B0F5006F07D1404602F097
S3150800EE10A5F800F01BF808BF012401D005B10524A8
S3150800EE2039782046F7F75FFB2946404607F0DCFEAF
S3150800EE3050B92946404602F0ABFC28B93246294665
S3150800EE404046BDE8F04105E0BDE8F0814FF6FF71A8
S3150800EE50884270472DE9FC4706460D46144602F0DF
S3150800EE6008F800F00C00082808D1F3F7F5FD28B1DA
S3150800EE70224629463046FBF78EFF03E1874F304688
S3150800EE8001F0F7FF00F00C000C28304655D101F0D0
S3150800EE90E1FF824602F025F850444FF0FF09DFF8FB
S3150800EEA014860178012906D0022912D0042924D013
S3150800EEB07C2933D0E6E04DB99AF804009AF8031095
S3150800EEC001EB002080B2F9F7D2F8DBE0F6F731FC67
S3150800EED0D8E0002D04BFC178002908D131468278D0
S3150800EEE0407800EB022080B2F8F714F88CE00AF1BB
S3150800EEF00501002001F091F88CE03868407B022873
S3150800EF00E6D11DB901F051FF04B9312588F8006032
S3150800EF10F7F799FA284603F0B3FE09E088F8006087
S3150800EF20F7F791FA3046FBF72EFA294603F0AAFEC0
S3150800EF30F7F78FFA88F80090A4E001F08BFF0446F3
S3150800EF40201DFBF724FC8046A01CFBF720FC81460D
S3150800EF504FF6F87AD1450AD23868B0F84410491CF9
S3150800EF60A0F844101DB144304188491C41802078DE
S3150800EF7000F00301012950D1304602F095F9014607
S3150800EF803046FBF75CFB042802D0072804D079E05A
S3150800EF90304600F06BFF75E0204602F097F900282E
S3150800EFA070D00146002001F038F88146304602F05C
S3150800EFB07BF9002100910323421CD2B2314601A8F5
S3150800EFC0FBF747FA002D02BF3868407B022820D19C
S3150800EFD001A88178E9B940789DF8041001EB00256D
S3150800EFE0B9F1FF0F0DD0DFF8D404006830F8191016
S3150800EFF04FF6FF32114020F81910A9B2484601F021
S3150800F0007EF9A8B206F01DF900211020F7F76BFA71
S3150800F01038E0484601F0ABF934E00321084231D123
S3150800F020F9F719F8804504D0304601F01DFFC006EF
S3150800F03006D5002D0CBF002166213046FEF723FEBB
S3150800F04005B3D1451ED2607810F0040506D14846AE
S3150800F05006F0B2F9060002D0012600E0002648466E
S3150800F06001F0F8F808B1062207E00DB10B2204E01A
S3150800F07016B90222494608E00C222EB949464046EE
S3150800F08009F076FFBDE8F3874146002EF7D0C8465B
S3150800F090F5E70000A8760020C87C0020B47C002094
S3150800F0A0E47F002054770020D77F00202DE9F04F19
S3150800F0B085B0044694F800A0504601F0DFFEF7F745
S3150800F0C0C7F9F3F7C9FCB0B1A079012805D1DFF873
S3150800F0D0F003017841F0010101702078FBF75CFE2E
S3150800F0E0002840F0CF80607800F0F0006070F7F7F5
S3150800F0F0B0F9002047E5504601F0ACFE0646301D43
S3150800F100FBF745FBADF80000B01CFBF740FB81465A
S3150800F110504602F0C9F88346594600F00EF98DF8B4
S3150800F12002003078FFF78BFA0CBF9DF80250FF25D6
S3150800F130FCF7F0FCA188401A1FFA80F8F8F78BFF55
S3150800F140BDF8001088420CBF01270027084601F0C9
S3150800F15077FB0028C7D1484601F072FB20B1484624
S3150800F16001F087F80028BED000F0EAF821D3062D72
S3150800F17018BF042D61D05A463146504600F00BF9A7
S3150800F180B8B9FEF78CFF20B19DF80200FFF757FAD1
S3150800F1900FD0F3F7E6FB00284CD0F8F75CFF0146E2
S3150800F1A0301DFBF7FAFAFFF7F5FC4188504601F0E7
S3150800F1B084FE012D41D1504601F06DFEFFF746FE53
S3150800F1C03BD1002300F0B2F805008CD06A799DF88F
S3150800F1D00D00824207D20BF10501C9B25046FBF772
S3150800F1E033FA00F09DF803F0B1FD7E2190FBF1F2B1
S3150800F1F001FB120000F5807060809DF80E00182152
S3150800F200084212D060780F21084208BF002F0CD19F
S3150800F210F7F719F9304602F066F86A790146BDF83B
S3150800F220000003F034FDF7F714F9F7F712F99DF823
S3150800F2300F005FE72820608059E74FF6F870814590
S3150800F24002D27078C00721D500F07AF81ED240F6AF
S3150800F250B93080455CDA03F079FD00F03F00C0F56F
S3150800F260FA706080607800090CD05FB9F179BDF852
S3150800F270000006F024FC00281EBF80884FF6FF71A8
S3150800F2808842A2D0F7F7E5F8012033E7022D26D108
S3150800F290012300F04BF80546F8F7DDFE0146BDF8F8
S3150800F2A00A00814202D000F0E4FF58B3002D8CD04A
S3150800F2B06B8801225946504605F0ECFBFFF76AFCBD
S3150800F2C0417E491C4176F171BDF80600698888427D
S3150800F2D001D000F025F84FF4C8706080D2E7032DFE
S3150800F2E010D17FB10BF10101C9B200F026F80C2844
S3150800F2F008D103F07DF8FFF7A9FD03D00146504673
S3150800F30001F0DBFD607800097FF4EDAEB8F1FB0F84
S3150800F310BFF6E9AE03F01AFD00F01F001030DCE777
S3150800F320607800F0F000801C6070704701AA5946AA
S3150800F330504605F0F5BA054629465046FBF77FB90B
S3150800F34060480068007B0328704770B50446F3F7E9
S3150800F35083FBD0B9204601F07DFD0546204601F025
S3150800F360A3FF014600F014F80646204601F093FD77
S3150800F3704FF6F871884206D2287800F00300012873
S3150800F38008BF022E01D1012070BD002070BDC9B290
S3150800F3902046FBF754B9F8B5044615460846FBF768
S3150800F3A0F6F920F4007041F20801884217D1464860
S3150800F3B00068205C401B072811DB00260FF21C178B
S3150800F3C07119FFF7E4FFF15D814203D0022E08BFF1
S3150800F3D0002804D1761C072EF2D30120F2BD0020A6
S3150800F3E0F2BD2DE9F04180460C4601F042FD00F0E1
S3150800F3F00C0008282FD0201DFBF7C9F90546E67929
S3150800F400FFF7C5FB0746404601F02EFD00060ED560
S3150800F4102C480068017B042909D3417B022906D1BF
S3150800F42040884FF6FF71884218BFF7F754F8A01CBA
S3150800F430FBF7ADF94FF6F871884202D26078C0073B
S3150800F4400BD520780321084205D13A46314628468D
S3150800F45006F03FFB05E0012006E03146284609F0A4
S3150800F4604BFB401E8041C00FBDE8F08110B5044635
S3150800F47041B1FF22032101F0D5FC002204212046D8
S3150800F48001F0D0FC21461148FBF7E1F92046FAF7CE
S3150800F49035FF0F480078BDE81040F5F71AB80000A8
S3150800F4A0B47600208874002078740020C47C00207C
S3150800F4B01A7F0020A076002091770020847400200F
S3150800F4C0717E0020B47C002068740020A476002099
S3150800F4D0D57F0020001300000000000000FF014057
S3150800F4E00EC0FF0070477047002070472DE9F24FA5
S3150800F4F090B080461546994605A99DF8400000F04B
S3150800F5006AF907469DF81400DFF8D0150968405CCB
S3150800F510C21BDFF8CC150968CE88B1F802A0BAF587
S3150800F520004F01D2B84204DADFF8B80500210170AD
S3150800F5308CE0B9F1000F18BF4FF4A076D4B2152CA1
S3150800F54034BF2046152000210091431CDBB27A1EE9
S3150800F550D2B29DF8141006A8FAF77BFF9DF818B0EA
S3150800F5605B4632464AF400410CA800F027FA012D02
S3150800F57014BF0120002001900DF1190000904B46A0
S3150800F58042465146304600F065F808B101205EE073
S3150800F590002D5BD1DFF8480500684088342841D142
S3150800F5A0C8259DF8210041064CBF80210021000690
S3150800F5B04CBF2020002040EA0104002208210DF15A
S3150800F5C01900F3F704FA38B90822DFF81C150DF10B
S3150800F5D01900F1F721FD90B9DFF810050068017BE5
S3150800F5E0032903D34088804503D015E04069C0014C
S3150800F5F012D403224146204600F0ACFA0AE00DF187
S3150800F600190000F0DDFD4FF6FF71884204D021464F
S3150800F61000F0C9FB00B900252A46ADA1404600F016
S3150800F620D8F913E0DFF8C804007878B1CDF810B03F
S3150800F630039602940DF11900019000979DF8143075
S3150800F6404A469DF84010404609F05CFF002011B07C
S3150800F650BDE8F08F2DE9F54F85B01D46119C0DF1DB
S3150800F6600C090026DFF880B4109FF9B9B94607F1EE
S3150800F6700808082259463846F1F7CEFC38B9F8F793
S3150800F680EAFC8246ACBB95B386F001002CE038460E
S3150800F69000F096FD82464FF6FF70824504D050462C
S3150800F6A000F0D8FD0028EDD10126E8E701291AD196
S3150800F6B07878397801EB002A07F10208F8F7CBFCCD
S3150800F6C01FFA8AFA824508BFD946DBD0504600F0B1
S3150800F6D0C1FD28B103A9504600F0DEFD0028D1D1AE
S3150800F6E0D9460126CEE7002007B0BDE8F08F0120F5
S3150800F6F0FAE7002D18BF002EF9D198F8005098F8AF
S3150800F70001700EB1812203E0022DB4BF00228022CF
S3150800F710029700200190CDF800A04B460FF2E03189
S3150800F7200120FAF7D4FF0446FF2CE0D0002E08BFCC
S3150800F730012D0DD00C212046FAF73DFF2246002167
S3150800F740BDF8180000F045F92046FAF7E5FDCEE7C2
S3150800F750F8F781FC824536D14FF0000BDFF87CA321
S3150800F760DFF89093DFF8905303E0781EC7B20BF1E9
S3150800F770010B28785FFA8BFB834522D2D9F8000063
S3150800F78010F81B008007F2D53800EED1584600F075
S3150800F79025FD8DF8000000128DF80100022200A94F
S3150800F7A02046FAF7C6FE0028CED1761CF6B2BDF87A
S3150800F7B01400FAF741FADAF80010615C891C8842ED
S3150800F7C0D5DA300001D10D21B5E732460C212046A5
S3150800F7D0FAF73AFFB2E738B504460D46FAF7D3FD0D
S3150800F7E0FF2805D02046FAF7CEFD2870012004E050
S3150800F7F02C70204601F0DBFD401CC0B232BD30B58E
S3150800F80087B004460846154601A9FFF7E4FF0246F5
S3150800F8109DF80400B1490968405C831ADBB20B2BDA
S3150800F82088BF0B23002000909DF8041004A8FAF75F
S3150800F83010FE4FF40041681A012803D9213801281F
S3150800F8401CD926E09DF8100018BB9DF81A009DF8F3
S3150800F850191001EB002508220DF1110102A8F1F794
S3150800F86091FB012202A9A8B200F02DFFADB2A54274
S3150800F8700FD0012102A8FAF787FC0AE048F2210016
S3150800F88085420CBF012000209DF8102021460AF071
S3150800F89062FA07B030BD2DE9FF4105460E46174608
S3150800F8A098460A9A0B9C002392B2012101A800F0FF
S3150800F8B085F88DF80880330018BF012300972A467B
S3150800F8C081A1A0B200F085F804B0BDE8F08100007F
S3150800F8D0310000001CB5049C0190A4B20094FFF707
S3150800F8E0DAFF16BD01234BE080B500930123FFF72D
S3150800F8F0F1FF02BDF0B587B000F05AF800223821B2
S3150800F90003A800F05BF800208DF81000BDF812007F
S3150800F91040F04000ADF81200FF2E04D1FBF791FC31
S3150800F9200FF2E4110BE0FE2E18BF384605D1FBF79F
S3150800F93088FC401CC0B2FBF78CFC0FF2D41102976E
S3150800F940C0B2019000962B0CAAB2204600F041F8EE
S3150800F95007B0F0BD1FB500234FF48062132101A83C
S3150800F96000F02CF8F6F790FA0446F8F774FB02460E
S3150800F97000945D4B55A14FF6FD7000F02AF81FBDA7
S3150800F980F0B585B000F014F84FF48062002101A8A4
S3150800F99000F014F88DF808702B0018BF01230096A4
S3150800F9A022464BA14FF6FD7000F013F805B0F0BDE6
S3150800F9B004460D4616461F460023704710B5002418
S3150800F9C00471447141800480C28003814B494860B8
S3150800F9D010BD0CB42DE9FC4780460D000AAA08BFE5
S3150800F9E0166803D00120FAF758FE0646F3F73DF8E5
S3150800F9F0F6B2FF2E08BF182062D04FF6F879C84530
S3150800FA008041C043C00F3D4C61680A7922B900287D
S3150800FA100CBF0627072705E000220A71002814BF35
S3150800FA20042700274888B0F5004F05D22078401CE7
S3150800FA30207040F0800A01E0B1F808A05FFA8AF267
S3150800FA4000213046FAF700FE002001900096FF23B9
S3150800FA50626841463846F9F7ABFD074615B13046A8
S3150800FA60FAF75AFC742F2AD1C84528D2606840880C
S3150800FA70B0F5004F23D3F8F7EEFA6168498848F2E3
S3150800FA80040291420CBF13A113A10022009203465F
S3150800FA908A220120FAF71BFE0546FF2D0FD05FFAD2
S3150800FAA08AF20021FAF7D0FD002001900095FF2385
S3150800FAB062684146F9F77CFD2846FAF72DFC384678
S3150800FAC0BDE8F6075DF80CFB3231310032383100FB
S3150800FAD0383131003132310031320000687400208B
S3150800FAE0C07C0020D47F0020C87C0020B47C002085
S3150800FAF0E27600208474002080740020F07D0020C7
S3150800FB0031383231310000003232313132000000F2
S3150800FB10323231310000000080B5DFF83C030021A5
S3150800FB2001710420F6F78BFCF6F792FCDFF82C033C
S3150800FB300068407B042814BF532800F055F8BDE838
S3150800FB400140F6F786BC80B5F2F78FFF0020BDE8C6
S3150800FB50024045E0F8B5C14C23685D7B05F00F0609
S3150800FB60002D18BF212D07D01D7B012D01D185063B
S3150800FB7002D4B94D2F790FB17020F2BD2A70A98130
S3150800FB80012E04D12120587300F02EF826E08106B4
S3150800FB904CBF53210421597321680A7B032A27BFC6
S3150800FBA04A8800F020004FF6FD7200F0A0000146DA
S3150800FBB0104600F016F92068407B042804BF01208F
S3150800FBC0F6F7A2F80420F6F739FC2068007B03282C
S3150800FBD02CBF02210821281DF4F78CFB0020F2BD5A
S3150800FBE0FF224FF6FF71B5E780B5FDF7DBFD01F0A3
S3150800FBF0A5FD01F0B2FF9A4800780A281CBFBDE8A7
S3150800FC00014000F0CEBE0420F6F718FC01210FF2E1
S3150800FC100D00BDE80440FBF769B9000010B50420E3
S3150800FC20F6F70DFCF6F714FC8C4C2068417B53293B
S3150800FC3006D10321417300210120F5F791F926E049
S3150800FC40042918BF212922D10120F6F75DF84FF6BD
S3150800FC50FE70F8F704FA4FF6FF70F8F708FA002076
S3150800FC60F5F7C6FFF5F784FDFEF7F4F9FBF7C2FAD8
S3150800FC702068407B212802D1F4F7D4FF07E0002052
S3150800FC80F2F734FE00214FF4004003F0FDFCF6F7CE
S3150800FC90E0FBBDE81040F6F79ABB2DE9F84380462D
S3150800FCA00E46511CC9B23046FAF7C9FC054630461D
S3150800FCB001F0D0F80646B01CFAF769FD814605F052
S3150800FCC04004664F3868017B032903D34088804582
S3150800FCD003D023E04069C00120D4200010D07078FA
S3150800FCE0000708D5304601F0F1FA08225D49F1F718
S3150800FCF093F9002802E0F8F7AEF981453DD107E00F
S3150800FD0003290CD34FF6F870814508DB280606D57B
S3150800FD100122414605F0A000FFF71CFF6CBB3868BE
S3150800FD20007B032829D27078C00626D5304601F014
S3150800FD30DAFA05462946002000F06FF90646FF2E36
S3150800FD4004D000F01CF8304600F011FB404602F0E3
S3150800FD50EAF8FF2818BF02F085F9F8F77CF960B9C8
S3150800FD60F6F771FB4FF6FF73022229464046F7F76E
S3150800FD703EFFBDE8F143F6F76CBBBDE8F1831CB561
S3150800FD8000F02CFA044600A900F086FA50B1F8F7FC
S3150800FD9062F938B1F2F7A6FD20B1022200A9204681
S3150800FDA0F7F710F913BD38B504460D4601F052FDB4
S3150800FDB0FF2801D1012032BD28490968C97E49B109
S3150800FDC02949096831F81010490403D500F0CFFA1B
S3150800FDD0002032BDFFF7D3FF45F040012046BDE8BD
S3150800FDE0344030B585B0044601F0400504208DF84E
S3150800FDF008008DF8091045B103A9204600F04CFA11
S3150800FE0008B9012025E003A800E00020019000952C
S3150800FE10022302AA0121204601F027FA0546FF2DF2
S3150800FE2008BF182015D04FF6F870844206D3002371
S3150800FE3000220221284601F02BFC03E02146284631
S3150800FE40FEF7C4FA441EA441E40F2846FAF764FAFA
S3150800FE50204605B030BD0000E4760020B47C0020C2
S3150800FE60B4760020C87C00208474002038B5044687
S3150800FE7000F0F0FF0546204601F016FA411CC9B20B
S3150800FE802046FAF7DCFB697809070AD5284601F007
S3150800FE901DFA0146002000F0C0F8BDE8324000F027
S3150800FEA066BA40065CBFBDE83140FFF735BE31BDD6
S3150800FEB0FEB5DFF8F006FF214170002181808170D0
S3150800FEC00024DFF8E45607E02046F6F7C1FA00F00A
S3150800FED06CFFF6F7BEFA641C2878E4B28442F3D3C2
S3150800FEE0DFF8C846207800F057FBF1F78EF80025B2
S3150800FEF0DFF8BC6600AF18E00B232A46142100A8D9
S3150800FF00FCF737FF787A397A01EB0020316821F857
S3150800FF10150080B200281CBF4FF6FF71884203D037
S3150800FF20B97A284600F006F86D1C2078EDB28542AD
S3150800FF30E2D3F7BD09074CBF00210421DFF8742678
S3150800FF40126841F4805141F0020122F81010DFF8DE
S3150800FF506816096800224254704770B500220023CB
S3150800FF60DFF85046246802E024F813505B1CDFF8DB
S3150800FF703C562D78AB4209DA34F813506E07F5D59E
S3150800FF800122002914BF05438543EDE7104670BDDD
S3150800FF90002100E0491CDFF814261278C9B2914204
S3150800FFA009D2DFF81026126832F811200240824280
S3150800FFB0F0D101207047002070472DE9FE43064620
S3150800FFC00C461546DFF8E885DFF8E09501E0E7B16D
S3150800FFD0761C99F80000F6B286421BD2D8F80000C3
S3150800FFE030F8167000A9304600F062FA002CEED000
S3150800FFF0002F1CBF4FF6FF708742E9D0082200A9E0
S315080100002046F1F709F80028E2D19DF80A00287080
S31508010010304600E0FF20BDE8FE8380B500AAFFF761
S31508010020CCFF02BDFEB504460D4611461E46082202
S3150801003000A8F0F7A7FF8DF80850280A8DF80900DF
S315080100408DF80A6031462046FFF774FF204606F010
S3150801005021FD274600F0A2FA30F8171041F4804135
S31508010060320604D441F0080120F8171006E020F8FA
S315080100701710DFF848050078FE2805D300A92046A1
S3150801008000F0C9F930B9FEBD0B2300AA2146142098
S31508010090FCF781FEDFF81805006820F81750DFF82D
S315080100A02005006890F82C107918006B002240F89A
S315080100B021200120FEBD2DE9FE4F82468846934642
S315080100C01E460C9C00AA51460020FFF776FF0746FC
S315080100D0DFF8DC54FF2F0CD09DF80000584502BF0D
S315080100E0286830F81700804503D0384600F03FF9F4
S315080100F0FF274FF6FF79C84513D096B901A940469F
S31508010100F7F776FF98B90022082101A8F2F75FFCF4
S3150801011068B9082201A95046F0F77EFF38B1C846EA
S3150801012005E0FF2F03D0384600F021F9FF275FEAE3
S315080101308B7006D5C84518BF40462CD100F074FA15
S3150801014029E0FF2F20D1DFF85C64DFF87804007816
S315080101503178884211D0C84502D100F065FA804647
S3150801016000210020FFF759FF0746FF2F05D05B4600
S3150801017052464146FFF756FF08B948460BE0307824
S31508010180401C3070F5F7F4FA2146384600F098F825
S31508010190286830F81700BDE8FE8F0020DFF8141430
S315080101A009684EF6FF7305E031F810201A4021F868
S315080101B01020401CDFF8F42312789042F4DB7047D4
S315080101C080B501460020FFF728FFFF281CBFBDE8C0
S315080101D0024000F003B84FF6FF7002BDDFF8D413F2
S315080101E0096811F81010890705D5DFF8C4130968DD
S315080101F031F8100070474FF6FF70704770B584B03C
S315080102000D461446DFF8BC130978884206D2DFF892
S31508010210A413096811F81010890701D4932017E06F
S3150801022000A900F045F99DF80A60082200A92846A8
S31508010230F0F7A8FEB00748BF022007D4300748BF29
S31508010240032003D430064CBF04200520207000206B
S3150801025004B070BD80B501F0FDFAFF2807D0DFF8BC
S315080102605413096831F810000006800E0AE00020D0
S3150801027002BD80B501F0EEFAFF2801D0012002BDCA
S31508010280002002BD00F0010002BDE0B500A900F0A2
S315080102900FF99DF80A000EBD10B584B00C4601F0A1
S315080102A0D9FAFF2809D000A900F002F9082200A905
S315080102B02046F0F767FE012000E0002004B010BDDB
S315080102C03EB5044611F001050DD000AA01A9FFF7B4
S315080102D095FF40B900F062F910F8140000F0040126
S315080102E001A8F9F751FF204605F079F8F6F7ABF8BA
S315080102F02946204602F0C3FCF6F7ABF837BDFEB532
S3150801030004460F462546AA4E306830F81500B8420D
S315080103100FD000A9204600F0CBF88DF80870380AEE
S315080103208DF8090000A9204600F0E5F8306820F8A4
S315080103301570F7BD38B505462C469D48006830F856
S31508010340140098B197480178491E0170F5F710FA1B
S3150801035000212846FFF7D3FF00F020F9002120F8F5
S3150801036014101120BDE83440F6F7BDB831BD10B5FB
S3150801037004469448007884420CD28D48006830F8C7
S31508010380140038B100212046FFF79AFF2046BDE840
S315080103901040CFE710BD38B50024844D04E0002194
S315080103A02046FFF7ACFF641C2878E4B28442F6D3F2
S315080103B07C4C6078FF2805D0F9F7AEFFFF20607006
S315080103C00020A08000202070287800F0E5F8BDE81C
S315080103D03840F0F71ABE38B50021784A1278FE2A55
S315080103E02CBF02220822734B1B6833F81040E4B273
S315080103F014420DD0002407E033F81450EDB215422B
S315080104001CBF0B3189B2641C8442F5DB084632BD38
S315080104104FF6FF7032BD2DE9FC4107460C46FFF742
S31508010420DAFF80465F4E7078624DFF2808D10B21AE
S315080104300020F9F7F4FF70700021B180FF2806E06B
S31508010440B18801F10B0292B2FAF77FF8002809D1B7
S31508010450286830F817104FF6F772114020F8171070
S31508010460002023E0B18808E0A1F10B070B220092D6
S31508010470BBB20246FAF7B9F9B9B270788845F3DB27
S315080104808DF80400414601A8FAF7CDF80246012085
S3150801049000900B239DF804102046F9F7FAFFB0885F
S315080104A00B30B080B078401CB0700120BDE8F681F1
S315080104B030B583B004460D46FFF78DFF4FF6FF7141
S315080104C0884206D10B23224614212846FCF751FC03
S315080104D037BD344949788DF80410014601A8FAF761
S315080104E0A2F80246002000900B239DF80410284626
S315080104F0F9F7CFFF37BD7CB505460E46FFF76BFF0B
S3150801050001464FF6FF70814206D10B233246294632
S315080105101420FCF740FC73BD224C6278707A337A5A
S3150801052013EB002029D100F039F830F815304FF6D1
S31508010530F776334020F81530A078012806D1104601
S31508010540F9F7EAFEFF206070002511E0A088A0F106
S315080105500B05681A80B230B1009001F10B039BB20A
S315080105601046FAF742F9AAB2A1886078F9F7EDFFC1
S31508010570A580A078401EA07073BD8DF8042001A83F
S31508010580FAF751F8012100910B2302469DF8041050
S315080105903046F9F77EFF73BD420000210548006821
S315080105A0704700008E760020AC740020807400200D
S315080105B07C7400208474002088740020BE7F00208B
S315080105C0B47C0020E3740020008F8E8C800000002C
S315080105D010B5B0480021017009E0AF4A126812F857
S315080105E01120920702D50278521C0270491CAB4AA7
S315080105F01278C9B29142F0D3A9480068007B012854
S3150801060018BF022804D100214FF6FF70F5F747FC01
S31508010610A44C002020706078FF2803D0F9F77CFEEF
S31508010620FF206070012010BD1CB502F08FFB04008D
S31508010630FBD04FF6F7708442F7D2F7F70CFD8442E8
S31508010640F3D0204601F079FC0028EED100A9204616
S31508010650F9F718FD0028E8D1204604F07AFE0028AB
S31508010660E3D1204605F02DFA0028DED100F077F80F
S315080106700028DAD1204616BD38B5044688480068F0
S31508010680007B02281ED1F7F7E6FC0546F7F7E3FCDF
S3150801069000F097F8FFF7C8FFF7F7E1FC0020F5F738
S315080106A033FB9920F5F71DFF002C04BFBDE8314047
S315080106B0FFF750B90D2229464FF6FD70BDE83840BF
S315080106C008F056BC31BDF0B583B004460D46164652
S315080106D0F7F7C1FC84420CBF01270027002D3CD047
S315080106E04FF6FC70844238D200F039F8002818BF5A
S315080106F0002F04D06A480068007B03282DD200F039
S315080107002EF8F8B94FB1082267492846F0F784FC54
S31508010710D0B10120FFF7B0FF14E0ACB100A9204623
S31508010720F7F766FC80B90022082100A8F2F74FF90D
S3150801073050B9082200A92846F0F76EFC20B12046D8
S3150801074000F00FF80120FEBD3EB12146284601F012
S315080107507FFD21462846F9F73BFC0020FEBD2046D1
S315080107606EE010B5044600F06BF860B9204600F05B
S3150801077028F80D2221464FF6FD7008F0F9FB2046B0
S31508010780BDE8104000E010BD1CB5044601F062F852
S31508010790FF2815D04049096831F81020530704D5B8
S315080107A042F4806221F8102013BDFFF73DFF02468F
S315080107B0012001900020009001232146F4F782FCD4
S315080107C013BD70B504464FF6FC70844237D2002C2F
S315080107D035D0FFF7C4FF90BB31480068007B042879
S315080107E02DD2204601F09FFBFF2818BF01F03AFCE5
S315080107F0204604F021FD08B104F0E2FB2046F9F792
S31508010800CAFBF5F720FE204602F044FAF5F721FE69
S31508010810244D287820B9F9F7E2FD6870FF280ED033
S315080108206878F9F705FD06461E223146B01CF0F731
S31508010830A9FB348028781F283CBF801C287070BD0E
S3150801084070B504461748017899B10025491C090471
S315080108504E0CF6B24078F9F7EBFC00E06D1CEDB2F0
S315080108602946B14205DA30F81110A142F6D1012024
S3150801087070BD002070BD10B50A4C207840B1401EED
S315080108802070C0B220B96078F9F746FDFF20607084
S3150801089010BD00008E76002084740020E3740020C9
S315080108A0B47C00203A770020C87C0020F8B50446BD
S315080108B00F461546DFF8B46330780A2801D03D2083
S315080108C0F2BD0F2D01D33320F2BD092C01D33420FB
S315080108D0F2BDDFF89C033840B84201D03520F2BD9D
S315080108E037B90120DFF88C130968897B00FA01F70B
S315080108F0002C18BF022C0CD120210020F9F78FFDFE
S31508010900B071FF2801D11820F2BDF9F791FCF06109
S3150801091030623470B570B761002070700820F5F741
S315080109208DFD01210FF21500FAF7E0FA30780A2851
S3150801093001D10120F2BD0020F2BD000038B5082022
S31508010940F5F77DFD0446F5F783FD2046F5F794FD99
S315080109500020F5F772FDC54CF2F773F82071F7F729
S3150801096082FB2082FCF7E3FD607120784FF6FF7564
S31508010970062808D10120FCF7DDFD0720207028464E
S3150801098002F0CAFC0CE0082805D02846F7F76FFBE9
S315080109902846FCF74FFE0020FCF7CCFD00F056F880
S315080109A050E038B5F0F708FE0446B04D28780A2815
S315080109B018BF092804D12046BDE83240F0F702BE27
S315080109C0072808BF02F06CFC28786870092028708F
S315080109D02046F0F7F7FD01210FF20D00BDE834407E
